:020000040800F2
:10000000B04600209D010008A1400008F726000826
:100010009D400008CD020008D34B000800000000FE
:10002000000000000000000000000000614A00081D
:10003000B703000800000000A5400008634A00085C
:10004000B7010008B7010008B7010008B7010008B0
:10005000B7010008B7010008B7010008B7010008A0
:10006000B7010008B7010008B7010008B701000890
:10007000B7010008B7010008B7010008B701000880
:10008000B7010008B7010008B7010008B701000870
:10009000B7010008B7010008B7010008B701000860
:1000A000B7010008B7010008B7010008B701000850
:1000B000B7010008B7010008B7010008B701000840
:1000C000B7010008B7010008B7010008B701000830
:1000D000B7010008B7010008B7010008B701000820
:1000E000B7010008B7010008B7010008B701000810
:1000F000B7010008B7010008B7010008B701000800
:10010000B7010008B7010008B7010008B7010008EF
:10011000B7010008B7010008B7010008B7010008DF
:10012000B7010008B7010008B7010008B7010008CF
:10013000B7010008B7010008B7010008B7010008BF
:10014000B7010008B7010008B7010008B7010008AF
:10015000B7010008B7010008B7010008B70100089F
:10016000B7010008B7010008B7010008B70100088F
:10017000B7010008B7010008B7010008000000003F
:10018000B7010008B7010008DFF80CD000F08CF8C8
:1001900000480047D1500008B0460020064880477C
:1001A00006480047FEE7FEE7FEE7FEE7FEE7FEE75C
:1001B000FEE7FEE7FEE7FEE72D4B00088901000899
:1001C0002DE9F05F0546002092469B46884606468C
:1001D000814640241BE0284641464746224600F01F
:1001E00053F853465A46C01A914110D31146184647
:1001F000224600F03AF82D1A67EB01084F462246D6
:100200000120002100F031F817EB00094E41201EBB
:10021000A4F10104DFDC484631462A464346BDE8E6
:10022000F09F40EA01039B0703D009E008C9121FB1
:1002300008C0042AFAD203E011F8013B00F8013BA0
:10024000521EF9D27047D2B201E000F8012B491ECC
:10025000FBD270470022F6E710B513460A46044663
:100260001946FFF7F0FF204610BD202A04DB203A94
:1002700000FA02F1002070479140C2F1200320FAF9
:1002800003F3194390407047202A04DB203A21FAF7
:1002900002F00021704721FA02F3D040C2F120029F
:1002A0009140084319467047064C074D06E0E06848
:1002B00040F0010394E8070098471034AC42F6D3AD
:1002C000FFF766FF748F0008948F000800BFFEE7F9
:1002D0002DE9F0470C4617469C46DDF82080D0F803
:1002E0000090D9F8449009F0404948EA0C4A49EA9C
:1002F0000A09D0F800A0CAF84490D0F80090C9F8D4
:100300003C70D0F80490B9F5403F4ED104F07F46E0
:1003100004F47F0104F47F42E3B2D0F80890B9F10D
:10032000000F06D142EA010949EA060949EA030534
:1003300036E0D0F80890B9F1010F04D142EA010982
:1003400049EA03052CE0D0F80890B9F1020F09D171
:10035000C90C920ADB084FEA421949EAC12949EA65
:1003600003051DE0D0F80890B9F1030F0CD1F60F8A
:10037000C90CD20ADB084FEA421949EA812949EA45
:10038000C63949EA03050BE0360F090D120B1B09AC
:100390004FEA021949EA012949EA063949EA0305FF
:1003A000D0F80090C9F8385003E0D0F80090C9F8B0
:1003B0000C40BDE8F087704701B502E00098401E90
:1003C000009000980028F9D108BD72B600BFFEE782
:1003D00002460868B0B9D1E901031843CB68184355
:1003E0000B6918434B6918438B691843CB69184351
:1003F0000B6A18434B6A184313686FF30E031843D4
:10040000106019E0D1E9070318434B6A18431368D9
:1004100023F4F84318431060D1E901031843CB6873
:1004200018430B6918434B6918438B691843536889
:100430006FF30E0318435060002070470246506966
:1004400043F6FE73984340EA410050610020704734
:100450002DE9F04105460C4616460027D4E9000177
:100460000843A168491E40EA4110E16840EA412082
:1004700029696FF315010843286100F00DFD074657
:100480000AE0701C40B126B100F006FDC01BB0426E
:1004900002D90320BDE8F081A86900F020002028DF
:1004A000EFD00020F6E7000030B50346FAB908683F
:1004B000401E4C68641E40EA04148868401E44EAEA
:1004C0000024C868401E44EA0034088A401E44EAFA
:1004D0000044888A401E44EA0054087E401E44EAD4
:1004E00000609C6804F070442043986022E0C86873
:1004F000401E0403888A401E44EA00509C680E4D4A
:100500002C40204398600868401E4C68641E40EAF6
:1005100004148868401E44EA0024088A401E44EA05
:100520000044087E401E44EA0060DC6804F0704429
:100530002043D860002030BDFF0F0FFF2DE9FC41A4
:1005400000200090019000243548007800EB400026
:10055000344931F810503248007800EB400001EB8C
:100560004000468800272E48007800EB400001EB51
:1005700040008088401C000A8DF800002848007860
:1005800000EB400001EB40000079401CC0B28DF848
:10059000010006226946282000F064F80446002C79
:1005A00002DA0020BDE8FC819DF802009DF80310EE
:1005B00000EB012085B29DF804009DF8051000EBCA
:1005C000012086B21648007800EB4000154901EB87
:1005D00040008088801D000A8DF8000010480078D7
:1005E00000EB400001EB40000079801DC0B28DF8A7
:1005F000010003226946282000F034F80446002C4C
:1006000001DA0020CEE79DF8020000F003073B4628
:100610003246294604A004F0DFFA0120C2E70000B8
:100620002E000020848E00083C3C2D4754502D495C
:100630004E464F2D3E3E20585F4D4158203D2025CF
:10064000642C20595F4D4158203D2025642C2054B6
:10065000524947474552203D203078253032780AAC
:10066000000000002DE9F04186B005460C46164614
:100670004FF0FF374FF0000800BF00BF0020ADF87B
:1006800002008DF800500220ADF804000294012110
:10069000ADF80E108DF80C50B01E81B2ADF81010F0
:1006A000A01C059009E00221684602F07BFA07468B
:1006B000022F00D104E008F10108B8F1050FF2DBC8
:1006C00000BFB8F1050F08DB6078237840EA03210A
:1006D000B21E3B46034804F07FFA384606B0BDE838
:1006E000F0810000248F000838B5002000901748E2
:1006F000007800EB4000164901EB400080880012B2
:100700008DF800001148007800EB400001EB40003C
:1007100000798DF8010000256C1E00BF00BF0DE0C0
:10072000032269462820FFF79DFF44B2002C01DD1B
:10073000204638BD294607A004F04EFA2846691C19
:10074000CDB20528ECDB2046F3E700002E000020A8
:10075000848E00083C3C2D4754502D4552524F5238
:100760002D3E3E20475450206932632074657374D7
:10077000206661696C65642074696D652025642E4E
:100780000A00000010B54FF0FF3400BF00BF02F0B8
:10079000FFF9FFF7A9FF0446002C04DA05A004F0D6
:1007A0001BFA204610BD00F01BF8FFF7C7FE002023
:1007B000F8E700003C3C2D4754502D4552524F5213
:1007C0002D3E3E2049324320636F6D6D756E696327
:1007D0006174696F6E204552524F52210A00000029
:1007E00010B586B04FF0FF34244903C9CDE90401A8
:1007F00000BF00BF082204A92820FFF733FF0446EA
:10080000002C05DA1EA004F0E7F9204606B010BD62
:100810009DF8120031281DD19DF81300312819D1FF
:100820009DF81400352815D19DF816009DF8171075
:10083000CDE900109DF814309DF813209DF812109A
:100840001AA004F0C9F905202349087000202349A3
:10085000087011E09DF816009DF817109DF81520FE
:10086000CDE9002102909DF814309DF813209DF8E9
:1008700012101BA004F0B0F92046C7E7F48E000860
:100880003C3C2D4754502D4552524F522D3E3E2058
:1008900047545020726561642076657273696F6E8B
:1008A000206661696C65640A000000003C3C2D47CD
:1008B00054502D494E464F2D3E3E2049432056650B
:1008C0007273696F6E3A202563256325635F253057
:1008D0003278253032780A002E0000202C000020CB
:1008E0003C3C2D4754502D494E464F2D3E3E205501
:1008F0006E6B6E6F776E2049432056657273696F19
:100900006E3A2025632563256325635F25303278A1
:10091000253032780A0000002DE9F04180460C466F
:100920001248007820B903F0F3FF01200F49087046
:100930002512E6B2A5F1A101C1EB011202EB4111B2
:1009400006EB4101A13901EB4101C90001EB410175
:10095000C800C11700EB5171CF1007F5AA0148225A
:10096000404603F0ABFF0020BDE8F0812D000020E1
:1009700070B502460C465068B0F5403F02D0506852
:1009800000B100BF00BF92F83800012801D1022059
:1009900070BD012082F8380000BF022082F83900C3
:1009A00002F1180000EB04110E89486840EA064382
:1009B000214D48680A2802D04868092804D1C8682F
:1009C00000F07F40034302E0087B43EA0063A4B9E0
:1009D0001068406AA8431843166870620868166871
:1009E000B06148680A2802D04868092819D1C86847
:1009F00020F07F401668B06213E01068C069A84319
:100A000018431668F06108681668306148680A285B
:100A100002D04868092804D1C86820F07F401668D1
:100A20003062012082F8390000BF002082F83800CF
:100A300000BF00BFACE700000F0003FF10B5044685
:100A40000CB9012010BD94F8390028B9002084F8B1
:100A50003800204600F022F8022084F8390020688F
:100A6000006820F44030616808432168086020680D
:100A7000406B20F00700A1680843216848632068A4
:100A8000006C6FF30D00E1680843216808640020E2
:100A9000E063012084F839000020D3E77047F8B5FF
:100AA00004460D46002000902068006800F0010018
:100AB000002843D000F0F0F9064639E0206840688D
:100AC0000090009800F02100E0B1009800F02000B4
:100AD00018B1E06B40F00200E063009800F0010004
:100AE00018B1E06B40F00100E063212021688860CC
:100AF000042084F8390000BF002084F8380000BFCB
:100B00000120F8BD681C98B100F0C6F9801BA8420E
:100B100000D86DB9E06B40F02000E063032084F85A
:100B2000390000BF002084F8380000BF0320E8E748
:100B30002068406800F002000028BFD02068C0692B
:100B400000F020072068406A00F020000743002FD3
:100B50004BD000F0A1F9064641E0206840680090C3
:100B6000009800F0290020B3009800F0080018B1A8
:100B7000E06B40F00400E063009800F0200018B142
:100B8000E06B40F00200E063009800F0010018B153
:100B9000E06B40F00100E0632920216888600420B8
:100BA00084F8390000BF002084F8380000BF01201D
:100BB000A7E7681C98B100F06FF9801BA84200D825
:100BC0006DB9E06B40F02000E063032084F8390049
:100BD00000BF002084F8380000BF032091E72068A0
:100BE000406800F010000028B7D01220216888600B
:100BF000012084F8390000BF002084F8380000BFCD
:100C000000BF7EE72DE9F84304460D4616461F4611
:100C1000DDF8208000BF94F83800012802D10220BE
:100C2000BDE8F883012084F8380000BF022084F872
:100C300039003B46324629462046CDF80080FFF772
:100C400047FB2068006840F0010021680860002030
:100C5000E6E7000070B5044600F01EF9064625469A
:100C6000681C10B104480078054400BF00F014F976
:100C7000801BA842FAD370BD3C000020F8B50246A4
:100C80000B460025002400200021E0E0012606FAA2
:100C900001F51E6806EA0504AC4274D11E7906F01F
:100CA0000306012E04D01E7906F00306022E13D18E
:100CB00090684F000326BE40B0434F00DE68BE4040
:100CC00030439060506801268E40B0431E79C6F3D1
:100CD00000168E40304350601E7906F00306032E46
:100CE00009D0D0684F000326BE40B0434F009E6835
:100CF000BE403043D0601E7906F00306022E13D1A9
:100D0000CF0802F1200656F827004E07F70E0F26EF
:100D1000BE40B0434F07FF0E1E69BE403043CF08B0
:100D200002F1200646F8270010684F000326BE4057
:100D3000B0431E7906F003064F00BE4030431060FA
:100D40005E6806F44036002E1DD000BF00260096D7
:100D5000414E366846F480463F4F3E603E46366818
:100D600006F48046009600BF00BF3C4E8F0856F840
:100D700027008E07370F0F26BE40B043384EB242D1
:100D800002D100262EE061E0364EB24201D10126AA
:100D900028E0354EB24201D1022623E0334EB24262
:100DA00001D103261EE0324EB24201D1042619E0E1
:100DB000304EB24201D1052614E02F4EB24201D18D
:100DC00006260FE02D4EB24201D107260AE02C4E36
:100DD000B24201D1082605E02A4EB24201D10926CD
:100DE00000E00A268F073F0FBE4030431B4E8F089E
:100DF00046F82700244E3068A0435E6806F480164B
:100E000006B12043204E3060361D3068A0435E6836
:100E100006F4001606B120431B4E361D30601A4EF4
:100E2000361F3068A0435E6806F4003606B12043E2
:100E3000154E361F3060361F3068A0435E6806F4DA
:100E4000803606B12043104E083E3060491C102900
:100E5000FFF41CAFF8BD00004438024008380140E0
:100E6000000002400004024000080240000C024062
:100E7000001002400014024000180240001C024012
:100E80000020024000240240083C01400AB1816178
:100E900001E00B048361704701480068704700005F
:100EA00034000020024692F83D0020281ED1242064
:100EB00082F83D001068006820F001001368186097
:100EC0001068406A20F01000136858621068406A89
:100ED0000843136858621068006840F00100136806
:100EE0001860202082F83D00002070470220FCE7B7
:100EF00070B504460CB9012070BD94F83D0028B9C6
:100F0000002084F83C00204600F00EFB242084F8EA
:100F10003D002068006820F001002168086020681A
:100F2000006840F40040216808602068006820F4F0
:100F300000402168086000F05DFF05465C4960687C
:100F4000884206D85B48854201D2012007E0002094
:100F500005E05948854201D2012000E00020012827
:100F600000D1C9E75548B5FBF0F62068406820F08D
:100F70003F003043216848604D496068884201D88D
:100F8000701C07E04FF4967070434FF47A71B0FB19
:100F9000F1F0401C2168096A21F03F0108432168F3
:100FA000086243496068884214D8681E6168490035
:100FB000B0FBF1F0401CC0F30B00042801D2042068
:100FC0003DE0681E61684900B0FBF1F0401CC0F3D1
:100FD0000B0034E0A06838B9681E616801EB41017C
:100FE000B0FBF1F0401C0AE0681E616801EBC10231
:100FF00002EB0111B0FBF1F0401C40F48040C0F363
:101000000B0008B901201AE0A06848B9681E6168A1
:1010100001EB4101B0FBF1F0401CC0F30B000CE010
:10102000681E616801EBC10202EB0111B0FBF1F037
:10103000401CC0F30B0040F4804040F400402168A5
:10104000C9694CF6FF72914308432168C861D4E92D
:10105000070108432168096821F0C001084321689D
:101060000860D4E9031008432168896848F2FF3218
:101070009143084321688860D4E905010843216849
:10108000C96821F0FF0108432168C8602068006832
:1010900040F001002168086000202064202084F8CE
:1010A0003D000020206384F83E0000BF24E70000DC
:1010B000A086010080841E0000093D0040420F0010
:1010C0002DE9F8430446894617469846089EFFF7DF
:1010D000E3FE054694F83D0020287DD11923012226
:1010E000B2492046009501F0CAFD10B10220BDE8CA
:1010F000F88300BF94F83C00012801D10220F6E7F4
:10110000012084F83C0000BF2068006800F0010066
:1011100028B92068006840F0010021680860206854
:10112000006820F4006021680860222084F83D00F7
:10113000102084F83E00002020646762A4F82A8012
:10114000608D20859A48E0622B463246494620460B
:1011500001F0A8FB08B10120C9E7208D88B900BFC4
:10116000002000902068406900902068806900900D
:1011700000BF00BF2068006840F40070216808606C
:1011800047E0208D012817D12068006820F4806096
:101190002168086000BF002000902068406900902E
:1011A00020688069009000BF00BF2068006840F49C
:1011B0000070216808602CE0208D022818D120687A
:1011C000006820F48060216808602068006840F4AE
:1011D00000602168086000E0E6E000BF00200090A9
:1011E00020684069009020688069009000BF10E08E
:1011F0002068006840F480602168086000BF00201B
:10120000009020684069009020688069009000BFCD
:1012100000BFBAE0208D03287ED8208D012815D18B
:101220002A463146204601F0CFFD08B101205EE795
:1012300020680069616A0870606A401C6062208DE5
:10124000401E2085608D401E60859EE0208D022816
:101250002AD13346002257492046009501F00FFD60
:1012600008B1012043E72068006840F4007021685D
:10127000086020680069616A0870606A401C6062EA
:10128000208D401E2085608D401E6085206800698D
:10129000616A0870606A401C6062208D401E208573
:1012A000608D401E608570E0334600224149204633
:1012B000009501F0E4FC08B1012018E720680068FF
:1012C00020F480602168086020680069616A087005
:1012D000606A401C6062208D401E2085608D401E2B
:1012E00060853346002233492046009501F0C7FC53
:1012F00008B10120FBE62068006840F40070216816
:10130000086020680069616A0870606A401C606259
:10131000208D401E208500E010E0608D401E60851D
:1013200020680069616A0870606A401C6062208DF4
:10133000401E2085608D401E608526E02A4631468D
:10134000204601F041FD08B10120D0E62068006987
:10135000616A0870606A401C6062208D401E2085B2
:10136000608D401E608520684069C0F3800060B1D8
:1013700020680069616A0870606A401C6062208DA4
:10138000401E2085608D401E6085208D00287FF4E2
:1013900041AF202084F83D00002084F83E0000BFCB
:1013A00084F83C0000BFA2E60220A0E60200100084
:1013B0000000FFFF040001002DE9F84304468946C0
:1013C00016461F46DDF82080FFF766FD054694F8B7
:1013D0003D0020287ED11923012251492046009545
:1013E00001F04DFC10B10220BDE8F88300BF94F875
:1013F0003C00012801D10220F6E7012084F83C00DE
:1014000000BF2068006800F0010028B9206800686B
:1014100040F00100216808602068006820F4006046
:1014200021680860212084F83D00102084F83E00E7
:101430000020206466626785608D20853948E062FF
:101440002B4642464946204601F0C8FA08B1012021
:10145000CAE700BF00200090206840690090206823
:101460008069009000BF00BF44E02A464146204604
:1014700001F0EAFC50B1206C042805D12068006816
:1014800040F40070216808600120ADE7606A0078D0
:1014900021680861606A401C6062608D401E608542
:1014A000208D401E208520684069C0F3800070B107
:1014B000208D60B1606A007821680861606A401C14
:1014C0006062608D401E6085208D401E20852A460A
:1014D000414600E022E0204601F0A3FB50B1206C21
:1014E000042805D12068006840F400702168086075
:1014F000012079E7208D0028B7D12068006840F4EA
:10150000007021680860202084F83D00002084F8E5
:101510003E0000BF84F83C0000BF65E7022063E79F
:10152000020010000000FFFF704700000348006841
:1015300003490978084401490860704734000020D5
:101540003C00002010B50D48006840F400700B49C5
:1015500008600846006840F480600860084600683B
:1015600040F480700860032000F0A0F90F2000F024
:1015700007F800F017F9002010BD0000003C024001
:1015800070B504460E4800784FF47A71B1FBF0F064
:101590000C490968B1FBF0F5284601F029F808B1BB
:1015A000012070BD102C07D200222146501E00F0F1
:1015B0003FF90548046001E00120F2E70020F0E770
:1015C0003C000020400000203800002070B5044698
:1015D0000E46154600BF94F8A000012801D1022054
:1015E00070BD012084F8A00000BF022084F8A10093
:1015F00005EB850101EBC50204F1380101EB820026
:1016000034223146FEF70DFE2A463146204602F0CE
:1016100019FC01202168486284F8A10000BF002065
:1016200084F8A00000BF00BFDAE7000070B50446F0
:101630000CB9012070BD94F8A10028B9002084F8ED
:10164000A000204600F07EF8022084F8A100206867
:10165000806920F0704021688861D4E90101084365
:10166000E1680843216908432168896908432168C2
:101670008861206880683249084021688860A08AB3
:10168000050420688068A1692943084321688860AF
:101690002068C0682A4908402168C860A08B0504FA
:1016A0002068C068216A294308432168C86020680F
:1016B00000692349084021680861A08C050420685E
:1016C0000069A16A294308432168086120684069CC
:1016D0001B49084021684861A08D050420684069C5
:1016E000216B294308432168486194F835000502BD
:1016F00094F8360006042068C06A00F07F40216834
:10170000C86246EA050094F8341008432168C96AA3
:1017100008432168C8622068406B40F006002168D9
:1017200048632068806940F00100216888610020DA
:10173000C4F8A400012084F8A10000207AE700008A
:1017400000F800F070472DE9F04104460E461746B8
:1017500000BF94F8A000012802D10220BDE8F0816A
:10176000012084F8A00000BF022084F8A10007EB4C
:10177000870000EBC70104F1380000EB81056E61C2
:101780003A462946204602F05DFB01202168486266
:1017900084F8A10000BF002084F8A00000BF00BFB3
:1017A000DCE7000008B500BF002000900E4800688C
:1017B00040F480400C4908600846006800F480400E
:1017C000009000BF00BF00BF00200090081F00680D
:1017D00040F08050091F08600846006800F0805003
:1017E000009000BF00BF08BD4438024010B501465C
:1017F0000846002817DB00F01F0301229A400B4B1C
:10180000440943F8242000BF00BF00BFBFF34F8F3F
:1018100000BF00BF00BF00BF00BF00BFBFF36F8F9E
:1018200000BF00BF00BF00BF10BD000080E100E0AE
:101830002DE9F05F80460D461646002703F0DCF9DF
:10184000074639462A46334601F00700C0F1070A29
:10185000BAF1040F02D94FF0040A01E0C0F1070AFF
:10186000D14600F1040ABAF1070F02D24FF0000A84
:1018700001E0A0F1030AD4464FF0010A0AFA09FA7E
:10188000AAF1010A0AEA020A0AFA0CFA4FF0010B5D
:101890000BFA0CFBABF1010B0BEA030B4AEA0B044E
:1018A0002146404603F0B0F9BDE8F09F00BF00F0CC
:1018B0000702064B19684FF6FF031940044B0B4310
:1018C00043EA0221014B196000BF70470CED00E0B4
:1018D0000000FA0538B5002400BF002000901D4824
:1018E000006840F080501B4908600846006800F01E
:1018F0008050009000BF00BF012017490864FFF727
:10190000CBFA044607E0FFF7C7FA001BB0F57A7F71
:1019100001D9032038BD1148406800F48030B0F58B
:10192000803FF0D101200C494864FFF7B5FA044626
:1019300007E0FFF7B1FA001BB0F57A7F01D9032069
:10194000E8E70648406800F40030B0F5003FF0D109
:101950000020DFE74038024000000E4200700040E7
:10196000F8B5044600250026207800F0010048B9AB
:10197000207800F00200022804D0207800F0400017
:10198000402862D10020B1498866FFF785FA0546F4
:1019900006E0FFF781FA401B022801D90320F8BDB9
:1019A000AB480068C0F3C0600028F2D1207800F096
:1019B000010038B160688101207A41EA0070A449D1
:1019C00084310860207800F00200022819D1A04874
:1019D00084300068C0F3027660688101207B41EAB0
:1019E000006040EA06709A498431086098488C305B
:1019F000006820F01F00E169491E084394498C31BA
:101A00000860207800F0400040280AD16068810119
:101A1000207B41EA0061207A41EA00708C498431E0
:101A20000860012089498866FFF736FA054606E016
:101A3000FFF732FA401B022801D90320AFE78448A0
:101A40000068C0F3C0600028F2D0207800F00400E5
:101A5000042804D0207800F00800082863D1002072
:101A60007A490867FFF718FA054606E0FFF714FA07
:101A7000401B022801D9032091E775480068C0F394
:101A800040700028F2D1207800F00400042819D119
:101A90006F4888300068C0F3027620698101207D9C
:101AA00041EA006040EA0670694988310860081D13
:101AB000006820F4F851206A401E41EA0020644981
:101AC0008C310860207800F00800082817D16048A1
:101AD00088300068C0F303662069800140EA06612F
:101AE000207E41EA00705A4988310860081D00686C
:101AF00020F44030616A084355498C310860012068
:101B000052490867FFF7C8F9054606E0FFF7C4F930
:101B1000401B022801D9032041E74D480068C0F36B
:101B200040700028F2D0207800F0200020287DD1DD
:101B300000BF0020009046484030006840F08050D0
:101B40004349403108600846006800F0805000902A
:101B500000BF00BF3F48006840F480703D49086006
:101B6000FFF79AF9054606E0FFF796F9401B0228B1
:101B700001D9032013E73748006800F4807000287B
:101B8000F2D033487030006800F440764EB3208DB8
:101B900000F44070B04224D02D487030006820F42A
:101BA000407601202C4908600020086028487030E9
:101BB0000660006800F0010098B1FFF76DF9054676
:101BC00008E0FFF769F9401B41F28831884201D9EA
:101BD0000320E4E61E4870300068C0F3400000288F
:101BE000EFD000BF208D00F44070B0F5407F0CD1E5
:101BF00017480830006820F4F810184AA16A11400C
:101C0000084313490831086007E0114808300068AC
:101C100020F4F8100E49083108600D487030006853
:101C2000218DC1F30B010843094900E002E0703146
:101C3000086000BF207800F01000102803D194F84D
:101C40002C00074908600020A9E600000000474278
:101C50000038024000700040400E4742FFFCFF0F7A
:101C6000E011474270B504460D460CB9012070BD25
:101C70005848006800F00F00A84209D255490D707D
:101C80000846006800F00F00A84201D00120EEE7EE
:101C9000207800F0020002281DD1207800F0040016
:101CA000042805D14C48006840F4E0504A490860D7
:101CB000207800F00800082805D14748006840F463
:101CC0006040454908604448006820F0F000A16881
:101CD000084341490860207800F00100A8B360681B
:101CE000012807D13C4808380068C0F34040B8B923
:101CF0000120BCE76068022802D06068032807D191
:101D0000354808380068C0F3406048B90120AEE7A4
:101D1000314808380068C0F3400008B90120A6E740
:101D20002D48006820F00300616808432A490860D4
:101D3000FFF7B2F8064609E0FFF7AEF8801B41F264
:101D40008831884202D9032091E707E022480068E1
:101D500000F00C006168B0EB810FEDD11D48006808
:101D600000F00F00A84209D91A490D700846006812
:101D700000F00F00A84201D0012078E7207800F0A1
:101D80000400042807D11448006820F4E050E168FA
:101D9000084311490860207800F00800082808D19D
:101DA0000D48006820F46040216940EAC1000A49FA
:101DB000086000F02FF808490968C1F30311074AC9
:101DC000515CC8400649086006480068FFF7D8FB28
:101DD00000204CE7003C024008380240098F000810
:101DE00040000020380000200148006870470000D3
:101DF0004000002000B5FFF7F7FF04490968C1F370
:101E00008221034A515CC84000BD000008380240EE
:101E1000198F00082DE9F047002400250026A1466F
:101E20002548006800F00C0020B1042805D00828DF
:101E30003AD105E0DFF8849039E0DFF8849036E0AD
:101E40001D48001F006800F03F041B48001F006889
:101E500000F4800078B11A481749091F0968C1F3D6
:101E60008811A0FB01700146224600233846FEF788
:101E7000A7F905460EE011480F49091F0968C1F38B
:101E80008811A0FB01700146224600233846FEF768
:101E900097F905460848001F0068C0F30140401C40
:101EA0004600B5FBF6F902E0DFF8109000BF00BF76
:101EB0004846BDE8F0870000083802400024F400DE
:101EC00040787D01F8B504460CB90120F8BD2078B2
:101ED00000F00100002874D0F948006800F00C0000
:101EE00004280DD0F648006800F00C00082813D133
:101EF000F348001F006800F48000B0F5800F0BD19C
:101F0000EF4808380068C0F34040002859D06068A6
:101F1000002856D10120D9E700BF6068B0F5803FA6
:101F200008D1E7480838006840F48030E4490839AF
:101F300008601EE06068B0F5A02F0DD1E0480838B9
:101F4000006840F48020DE490839086008460068CF
:101F500040F4803008600CE0D9480838006820F46C
:101F60008030D749083908600846006820F480208E
:101F7000086000BF606890B1FEF78EFF054606E07E
:101F8000FEF78AFF401B642801D903209EE7CC4856
:101F900008380068C0F340400028F1D011E0FEF797
:101FA0007BFF054606E0FEF777FF401B642801D95A
:101FB00003208BE7C24808380068C0F3404000287F
:101FC000F1D1207800F0020002285FD1BC480068FF
:101FD00000F00C0058B1BA48006800F00C00082866
:101FE0001CD1B748001F006800F48000B0B9B448A5
:101FF00008380068C0F3400020B1E068012801D033
:10200000012063E7AE480838006820F0F800216935
:1020100040EAC100AA490839086037E0E06800B327
:102020000120A8490860FEF737FF054606E0FEF7E5
:1020300033FF401B022801D9032047E7A048083896
:102040000068C0F340000028F1D09D4808380068BF
:1020500020F0F800216940EAC10099490839086078
:1020600014E0002097490860FEF716FF054606E0D9
:10207000FEF712FF401B022801D9032026E79048F3
:1020800008380068C0F340000028F1D1207800F043
:10209000080008282CD16069A8B101208A4908608D
:1020A000FEF7FAFE054606E0FEF7F6FE401B0228A4
:1020B00001D903200AE782486C300068C0F3400071
:1020C0000028F1D014E000207F490860FEF7E4FE0C
:1020D000054606E0FEF7E0FE401B022801D903207A
:1020E000F4E677486C300068C0F340000028F1D176
:1020F000207800F00400042870D1002770483830A0
:10210000006800F0805090B900BF002000906C483B
:102110003830006840F0805069493831086008461E
:10212000006800F08050009000BF00BF01276748A2
:10213000006800F48070B0B96448006840F48070B2
:1021400062490860FEF7A8FE054606E0FEF7A4FE19
:10215000401B022801D90320B8E65C48006800F45F
:1021600080700028F2D000BFA068012808D1544830
:102170006830006840F001005149683108601DE096
:10218000A06805280DD14E486830006840F0040072
:102190004B49683108600846006840F0010008605B
:1021A0000CE047486830006820F00100444968317D
:1021B00008600846006820F00400086000BFA068BE
:1021C000A8B1FEF769FE054609E0FEF765FE401B73
:1021D00041F28831884202D9032077E626E0384868
:1021E00068300068C0F340000028EED013E0FEF72E
:1021F00053FE054608E0FEF74FFE401B41F28831D2
:10220000884201D9032061E62D4868300068C0F398
:1022100040000028EFD1012F07D12948383000684D
:1022200020F0805026493831086000BFA06900289E
:1022300045D02348006800F00C0008285DD0A06954
:10224000022845D100201F490866FEF725FE0546F5
:1022500006E0FEF721FE401B022801D9032035E6E7
:10226000174808380068C0F340600028F1D1D4E96D
:1022700007010843616A40EA81110122A06AC2EBAA
:10228000500041EA00412C20005D41EA00600C4909
:10229000091F086001200B490866FEF7FDFD054691
:1022A00006E0FEF7F9FD401B022801D903200DE6E8
:1022B000034808380068C0F340600028F1D049E0C6
:1022C0000838024000004742800E4742007000403C
:1022D000002021490866FEF7DFFD054606E0FEF70F
:1022E000DBFD401B022801D90320EFE51B480068F5
:1022F000C0F340600028F2D12CE0A069012800D191
:10230000E4E51648001D0668A069012820D006F4FF
:102310008001E06981421BD106F03F01206A8142C1
:1023200016D147F6C0703040616AB0EB811F0FD103
:1023300006F440310122A06AC2EB5000B1EB004F1D
:1023400006D106F070612C20005DB1EB006F01D06A
:102350000120BBE50020B9E50000474200380240FB
:1023600070B504460D460CB9012070BD94F82C00E0
:1023700028B9002084F82D00204600F011F8022032
:1023800084F82C00211D2068FEF722F82946D4E9A4
:102390000002FEF789F8012084F82C000020E4E711
:1023A000704770B504460D4694F82C00022800D101
:1023B00070BD94F82C0001280AD1022084F82C006A
:1023C00029462068FEF73AF8012084F82C0001E045
:1023D0000120EDE70020EBE72DE9F04104460E4631
:1023E000174694F82C50022D02D10220BDE8F0814E
:1023F000012D01D0052D12D1022084F82C003A467F
:1024000031462068FEF724F83068022803D1052001
:1024100084F82C0005E0012084F82C0001E0012064
:10242000E4E70020E2E710B504460CB9012010BD36
:10243000606A38B96068B0F5827F00D105E000219C
:10244000E16102E00021216161610021A16294F853
:10245000510028B9002084F85000204600F048F8C8
:10246000022084F851002068006820F040002168B4
:102470000860A08800F48270218901F404410843B7
:10248000A18901F400610843217C01F002010843A5
:10249000217D01F001010843218B01F40071084303
:1024A000217F01F0380108432021095D01F08001FE
:1024B0000843218D01F4005108432168086004217C
:1024C000A06901EA104094F8241001F010010843BB
:1024D000216848602068C06920F400602168C861F4
:1024E00000206065012084F8510000209FE7000073
:1024F00010B586B0044600BF002000903A4800683E
:1025000040F02000384908600846006800F02000CC
:10251000009000BF00BF00BF002000900846006888
:1025200040F0200008600846006800F0200000909D
:1025300000BF00BF00BF002000900846006840F0C8
:10254000200008600846006800F02000009000BFEE
:1025500000BF00BF002000900846006840F0200047
:1025600008600846006800F02000009000BF00BF2F
:1025700000BF002000901C481430006840F4801018
:102580001949143108600846006800F48010009072
:1025900000BF00BF80200190022002900120039024
:1025A000022004900520059001A91048FEF766FB63
:1025B0004FF4807001900520059001A90B48FEF7AB
:1025C0005DFB4FF4007001900520059001A90748BC
:1025D000FEF754FB402001900120029001A903481E
:1025E000FEF74CFB06B010BD30380240001402402C
:1025F00070B504462546681EB0F1807F01D30120E6
:102600000FE0681E4FF0E02148610F214FF0FF30CE
:1026100002F0FAFA00204FF0E021886107200861FB
:10262000002070BD2DE9F84F04460E461746994626
:102630004FF0000A94F83D0020285AD106B117B98E
:102640000120BDE8F88F00BF94F83C00012801D1BB
:102650000220F6E7012084F83C0000BF002020643F
:10266000212084F83D00FEF717FC8246A784E7840A
:10267000A068B0F5805F04D1206910B90025B0468C
:1026800002E035464FF0000800BF002084F83C000F
:1026900000BF1BE05346002280212046CDF8009069
:1026A00002F04EFA08B10320CBE745B9B8F80000B4
:1026B000C0F308002168486008F1020803E02878A8
:1026C000216848606D1CE08C401EE084E08C00288E
:1026D000E0D15346002240212046CDF8009002F080
:1026E0002FFA08B10320ACE7202084F83D00002039
:1026F000A7E70220A5E700BFFEE7000000B587B00E
:1027000000BF002001903E48006840F480003C4932
:1027100008600846006800F48000019000BF00BF18
:1027200000BF0020019036481038006840F080005B
:102730003349103908600846006800F080000190B5
:1027400000BF00BF00BF002001900846006840F0B5
:10275000800008600846006800F08000019000BF1B
:1027600000BF00BF002001900846006840F008004C
:1027700008600846006800F00800019000BF00BF34
:1027800000BF002001900846006840F48070086097
:102790000846006800F48070019000BF00BF102060
:1027A0000290122003900320059000200490042042
:1027B000069002A91348FEF761FA2020029002A9B0
:1027C0001048FEF75BFA4FF48070029001200390EE
:1027D000032005900220049002A90B48FEF74EFA50
:1027E0004FF4005002900120039003200590022036
:1027F000049002A90548FEF741FA07B000BD0000A9
:1028000040380240001C024000200240000C024000
:1028100000B587B000BF002001901048006840F06C
:1028200008000E4908600846006800F008000190A2
:1028300000BF00BF4FF400500290002003900490AE
:1028400002A90748FEF71AFA012211462820FEF7CE
:10285000EFFF2820FEF7CAFF07B000BD3038024066
:10286000000C0240014608684069C0F38020B0B106
:102870006FF480600A68506100200863202081F8AE
:102880003D00002081F83E00086C40F00400086420
:1028900000BF002081F83C0000BF012070470020ED
:1028A000FCE700002DE9F84304460D4690461E461D
:1028B000E76A2068006840F4806021680860082F9B
:1028C00004D0012F02D017F5803F06D120680068A0
:1028D00040F480702168086008E0206B112805D161
:1028E0002068006840F48070216808604346002238
:1028F0004FF001112046009600F0C1F960B1206848
:10290000006800F48070B0F5807F02D14FF4007051
:1029100020640320BDE8F8832069B0F5804F05D11D
:10292000E8B240F001002168086149E005F4407018
:10293000F02141EAE0102168086133464246264909
:10294000204600F0DFF908B10120E3E7E8B2216892
:102950000861334642462049891F204600F0D2F9DB
:1029600008B10120D6E700BF002000902068406930
:10297000009020688069009000BF00BF2068006858
:1029800040F4807021680860434600224FF0011136
:102990002046009600F073F958B12068006800F4F2
:1029A0008070B0F5807F02D14FF400702064032066
:1029B000B0E705F44070F12141EAE01021680861B8
:1029C000334642460449891F204600F09BF908B16E
:1029D00001209FE700209DE7080001002DE9F84352
:1029E00004460D4617469846E66A082E04D0012E86
:1029F00002D016F5803F06D12068006840F4807050
:102A00002168086008E0206B122805D12068006862
:102A100040F48070216808603B4600224FF00111AD
:102A20002046CDF8008000F02AF960B120680068E7
:102A300000F48070B0F5807F02D14FF40070206404
:102A40000320BDE8F8832069B0F5804F04D105F07C
:102A5000FE002168086112E005F44070F02141EAAF
:102A6000E0102168086143463A460B49204600F0D1
:102A700049F908B10120E4E7E8B22168086143465A
:102A80003A460549891F204600F03CF908B101206B
:102A9000D7E70020D5E700000800010010B50C487A
:102AA0000C49086001140B4801610B480949486052
:102AB0000021084841618160C1610162C16081619A
:102AC000FEF716FA00210348FEF7ECF910BD0000EE
:102AD00000580040BC410020E0930400F8B50446D3
:102AE0000D4616464FF47A7033462A46214600902A
:102AF0000448FEF7E5FA07460FB90020F8BD0120AB
:102B0000FCE70000BC41002000B585B04FF4005048
:102B1000009001200190032003900220029069465A
:102B20001848FEF7ABF800224FF400511548FEF7A5
:102B3000ADF900224FF480711348FEF7A7F913484E
:102B4000FDF73AFC0A20FEF785F8012211020E4833
:102B5000FEF79CF90D48FDF72FFC0A20FEF77AF8E6
:102B60004FF40050009000200190032003900020BB
:102B7000029069460348FEF781F85020FEF76AF894
:102B800005B000BD000C024000200240FFFF1F0006
:102B900010B5FFF7B3FDFFF781FFFFF7B5FFFFF7B4
:102BA00037FE10BD2DE9F04105460F4600240026F2
:102BB00000BF00BF00BF2BE004EB440005EB80002A
:102BC000807800F0010088B104EB440305EB830337
:102BD0009A8804EB440305EB8303996804EB4403F0
:102BE00015F82300FFF77AFF064610E004EB4403D4
:102BF00005EB83031A7904EB440305EB830399681F
:102C000004EB440315F8230000F04CF90646641C5D
:102C10000EB9BC42D0D116B13046BDE8F081204695
:102C2000FBE770B504460D46164620E02046FFF748
:102C300019FE08B1012070BD681CC0B1FEF72CF967
:102C4000801BA84200D895B900202063202084F87A
:102C50003D00002084F83E00206C40F020002064FD
:102C600000BF002084F83C0000BF0120E3E720689B
:102C70004069C0F380000028D8D00020DBE72DE9B0
:102C8000F04104460D4617461E46DDF818801CE04C
:102C9000701CD0B1FEF700F9A0EB0800B04200D8DC
:102CA0009EB900202063202084F83D00002084F895
:102CB0003E00206C40F02000206400BF002084F81B
:102CC0003C0000BF0120BDE8F081C5F307400128AA
:102CD0000AD120684069A9B20840A9B2884201D14E
:102CE00001200BE0002009E020688069A9B20840BB
:102CF000A9B2884201D1012000E00020B842C7D02B
:102D00000020E0E72DE9F04104460D4616461F4637
:102D10003DE020684069C0F38020E8B12068006889
:102D200040F40070216808606FF480602168486199
:102D300000202063202084F83D00002084F83E001D
:102D4000206C40F00400206400BF002084F83C00A8
:102D500000BF0120BDE8F081701CC0B1FEF79CF8F7
:102D6000C01BB04200D896B900202063202084F810
:102D70003D00002084F83E00206C40F020002064DC
:102D800000BF002084F83C0000BF0120E2E7C5F34B
:102D9000074001280AD120684069A9B20840A9B2B9
:102DA000884201D101200BE0002009E02068806901
:102DB000A9B20840A9B2884201D1012000E0002058
:102DC0000028A6D00020C5E770B504460D4616467B
:102DD00032E020684069C0F30010A0B16FF010002D
:102DE0002168486100202063202084F83D000020F5
:102DF00084F83E00206C206400BF002084F83C0072
:102E000000BF012070BDFEF747F8801BA84200D824
:102E100095B900202063202084F83D00002084F82C
:102E20003E00206C40F02000206400BF002084F8A9
:102E30003C0000BF0120E5E720684069C0F3801036
:102E40000028C6D00020DDE770B504460D461646C2
:102E500020E02046FFF706FD08B1012070BD681C88
:102E6000C0B1FEF719F8801BA84200D895B9002020
:102E70002063202084F83D00002084F83E00206C70
:102E800040F02000206400BF002084F83C0000BF18
:102E90000120E3E720684069C0F3C0100028D8D0C3
:102EA0000020DBE7F8B504460D4616464FF47A706D
:102EB00033462A46214600900448FEF77DFA07462D
:102EC0000FB90020F8BD0120FCE70000BC41002044
:102ED0007CB5044600F0CAFC054600F0B7FC064687
:102EE0000020CDE900040848006800EB800202EBF6
:102EF000C002064800EB82002B463246416A024877
:102F0000006800F01FFF7CBD28000020800000202A
:102F100010B509480068806940F001000649096859
:102F20008861012210210548FDF7B0FF01228021B0
:102F30000248FDF7ABFF10BD48000020000C024026
:102F40002DE9FF4B96B081461546229C4E466EE019
:102F50002078802825DD2F46B4F800804FEA08202D
:102F600000EB28201FFA80F8414604A8FDF7D4FCA6
:102F7000012004A9CDE9001A02903A46182108461A
:102F8000199B00F03BFE41492398CDE900103A46D9
:102F90003046199B179900F083F8F01986B2A41CEB
:102FA00045E0284605EBD071C1F34F072078203863
:102FB00000F0FF0B00213648006800EB4000354A66
:102FC00002EB800080688088C01DC217039000EB70
:102FD0005270C2102E48006800EB40002D4B03EBEE
:102FE0008000806803682A48006800EB4000DFF832
:102FF000A4C00CEB80008068C08800FB0BF000FBD5
:103000000230CDE901A100903A4618211120199B08
:1030100000F0F4FD1D492398CDE900103A463046F2
:10302000199B179900F03CF8F01986B2641C1A48F5
:10303000007800EB4000194901EB80000089B042A4
:1030400021DD1348006800EB4000124901EB8000CD
:1030500080688088304480B20D49096801EB4101E5
:103060000C4A02EB810189688988884201DB0120D2
:1030700000E00020217809B1012100E00021084092
:1030800000287FF465AF1AB0BDE8F08B480100203E
:1030900028000020300100202C000020608E000855
:1030A0002DE9FC4F05460E4617469846DDE90B9B79
:1030B0004FF0000A0024CDF80480009700BF27E0FD
:1030C00000241EE019F8011B59450CD0134909686A
:1030D00001EB4101124B53F82120291988B23146E6
:1030E00000F020F80CE00D49096801EB41010C4BA0
:1030F00003EB81014A68291988B2314600F012F8C1
:10310000641C00988442DDD3701C86B20AF1010A67
:1031100001988245D4D3BDE8FC8F00002800002030
:103120003001002030B503460C465348006800EBE0
:10313000800101EBC001514800EB8100006980B9BA
:1031400000F084FB04FB003081004B48006800EB7A
:10315000800505EBC005494800EB8500406A4250F8
:1031600088E04548006800EB800101EBC00143485E
:1031700000EB81000069012837D100F067FB04FBF8
:1031800000313D48006800EB800505EBC0053B4879
:1031900000EB8500406A032505FB0100110C8170DE
:1031A00000F054FB04FB00313348006800EB80055D
:1031B00005EBC005314800EB8500406A032505FB9F
:1031C0000100110A417000F041FB04FB003000EBEC
:1031D00040012948006800EB800505EBC005274841
:1031E00000EB8500406A425444E02348006800EB4D
:1031F000800101EBC001214800EB81000069022839
:1032000017D01D48006800EB800101EBC0011B488E
:1032100000EB8100006904280BD01748006800EB20
:10322000800101EBC001154800EB8100006907280F
:1032300010D100F00BFB04FB003041000E48006889
:1032400000EB800505EBC0050C4800EB8500406AEB
:1032500042520FE000F0FAFA04FB00304100064849
:10326000006800EB800505EBC005044800EB850015
:10327000406A425230BD000028000020800000203B
:1032800000B587B000BF00200190FE48006840F004
:103290008000FC4908600846006800F0800001904A
:1032A00000BF00BF00BF002001900846006840F04A
:1032B000800008600846006800F08000019000BFB0
:1032C00000BF00BF002001900846006840F0800069
:1032D00008600846006800F08000019000BF00BF51
:1032E00000BF002001900846006840F0020008601E
:1032F0000846006800F00200019000BF00BF00BF58
:10330000002001900846006840F00100086008466F
:10331000006800F00100019000BF00BF00BF002066
:1033200001900846006840F0010008600846006807
:1033300000F00100019000BF00BF00BF002001901D
:103340000846006840F0020008600846006800F087
:103350000200019000BF00BF00BF0020019008469E
:10336000006840F0400008600846006800F0400037
:10337000019000BF00BF00BF002001900846006818
:1033800040F0100008600846006800F0100001904E
:1033900000BF00BF00BF002001900846006840F059
:1033A000100008600846006800F01000019000BF9F
:1033B00000BF00BF002001900846006840F0800078
:1033C00008600846006800F08000019000BF00BF60
:1033D00000BF002001900846006840F040000860EF
:1033E0000846006800F04000019000BF00BF00BF29
:1033F000002001900846006840F040000860084640
:10340000006800F04000019000BF00BF00BF002036
:1034100001900846006840F4807008600846006823
:1034200000F48070019000BF00BF00BF0020019039
:103430000846006840F0040008600846006800F094
:103440000400019000BF00BF00BF002001900846AB
:10345000006840F4807008600846006800F48070DE
:10346000019000BF00BF00BF002001900846006827
:1034700040F0100008600846006800F0100001905D
:1034800000BF00BF00BF002001900846006840F068
:10349000400008600846006800F04000019000BF4E
:1034A00000BF00BF002001900846006840F00800FF
:1034B00008600846006800F00800019000BF00BFE7
:1034C00000BF002001900846006840F00800086036
:1034D0000846006800F00800019000BF00BF00BF70
:1034E000002001900846006840F48070086008469B
:1034F000006800F48070019000BF00BF00BF002092
:1035000001900846006840F0010008600846006825
:1035100000F00100019000BF00BF00BF002001903B
:103520000846006840F0020008600846006800F0A5
:103530000200019000BF00BF00BF002001900846BC
:10354000006840F0020008600846006800F00200D1
:10355000019000BF00BF00BF002001900846006836
:1035600040F0400008600846006800F0400001900C
:1035700000BF00BF00BF002001900846006840F473
:10358000807008600846006800F48070019000BFF9
:1035900000BF00BF002001900846006840F4807022
:1035A00008600846006800F48070019000BF00BF0A
:1035B00000BF002001900846006840F0200008602D
:1035C0000846006800F02000019000BF00BF00BF67
:1035D000002001900846006840F008000860084696
:1035E000006800F00800019000BF00BF00BF00208D
:1035F00001900846006840F008000860084600682E
:1036000000F00800019000BF00BF02200590039069
:1036100001200490042002900E20069002A91A486E
:10362000FDF72CFB082002900E20069002A91648F8
:10363000FDF724FB4FF4807002900E20069002A943
:103640001148FDF71BFB012002900920069002A9FA
:103650000E48FDF713FB4FF4006002900E20069019
:1036600002A90B48FDF70AFB4FF4805002900E2090
:10367000069002A90648FDF701FB022002900920EE
:10368000069007E030380240001C0240000402406F
:103690000000024002A96448FDF7F0FA40200290C1
:1036A0000E20069002A96148FDF7E8FA202002905A
:1036B0000E20069002A95E48FDF7E0FA4020029035
:1036C0000E20069002A95A48FDF7D8FA4FF4005090
:1036D00002900E20069002A95648FDF7CFFA4FF44B
:1036E000806002900920069002A95048FDF7C6FAB2
:1036F0004FF4004002900E20069002A94D48FDF7BD
:10370000BDFA012002900E20069002A94A48FDF75A
:10371000B5FA802002900E20069002A94748FDF7D6
:10372000ADFA042002900E20069002A94248FDF74F
:10373000A5FA102002900E20069002A93C48FDF741
:103740009DFA4FF4805002900E20069002A937484F
:10375000FDF794FA402002900E20069002A9384806
:10376000FDF78CFA4FF4006002900E20069002A93B
:103770002E48FDF783FA102002900E20069002A931
:103780002D48FDF77BFA082002900E20069002A932
:103790002C48FDF773FA4FF4807002900E200690CB
:1037A00002A92148FDF76AFA4FF4007002900E203A
:1037B000069002A91C48FDF761FA802002900E20B5
:1037C000069002A91948FDF759FA4FF4806002905B
:1037D0000E20069002A91848FDF750FA4FF4007029
:1037E00002900E20069002A91348FDF747FA4FF405
:1037F000806002900E20069002A91348FDF73EFA61
:10380000102002900220059001200390049002A94C
:103810000B48FDF733FA8020029002A90848FDF713
:103820002DFA07B000BD000000040240001802405D
:1038300000100240001C024000200240000802402C
:10384000000C0240000002400014024005480068DD
:1038500000EB800101EBC001034800EB8100806AAE
:103860007047000028000020800000200548006804
:1038700000EB800101EBC001034800EB8100C06A4E
:1038800070470000280000208000002000B58DB0A7
:1038900000BF002000908948006840F080608749A0
:1038A00008600846006800F08060009000BF00BF1C
:1038B00000BF0020009081481438006840F40000E8
:1038C0007E49143908600846006800F40000009042
:1038D00000BF00BFFFF7D4FC00F04AFF78487949E9
:1038E00008607948007800EB4000784901EB8000DF
:1038F0008078401E734948617348007800EB4000AF
:10390000724901EB8000C078401E6E4988616E48A4
:10391000007800EB40006D4901EB800080786A4937
:10392000097801EB4101694A12F821100844401E50
:103930006449C8616448007800EB4000114601EB1F
:103940008000C0786049097801EB410102EB8101F8
:1039500049780844401E5B4908625B48007800EBE8
:103960004000114601EB800080785749097801EB4F
:10397000410112F8211008445349097801EB410133
:1039800002EB810109890844401E4E4948624E48B5
:10399000007800EB4000114601EB8000C0784A49F6
:1039A000097801EB410102EB81014978084446495D
:1039B000097801EB410102EB810149890844401E6D
:1039C000404988624048007800EB4000114601EB16
:1039D000800080783C49097801EB410112F8211000
:1039E00008443949097801EB410102EB8101098959
:1039F00008443549097801EB410102EB810109795D
:103A00000844401E2F49C8622F48007800EB400050
:103A1000114601EB8000C0782B49097801EB410188
:103A200002EB8101497808442749097801EB4101FB
:103A300002EB8101498908442349097801EB4101DE
:103A400002EB810149790844401E1E4908630820A1
:103A50000190C0200590052107914FF480300A9015
:103A600001A8FDF77DFF1848007800EB40001749DA
:103A700001EB80000189134801661348007800EBD0
:103A80004000124901EB800041890E484166002147
:103A900080F8361080F8351080F83410002009497D
:103AA0004860002107488160C1600161FDF7BEFDEB
:103AB000074800F07DF80DB000BD0000443802401A
:103AC00000680140480000202C000020608E0008A3
:103AD0000000002070B58EB004460D46164600204A
:103AE0000190FFF7B3FE029000200390FFF7BEFEA7
:103AF000049005960A95FF200690002007908DF807
:103B0000340000218DF835108DF836104FF4C06068
:103B1000089007200990FFF799FE0B90FFF7A6FE8B
:103B20000C90224601A91048FDF750FD4FF0FF30E0
:103B300004EB44010D4A02EB810148600C4804EBA0
:103B4000440102EB810188604FF07F4004EB4401A7
:103B500042F8210004480068406A40F00100024930
:103B6000096848620EB070BD480000203001002096
:103B70000000002001490860704700002800002074
:103B80000449096801EB4101034A02EB81014860E5
:103B900070470000280000203001002010B50446C6
:103BA0000B46204600F012F81846FFF7E9FF10BD5B
:103BB0000449096801EB4101034A02EB8101886075
:103BC00070470000280000203001002003490968E8
:103BD00001EB4101024A42F8210070472800002011
:103BE0003001002070B504460D46224629460248A1
:103BF000FDF7A9FD70BD0000480000202DE9F04F41
:103C0000ADF2144D0446884616469946200490FBB2
:103C1000F6F0401CCDF80C044FEA084090FBF9F098
:103C2000401CCDF808040020CDF804044FF4806156
:103C30006846FCF70FFB202C03DB0DF2144DBDE8AA
:103C4000F08F04FB08F000B9F7E704FB08F0B0F5CB
:103C5000806F00DBF1E706FB09F000B9EDE706FB3A
:103C600009F0B0F5804F00DBE7E76D46DDF8400472
:103C700008B905EB84054FF0000B2EE00BEB4B0170
:103C8000DDF8380410F801A04FEA0A2A0BEB4B00CC
:103C9000401CDDF83814085C40EA0A0A4FEA0A2A98
:103CA0000BEB4B00801CDDF83814085C40EA0A0A74
:103CB00000270EE00AFA07F000F40000B0F5000F4C
:103CC00003D1012005F8010B02E0002005F8010BEB
:103CD0007F1CA742EED30BF1010BC345CED36D463B
:103CE0001748CDF810044FF0000B24E00020DDF859
:103CF0000414090C04FB0151CDF8001400270BE05B
:103D0000DDF8001401EB10410A78DDF81014CA55F3
:103D1000DDF80C1408447F1CB742F1D30DF20441C6
:103D200006C91144CDF80414DDF810143144CDF85F
:103D300010140BF1010BCB45D8D300BF7DE7000079
:103D4000480100202DE9F84304460D4616461F465B
:103D5000DDE908984FF4403036494860364800683D
:103D600000EB800101EBC001344800EB81000069E9
:103D7000022803D102212F4881603DE02E480068CF
:103D800000EB800101EBC0012C4800EB81000069D1
:103D900018B90021274881602EE02748006800EB11
:103DA000800101EBC001254800EB8100006901287A
:103DB00003D101211F4881601EE01F48006800EB0D
:103DC000800101EBC0011D4800EB81000069032860
:103DD00003D10321174881600EE01748006800EB0B
:103DE000800101EBC001154800EB81000069042847
:103DF00002D104210F4881600E48C0F80C90104891
:103E00000C4908600846FCF719FE80B921460948AC
:103E1000FCF7AEFD58B933462A464146054800979F
:103E2000FCF7F0FE18B964210248FCF738FEBDE843
:103E3000F8830000F000002028000020800000200F
:103E400000B00240F0B58E880768FF68C7F30B47E3
:103E50003E44330406688436802707FB0266766892
:103E600006F47047066884364FF0800C0CFB02663F
:103E700077600E680768FF68C7F30B473E44761CFF
:103E80001E43076884370CFB02777E608E890768C3
:103E9000FF68C7F30A073E44330406688436802768
:103EA00007FB0266B66806F47047066884360CFBAA
:103EB0000266B7608E680768FF68C7F30A073E446A
:103EC000761C46EA0307066884360CFB0266B76078
:103ED00006688436802707FB0266366926F00707E6
:103EE000066884360CFB026637610F690668843603
:103EF0000CFB026637613126765C33023226765C33
:103F000034040E7E350606688436802707FB026679
:103F1000B6690027066884360CFB0266B76191F823
:103F200030601E43264346EA0507066884360CFBCC
:103F30000266B76106688436802707FB02667669E9
:103F400026F0FF07066884360CFB026677614F692E
:103F5000066884360CFB0266776106688436802723
:103F600007FB0266F66940F20777BE4307688437AD
:103F70000CFB0277FE61D1E9077637430668843689
:103F80000CFB0266F76106688436802707FB026631
:103F9000B66A0027066884360CFB0266B7624F6A71
:103FA000066884360CFB0266B7620E690EB90423FC
:103FB00013E00E69012E01D103230EE00E69042ED9
:103FC00008D00E69022E05D00E69032E02D00E69AC
:103FD000072E01D1022300E00123066884368027E2
:103FE00007FB0266F66A06F0E027066884364FF0A3
:103FF000800C0CFB0266F762D1E90076F61B5E438B
:10400000F61C0F8D5F4346EA0747066884360CFBB3
:104010000266F76206688436802707FB0266366B05
:10402000F70AFF02066884360CFB02663763CF6A24
:10403000066884360CFB0266376306688436D7014F
:10404000F65946F00107066884364FEAC21C46F866
:104050000C70F0BD08B500BF002000900E4800684D
:1040600040F080000C4908600846006800F08000BD
:10407000009000BF00BF00BF00200090084600680D
:1040800040F0010008600846006800F00100009060
:1040900000BF00BF08BD00003038024000BFFEE78F
:1040A00000BFFEE77047000000B587B000BF0020EA
:1040B0000190FE48006840F02000FC490860084676
:1040C000006800F02000019000BF00BF00BF00208A
:1040D00001900846006840F020000860084600682B
:1040E00000F02000019000BF00BF00BF0020019041
:1040F0000846006840F0200008600846006800F0AC
:104100002000019000BF00BF00BF002001900846C2
:10411000006840F0200008600846006800F02000B9
:10412000019000BF00BF00BF00200190084600685A
:1041300040F0200008600846006800F02000019070
:1041400000BF00BF00BF002001900846006840F09B
:10415000200008600846006800F02000019000BFC1
:1041600000BF00BF002001900846006840F020001A
:1041700008600846006800F02000019000BF00BF02
:1041800000BF002001900846006840F02000086051
:104190000846006800F02000019000BF00BF00BF8B
:1041A000002001900846006840F0200008600846A2
:1041B000006800F02000019000BF00BF00BF002099
:1041C00001900846006840F020000860084600683A
:1041D00000F02000019000BF00BF00BF0020019050
:1041E0000846006840F0400008600846006800F09B
:1041F0004000019000BF00BF00BF002001900846B2
:10420000006840F0400008600846006800F0400088
:10421000019000BF00BF00BF002001900846006869
:1042200040F0400008600846006800F0400001903F
:1042300000BF00BF00BF002001900846006840F0AA
:10424000080008600846006800F00800019000BF00
:1042500000BF00BF002001900846006840F0080041
:1042600008600846006800F00800019000BF00BF29
:1042700000BF002001900846006840F00800086078
:104280000846006800F00800019000BF00BF00BFB2
:10429000002001900846006840F0080008600846C9
:1042A000006800F00800019000BF00BF00BF0020C0
:1042B00001900846006840F0100008600846006859
:1042C00000F01000019000BF00BF00BF002001906F
:1042D0000846006840F0100008600846006800F0DA
:1042E0001000019000BF00BF00BF002001900846F1
:1042F000006840F0100008600846006800F01000F8
:10430000019000BF00BF00BF002001900846006878
:1043100040F0100008600846006800F010000190AE
:1043200000BF00BF00BF002001900846006840F0B9
:10433000100008600846006800F01000019000BFFF
:1043400000BF00BF002001900846006840F0100048
:1043500008600846006800F01000019000BF00BF30
:1043600000BF002001900846006840F0100008607F
:104370000846006800F01000019000BF00BF00BFB9
:10438000002001900846006840F0100008600846D0
:10439000006800F01000019000BF00BF00BF0020C7
:1043A00001900846006840F0100008600846006868
:1043B00000F01000019000BF00BF00BF002001907E
:1043C0000846006840F0080008600846006800F0F1
:1043D0000800019000BF00BF00BF00200190084608
:1043E000006840F0080008600846006800F0080017
:1043F000019000BF00BF00BF002001900846006888
:1044000040F0080008600846006800F008000190CD
:1044100000BF00BF00BF002001900846006840F0C8
:10442000800008600846006800F08000019000BF2E
:1044300000BF00BF002001900846006840F0400027
:1044400008600846006800F04000019000BF00BF0F
:1044500000BF002001900846006840F0400008605E
:104460000846006800F04000019000BF00BF00BF98
:10447000002001900846006840F0040008600846EB
:10448000006800F00400019000BF00BF00BF0020E2
:1044900001900846006840F0200008600846006867
:1044A00000F02000019000BF00BF01E03038024062
:1044B00000BF002001900846006840F040000860FE
:1044C0000846006800F04000019000BF00BF00BF38
:1044D000002001900846006840F04000086008464F
:1044E000006800F04000019000BF00BF00BF002046
:1044F00001900846006840F08000086008460068A7
:1045000000F08000019000BF00BF00BF00200190BC
:104510000846006840F0100008600846006800F097
:104520001000019000BF00BF00BF002001900846AE
:10453000006840F0100008600846006800F01000B5
:10454000019000BF00BF02200390012004900220D0
:1045500005900C2006900120029002A97E48FCF7ED
:104560008DFB0220029002A97B48FCF787FB042008
:10457000029002A97848FCF781FB0820029002A96A
:104580007548FCF77BFB1020029002A97248FCF7EB
:1045900075FB2020029002A96F48FCF76FFB4FF4D7
:1045A0008050029002A96C48FCF768FB4FF4005061
:1045B000029002A96848FCF761FB4FF4804002902A
:1045C00002A96548FCF75AFB4FF40040029002A98B
:1045D0006148FCF753FB0120029002A95F48FCF7F9
:1045E0004DFB0220029002A95C48FCF747FB042027
:1045F000029002A95948FCF741FB4FF48040029019
:1046000002A95748FCF73AFB4FF40040029002A978
:104610005348FCF733FB0120029002A95048FCF7F5
:104620002DFB0220029002A94D48FCF727FB8020B9
:10463000029002A94B48FCF721FB4FF480700290D6
:1046400002A94848FCF71AFB4FF40070029002A937
:104650004448FCF713FB4FF48060029002A94148E4
:10466000FCF70CFB4FF40060029002A93D48FCF7F8
:1046700005FB4FF48050029002A93A48FCF7FEFA7D
:104680004FF40050029002A93648FCF7F7FA4FF4B5
:104690008040029002A93348FCF7F0FA4FF4004042
:1046A000029002A92F48FCF7E9FA4FF480700290BB
:1046B00002A92B48FCF7E2FA4FF40070029002A91D
:1046C0002748FCF7DBFA4FF48060029002A92448E7
:1046D000FCF7D4FA4020029002A92348FCF7CEFA56
:1046E0001020029002A91D48FCF7C8FA2020029071
:1046F00002A91A48FCF7C2FA0120029002A91B483D
:10470000FCF7BCFA4FF40060029002A91248FCF7D3
:10471000B5FA4FF40040029002A91048FCF7AEFA37
:104720004FF48070029002A90C48FCF7A7FA802091
:10473000029002A90C48FCF7A1FA0220029002A9FB
:104740000848FCF79BFA0120029002A90548FCF7F3
:1047500095FA07B000BD00000014024000180240A6
:10476000000C024000100240001C02400008024001
:1047700000B589B0FFF798FC00BF002001901E48EB
:10478000006840F001001C4908600846006800F01D
:104790000100019000BF00BF1848194908600120BE
:1047A00048600121164881600821C1601021016123
:1047B000402141614FF4C07181610021C1614FF41A
:1047C00000610162002141624FF4005181620220C8
:1047D00002900720039004200490072005900220F7
:1047E00006900790089002A90548FDF7B9FD00F072
:1047F00009F809B000BD000038380240400100A0AF
:104800008841002010B500240120214908600820BB
:104810004860012088600020C8604FF6FF721D4884
:10482000FDF7DAFD012000F037F802201849086092
:1048300008204860012088600020C8604FF6FF72A1
:104840001448FDF7C9FD032011490860082048609D
:10485000042088600020C8604FF6FF720D48FDF705
:10486000BBFD40F23124042009490860082048605B
:10487000012088600846C4604FF6FF720548FDF7C6
:10488000ABFD40F2AB210348FDF78BFD10BD0000EE
:10489000784100208841002001B581B000200090BF
:1048A000054901984843009002E00098401E00909E
:1048B00000980028F9D10CBDA086010070B505460E
:1048C0000C4616464FF4800010490860032000F0A3
:1048D0006BF8200E00F068F8C4F3074000F064F8AD
:1048E000C4F3072000F060F8E0B200F05DF804E0E7
:1048F000FF2000F059F828706D1C301EA6F101064B
:10490000F6D140200149086070BD00001814024033
:1049100010B514481449086000211348C161816032
:104920000121416102210161002181620721C162EF
:104930000021C16001624FF4007181610021416278
:104940004FF48270084948600846FDF76CFD064840
:104950000068006840F0400003490968086000F002
:1049600005F810BD005001401042002010B54FF472
:1049700080000C490860152000F016F8FF2000F0B8
:1049800013F8044640200749086004F0010040B9CC
:104990004FF480000860B72000F006F8402001497D
:1049A000086010BD1814024010B504464FF4805042
:1049B000194908600AE018490868411E164A116042
:1049C00020B9002000F02CF8C0B210BD13480068D8
:1049D0008068C0F340000028EDD010480068C46033
:1049E0004FF480500C4908600AE00B490868411EEA
:1049F000094A116020B9012000F012F8C0B2E4E7C2
:104A000006480068806800F001000028EDD00348E7
:104A10000068C068C0B2D8E7300000201042002013
:104A200010B50446214602A000F0D6F8002010BDC3
:104A30003C3C2D464C4153482D4552524F522D3E41
:104A40003E2053504920B5C8B4FDB3ACCAB121656E
:104A500072726F72436F6465203D2025640A000006
:104A6000704710B5FCF762FD10BD000000B593B0B3
:104A7000302107A8FBF7EEFB142102A8FBF7EAFBA5
:104A800000BF002001902748006840F08050254971
:104A900008600846006800F08050019000BF00BF29
:104AA00000BF002001902048006840F440401E49AB
:104AB00008600846006800F44040019000BF00BF55
:104AC000012007900004089002200D9041050E91EE
:104AD00019210F914FF4B471109102211191042109
:104AE000129107A8FDF7EEF908B1FBF76EFCFCF791
:104AF000F1FE08B1FBF769FC0F2002900220039041
:104B0000002004904FF4A05005904FF48050069080
:104B1000052102A8FDF7A6F808B1FBF756FC13B073
:104B200000BD0000403802400070004003480068AB
:104B300040F47000014908607047000088ED00E013
:104B40002DE9F04104460D4617469846069E34E08E
:104B5000701C88B32EB1FCF79FF9A0EB0800B0429F
:104B60002BD900BF00BF21680C3151E8001F21F490
:104B7000D07021680C3141E80002002AF3D100BF57
:104B800000BF00BF2168143151E8001F21F001006F
:104B90002168143141E80002002AF3D100BF20202F
:104BA00084F83D0084F83E0000BF002084F83C00FB
:104BB00000BF0320BDE8F081FFE7206800682840BF
:104BC000A84201D1012000E00020B842C0D000205E
:104BD000F0E700BFFEE700000FB4054B10B503A9D6
:104BE000044A029800F034F810BC5DF814FB000091
:104BF000B55000084400002002480068C0F30220BD
:104C0000704700000CED00E010B5002804DB0A0737
:104C1000130E054A135406E00A07140E034A00F067
:104C20000F031B1FD45410BD00E400E018ED00E09A
:104C300002E008C8121F08C1002AFAD17047704765
:104C4000002001E001C1121F002AFBD170470000C3
:104C50002DE9FF4F8DB00F460546002606E02528BA
:104C60000BD0DDE90F1290476D1C761C28780028C8
:104C7000F5D111B03046BDE8F08F0024A246A14620
:104C80000122EC4900E0044315F8013F203B02FA01
:104C900003F00842F7D128782A2810D06FF02F02AD
:104CA0002878A0F13001092914D80AEB8A0102EB17
:104CB000410144F0020400EB010A6D1CF0E701CF52
:104CC0005FEA000A03D544F40054CAF1000A44F034
:104CD00002046D1C28782E2817D115F8010F44F016
:104CE00004042A280ED06FF02F022878A0F130019A
:104CF00009290AD809EB890102EB410100EB0109FE
:104D00006D1CF2E757F8049B6D1C28786C280FD0B7
:104D100006DC4C2817D068280DD06A2814D104E08E
:104D2000742810D07A280FD10DE044F400140AE062
:104D300044F4801401E044F440146978814202D1C3
:104D400004F580146D1C6D1C2A786E2A1FD00CDCB3
:104D5000632A31D004DC002A8BD0582A11D1A3E079
:104D6000642A68D0692A0CD165E0732A2ED004DC4D
:104D70006F2A73D0702A04D19BE0752A6FD0782AED
:104D80006ED01046DDE90F129047761C50E1C4F357
:104D90000250022806D0032809D0042801CF09D0E8
:104DA000066045E101CFF117C0E9006140E101CFA4
:104DB00006803DE106703BE117F8040B8DF800001A
:104DC00000208DF80100EB46012003E057F804BBFA
:104DD0004FF0FF3061074FF0000102D40DE008F101
:104DE0000101884649450FDA8045F8DB1BF80810B9
:104DF0000029F4D108E008F1010188468142FADB7C
:104E00001BF808100029F6D1DDE90F23AAEB0800F2
:104E10008146214600F036F9304400EB080604E0F4
:104E2000DDE90F121BF8010B9047B8F10108F7D22A
:104E300021464846F7E00A21C4F302534FF0000B25
:104E40000891022B04D001CFC117032B09D00AE02F
:104E5000FF1D27F00707F7E8020108E032E01FE036
:104E600020E000B2C117042B01D140B2C117031ECC
:104E700071F1000307DA4FF0000CD0EB0C006CEB83
:104E800001012D2302E0230504D52B238DF82430C6
:104E9000012303E0E30701D02023F7E7984658E019
:104EA0000A2110E010210EE010204FF0000B0890B6
:104EB0000CE010214FF0000B44F004044FF00809FF
:104EC000089103E008214FF0000B0891C4F302534E
:104ED000022B04D001CF0021032B06D006E0FF1DDA
:104EE00027F00707F7E8020103E080B2042B00D1A6
:104EF000C0B24FF0000823072BD5702A07D0DDF889
:104F000020C08CF0100C5CEA0B0C05D00EE04023A6
:104F10008DF82430012308E050EA010306D0302345
:104F20008DF824308DF8252002239846DDF820C026
:104F30008CF0080C5CEA0B0C0BD150EA010301D198
:104F4000630706D530238DF824304FF00108A9F10E
:104F50000109582A04D038A20B9208AA0A920BE041
:104F60003AA2F9E75B46089AFBF72AF90B9B9B5C90
:104F70000A9A521E0A92137050EA0102F2D10A985C
:104F8000ADEB000000F1200B600702D524F4803463
:104F900001E04FF00109D94502DDA9EB0B0000E06B
:104FA000002000EB0B0141440890AAEB010AE0034A
:104FB00006D4DDE90F232146504600F063F806448D
:104FC0004FF0000908E009A911F80900DDE90F1206
:104FD000904709F10109761CC145F4DBE0030CD5CB
:104FE000DDE90F232146504600F04CF8064404E06A
:104FF000DDE90F1230209047761C0899481E089072
:105000000029F5DC08E00A980A990078491C0A9101
:10501000DDE90F129047761CBBF10001ABF1010BEB
:10502000F1DC21465046DDE90F2300F019F8064473
:105030006D1C1BE609280100303132333435363718
:1050400038396162636465660000000030313233D4
:105050003435363738394142434445460000000074
:105060002DE9F041044600251E461746880404D465
:1050700005E039462020B0476D1C641EF9D528464E
:10508000BDE8F0812DE9F041044600251E4690461A
:10509000C80301D5302700E02027880404D505E0A7
:1050A00041463846B0476D1C641EF9D52846BDE818
:1050B000F081000013B50C464FF47A730122694663
:1050C0000248FDF7AFFA00981CBD000068420020BE
:1050D0001CB5FCF737FAFFF7C9FCFEF7BBFFFBF77F
:1050E00051FBFEF7D3FB02224FF050410020FEF7A8
:1050F000F1FCFEF7ABFB0546FEF7B8FB45434FF06E
:10510000504000EB8504002221460120FEF7E2FC1E
:10511000FDF7FEFE0020FEF72DFD4FF07F40FDF76E
:10512000D7FE0120FEF726FD4FF07F40FDF7D0FEB1
:10513000FF210020FEF756FD00210120FEF752FD61
:105140000020FEF717FD4FF07F40FDF7C1FE4FF046
:105150007F410816FEF722FD0648FEF729FD0020D4
:1051600005A110231A46CDE900100521FDF7E8FE40
:1051700000BFFEE700000020463432392031362AD5
:105180003136200000000000000000000000000098
:10519000000000000000000000000000000000000F
:1051A00000000000000000000000000000000000FF
:1051B00000000000000000000000000000000000EF
:1051C00000000000000000000000000000000000DF
:1051D0000000038000038000038000038000038040
:1051E00000038000038000038000038000010000B2
:1051F00001000000000000000003800003800000A8
:10520000000000000000000000000000000000009E
:10521000000000000000000000000000000E700010
:105220000E70000E70000420000420000420000412
:10523000200000000000000000000000000000004E
:10524000000000000000000000000000000000005E
:10525000000000000000000000000000000000004E
:105260000000066000066000066000066000066040
:10527000003FF8003FF8000660000CC0003FF80057
:105280003FF8000CC0000CC0000CC0000CC0000CAB
:10529000C00000000000000000000000000000004E
:1052A0000000000000000001800001800007B00045
:1052B0000FF0001870001870001C00000F8000072D
:1052C000E00000F0001830001C30001C70001FE0EF
:1052D000001BC000018000018000018000018000EF
:1052E00000000000000000000000000000000000BE
:1052F00000000780000FC0001CE00018600018606C
:10530000001CE0000FF80007E0001FF00007380065
:1053100006180006180007380003F00001E000003E
:10532000000000000000000000000000000000007D
:10533000000000000000000000000000000000006D
:1053400003F00007F0000C60000C00000C000006E9
:1053500000000700000F9C001DFC0018F0001870F2
:10536000000FFC0007DC000000000000000000004F
:10537000000000000000000000000000000000002D
:105380000000000000038000038000038000010093
:10539000000100000100000100000000000000000A
:1053A00000000000000000000000000000000000FD
:1053B00000000000000000000000000000000000ED
:1053C000000000000000000000000018000038008D
:1053D00000700000F00000E00000E00001C00001EB
:1053E000C00001C00001C00001C00001C00000E019
:1053F0000000E0000070000070000038000018009D
:10540000000000000000000000000000000000009C
:1054100000001800001C00000E00000E0000070035
:105420000007000003800003800003800003800069
:105430000380000380000700000700000F00000E3B
:1054400000001C0000180000000000000000000028
:10545000000000000000000000000180000180004A
:105460000180001DB8001FF80007E00003C0000322
:10547000C0000660000660000000000000000000A0
:10548000000000000000000000000000000000001C
:10549000000000000000000000000000000000000C
:1054A0000000000000000000018000018000018079
:1054B000000180000180003FFC003FFC00018000F3
:1054C00001800001800001800001800000000000D8
:1054D00000000000000000000000000000000000CC
:1054E00000000000000000000000000000000000BC
:1054F00000000000000000000000000000000000AC
:10550000000000000000000000000000000000E0BB
:105510000000C00001C00001800001800003000005
:105520000300000000000000000000000000000078
:10553000000000000000000000000000000000006B
:10554000000000000000001FF8001FF8000000002D
:10555000000000000000000000000000000000004B
:10556000000000000000000000000000000000003B
:10557000000000000000000000000000000000002B
:10558000000000000000000000000000000000001B
:10559000000000000000000000000000000003C048
:1055A0000003C00003C00000000000000000000075
:1055B00000000000000000000000000000180000D3
:1055C000180000380000300000700000600000602B
:1055D0000000C00000C00001800001800003000046
:1055E0000300000600000600000E00000C00001C76
:1055F000000018000018000000000000000000007B
:105600000000000000000000000003C00007E000F0
:105610000C30000C3000181800181800181800186A
:1056200018001818001818001818000C30000C305A
:105630000007E00003C000000000000000000000C0
:10564000000000000000000000000000000000005A
:1056500000000080000780001F80001D8000018086
:1056600000018000018000018000018000018000B5
:105670000180000180000180001FF8001FF8000079
:10568000000000000000000000000000000000001A
:105690000000000000000000000007C0001FF00034
:1056A00038300030180030180000180000300000BA
:1056B000600001C0000380000600000C000018001C
:1056C000003FF8003FF8000000000000000000006C
:1056D00000000000000000000000000000000000CA
:1056E000000003C0000FE0000C700000300000302C
:1056F0000000600003C00003E0000070000018001C
:105700000018000018001838001FF0000FC000003B
:105710000000000000000000000000000000000089
:105720000000000000000000000000E00001E000B8
:1057300001E0000360000660000660000C60000CE1
:1057400060001860003060003FF8003FF800006023
:105750000003F80003F80000000000000000000053
:105760000000000000000000000000000000000039
:1057700000001FF0001FF0001800001800001800C3
:10578000001BC0001FF0001C3000001800001800B3
:105790000018000018003030003FF0000FC000007B
:1057A00000000000000000000000000000000000F9
:1057B0000000000000000000000000F80003F800F6
:1057C0000700000E00000C00001800001BC0001FA6
:1057D000F0001C30001818001818001818000C38B9
:1057E000000FF00003E000000000000000000000D7
:1057F00000000000000000000000000000000000A9
:1058000000001FF8001FF8001818001838000030BA
:105810000000300000700000600000600000E00048
:1058200000C00000C00001C0000180000180000035
:105830000000000000000000000000000000000068
:105840000000000000000000000007E0000FF00072
:105850001C38001818001818000C300007E000076A
:10586000E0000C30001818001818001818001C3838
:10587000000FF00007E00000000000000000000042
:105880000000000000000000000000000000000018
:10589000000007C0000FF0001C3000181800181896
:1058A000001818000C38000FF80003D8000018008A
:1058B00000300000700000E0001FC0001F0000006A
:1058C00000000000000000000000000000000000D8
:1058D00000000000000000000000000000000000C8
:1058E00000000000000003C00003C00003C000006F
:1058F000000000000000000000000000000003C0E5
:105900000003C00003C00000000000000000000011
:105910000000000000000000000000000000000087
:10592000000000000000000000000000000000F087
:105930000000F00000F00000000000000000000087
:1059400000000000E00001C00001800001800003B1
:105950000000020000000000000000000000000045
:105960000000000000000000000000000000000037
:10597000001C00003C0000F00003C0000F00003CD1
:105980000000F000003C00000F000003C00000F029
:1059900000003C00001C00000000000000000000AF
:1059A00000000000000000000000000000000000F7
:1059B00000000000000000000000000000000000E7
:1059C000007FFC007FFC000000000000007FFC0066
:1059D0007FFC00000000000000000000000000004C
:1059E00000000000000000000000000000000000B7
:1059F00000000000000000000000000000000000A7
:105A00007000007800001E000007800001E0000028
:105A10007800001E0000780001E0000780001E00F2
:105A2000007800007000000000000000000000008E
:105A30000000000000000000000000000000000066
:105A4000000000000007C0000FE0001870001830D0
:105A50000018300000700000E00003C00003800068
:105A60000300000000000000000700000700000025
:105A70000000000000000000000000000000000026
:105A80000000000000000000000003E00007F0003C
:105A90000E38000C180018780018F80019D80019F2
:105AA000980019980019980018F800187800180044
:105AB000000C00000E180007F80003E000000000D2
:105AC00000000000000000000000000000000000D6
:105AD00000000000001F80001FC00001C000036024
