:020000040800F2
:10000000E01100208902000869350008B92E0008B7
:1000100065350008931500087F3C000800000000CB
:10002000000000000000000000000000533600083F
:1000300097150008000000005136000855360008EA
:10004000A3020008A3020008A3020008A3020008FC
:10005000A3020008A3020008A3020008A3020008EC
:10006000A3020008A3020008A3020008A3020008DC
:10007000A3020008A3020008A3020008A3020008CC
:10008000A3020008A3020008A3020008A3020008BC
:10009000A3020008A3020008A3020008A3020008AC
:1000A000A3020008A3020008A3020008A30200089C
:1000B0002537000835370008A3020008A30200080E
:1000C000A3020008A3020008A3020008A30200087C
:1000D000A3020008A3020008A3020008A30200086C
:1000E000A3020008A3020008A3020008A30200085C
:1000F000A3020008A3020008A3020008A30200084C
:10010000A3020008A302000845370008A302000864
:10011000A3020008A302000855370008A302000844
:10012000A3020008A3020008A3020008A30200081B
:10013000A3020008A3020008A3020008A30200080B
:10014000A3020008A3020008A3020008A3020008FB
:10015000A3020008A3020008A3020008A3020008EB
:10016000A3020008A3020008A3020008A3020008DB
:10017000A3020008A3020008A30200080000000078
:10018000A3020008A302000800F002F800F06CF8D7
:100190000AA090E8000C82448344AAF10107DA45E2
:1001A00001D100F061F8AFF2090EBAE80F0013F0C8
:1001B000010F18BFFB1A43F0010318474054000019
:1001C000605400000A444FF0000C10F8013B13F09B
:1001D000070408BF10F8014B1D1108BF10F8015BA0
:1001E000641E05D010F8016B641E01F8016BF9D193
:1001F00013F0080F1EBF10F8014BAD1C0C1B09D1EA
:100200006D1E58BF01F801CBFAD505E014F8016B5B
:1002100001F8016B6D1EF9D59142D6D370470000ED
:100220000023002400250026103A28BF78C1FBD8FF
:10023000520728BF30C148BF0B607047662905F0E0
:100240008481642900F0F480002070471FB505F018
:1002500072F900F061FC04000020002104F004FEAB
:10026000E0601FBD10B510BD00F056FD1146FFF750
:10027000EDFF04F0F7F900F074FD03B4FFF7F2FFAF
:1002800003BC00F0B7FD000009488047094800475B
:10029000FEE7FEE7FEE7FEE7FEE7FEE7FEE7FEE736
:1002A000FEE7FEE704480549054A064B7047000093
:1002B0001137000889010008E00B0020E011002040
:1002C000E00D0020E00D002053EA020C00F06980F0
:1002D0002DE9F04B4FF00006002B1FBFB3FA83F55A
:1002E00003FA05F424FA05F65E4012BF1643B2FA8B
:1002F00082F502FA05F4C5F120051EBF22FA05FCBD
:1003000044EA0C04203556EA044C4FEA144418BF62
:10031000641C4FF000084FF00009904271EB030C91
:1003200039D3002919BFB1FA81F701FA07F6B0FAFB
:1003300080F700FA07F6C7F120071EBF20FA07FC76
:1003400046EA0C062037B6FBF4FCA7EB0507103F86
:1003500007F01F0BCBF120060CFA0BFB2CFA06F66C
:1003600044BFB3460026202FA4BF5E464FF0000BCB
:100370005BEA060C08BF4FF0010B19EB0B09ABFB56
:10038000027C48EB0608C01B06FB02CC0BFB03CC2F
:1003900071EB0C01C1E70B46024641464846BDE8F9
:1003A000F08B13B54FF000004FF00001AFF3008069
:1003B000BDE81C40704700000FB41CB5074B06AAEF
:1003C0007B4469460090059800F08DFB002069464B
:1003D00000F09CFB1CBC5DF814FB0000490700000A
:1003E00070B5044685690068C10601D5302600E075
:1003F0002026C00707D070BDD4E9012130469047C0
:10040000206A401C20626D1EF6D570BD70B5044692
:1004100085690078C00707D170BDD4E9012120208B
:100420009047206A401C20626D1EF6D570BD00000A
:100430002DE9F0410646002410687529314616A5BD
:1004400010D0AFF30080002802DA404213A507E085
:1004500031688A0701D512A502E0490704D511A524
:10046000012401E0AFF3008000210A2206F12407F5
:1004700009E0B0FBF2FCB0FBF2F302FB1C003030F1
:1004800078541846491C0028F3D123462A463046A2
:10049000BDE8F04100F0B9B8000000002D000000F8
:1004A0002B000000200000002DE9F0474FF0000A6B
:1004B00089460446C0F820A02046E1688847002805
:1004C00076D0252806D0D4E901219047206A401C27
:1004D0002062F1E7E168204600258847C4F81CA0A7
:1004E00006460027C4F818A02A2E09D0304603F08B
:1004F0005DFC38B304EB8708303EC8F8186019E09B
:1005000059F8041B204604EB87029161E168884793
:10051000012F064618D1E069002820DA25F02005D1
:100520001DE0D8F8180000EB800006EB40003038E2
:10053000C8F818002046E1688847064603F036FCF4
:100540000028EED1012F0AD02E2E08D12046E168D6
:1005500088477F1C0646022F45F02005C4DBA069B2
:10056000002803DA404245F00105A061E80701D008
:1005700025F01005B6B1A6F14100192802D82036A1
:1005800045F400654A463146204625604D46FFF752
:1005900055FE58B1012806D0ED1D25F0070000F1E9
:1005A000080989E704E005F1040985E730468AE790
:1005B000206ABDE8F0874FF0000200B5134694466C
:1005C0009646203922BFA0E80C50A0E80C50B1F1AB
:1005D0002001BFF4F7AF090728BFA0E80C5048BFBF
:1005E0000CC05DF804EB890028BF40F8042B08BF5D
:1005F000704748BF20F8022B11F0804F18BF00F859
:10060000012B70477047704770472DE9F0470D4642
:1006100099469246044600F124080168880604D5EC
:10062000E06921F01001216000E00120A84201DD15
:10063000471B00E00027A1697A1902EB0900081A9C
:10064000A0612078C00602D42046FFF7C9FE00262C
:1006500008E0D4E901211AF806009047206A401CFE
:10066000761C20624E45F4DB2078C0060AD5204671
:10067000FFF7B6FE06E0D4E9012130209047206A5A
:10068000401C2062381EA7F10107F4DC07E0D4E922
:10069000012118F805009047206A401C2062281E9E
:1006A000A5F10105F3DC2046FFF7B0FE2078000637
:1006B00002D50220BDE8F0870120FBE770472DE955
:1006C000FF4F0C461E464FF0FF378BB0D2E90001BA
:1006D000DDF860800A908A46C1F30A5505B93D46A7
:1006E000002108464FF00000BAF1000F00F440006E
:1006F00005DA00EB80004FF4400101EA50004FEAB8
:100700009059B9F1010F00DDB9460A9850EA4A0044
:100710000ED044F61050A5F2FF3545432F14B8F122
:10072000000F1ED07542291E1EDDC9F100021CE01B
:10073000B8F1010F4FF0000001D0302103E0F24387
:1007400005E02154401CB042FBDB30460022002172
:1007500021540B99C1F80880C1E900200FB0BDE811
:10076000F08FBD1B6D1CDEE74A4600DA694206A821
:1007700000F05CFA06AB93E8070003AB83E80700E0
:1007800050460A9900F03DFB8DE80700A0F50050A7
:100790001F3800900398002D0ADD42F21F014A46DF
:1007A0000844002303A90390684600F0A6FD09E071
:1007B000A0F500504A461F38002303A9039068465D
:1007C00000F0B0FD8DE807000004000C03D04FF0EE
:1007D000FF30410800E01046B8F1000F03D00022BE
:1007E000009215461EE0751E05D400F099F93032CE
:1007F00062556D1EF9D5B3460122084302D000228E
:100800007F1C04E02078302801D100227F1E002ABE
:10081000099784D01DE0112D07DA00F081F93032FC
:1008200062556D1C50EA0102F5D1084302D00098D0
:10083000C8B10EE00021681E05E0235C625C6354D1
:100840002254401E491C8142F7DBAB46A81B401EC8
:100850000990002004F80B000B98099AC0F8088052
:10086000C0E9002B7AE711264FF0000857E72DE981
:10087000F04F88460446D21D22F0070191B0D1E91D
:100880000001CDE90A0103F05DFA02460B98C00FA2
:1008900001D02D2007E02068810701D52B2002E040
:1008A000202101EAC000032A099001D0072A05DBB4
:1008B00003464146204600F079F90BE12078800696
:1008C00001D5E06900E00620B8F1650F814606D049
:1008D000B8F1660F18D0B8F1670F70D131E0002081
:1008E000B9F1110F009001DB112301E009F10103BF
:1008F0000AAA01A90CA8FFF7E2FEDDE90C700026A8
:1009000009F10105834647E001204B4600904FF076
:1009100000470AAA01A90CA8FFF7D1FEDDE90DB036
:100920000C995D46002610B909F101000D18B9EBCC
:10093000050003D4C0F1FF3609F10105A5EB09005C
:100940002BE0B9F1010F01DA4FF001090020B9F1F4
:10095000110F0090484601DD112300E003460AAA6A
:1009600001A90CA8FFF7ABFEDDE90C704D4600268F
:100970008346207800070AD4AB4500DA5D4601A81B
:10098000012D04DD411911F8011C302907D04F4514
:1009900002DA17F1040F04DA012082460FE06D1E1F
:1009A000EEE7002F02DCED1B3E4403E0781CA8427A
:1009B00000DD7D1CB81B00F1010A4FF000472078D4
:1009C000000703D4AA4501DB4FF0FF3A0021B7F13D
:1009D000004F0DF143088DF8431024D002202B2343
:1009E000002F01DA7F422D230A21021EA0F101000F
:1009F00000DC5FB197FBF1FC97FBF1F201FB1C7C83
:100A000017460CF1300C08F801CDEEE7A8F1010013
:100A100003702188090501D5452100E06521A0F179
:100A2000010800F8011C09980FA9A1EB0807FF1D98
:100A300000B10120411901EBEA70A1693844081A9C
:100A4000401EA0612078C00602D42046FFF7C8FCF3
:100A5000099828B1D4E901219047206A401C2062FE
:100A60002078C00622D52046FFF7BAFC1EE0002EF3
:100A700004DBB34502DD01A8805D00E03020D4E94D
:100A800001219047206A401C2062761CAAF10100D7
:100A90005FEA000A0AD100F03FF8C0680168405CD4
:100AA000D4E901219047206A401C2062281EA5F14C
:100AB0000105DCDC07E0D4E9012118F8010B9047BF
:100AC000206A401C2062381EA7F10107F3DC204693
:100AD000FFF79CFC032011B041E6000001694A1CAD
:100AE00002610878704700B58FB0CDE9013100216F
:100AF000059105497944CDE9031011466846FFF791
:100B0000D3FC0FB000BD0000E5FFFFFF0A6802F84C
:100B1000010B0A607047000000487047A00B0020DE
:100B200030B5B0F10A024FEA900E71F100034EEABF
:100B3000817EB0EB0E0061EB91014FEA101E4EEA90
:100B4000017E10EB0E0041EB11114FEA102E4EEA20
:100B5000016E10EB0E0041EB11214FEA104E4EEAF0
:100B6000014E10EB0E0041EB1141401841F1000124
:100B70004FEAD00040EA41704FEAD10110EB800506
:100B80004FEA810444EA907444EB01046D1944EB8C
:100B90000404521BA3414FF0000348BF0A3200D5A2
:100BA00030BD401C41F1000130BD00002DE9F04195
:100BB0001F46044603260168072A01F4006004DB8F
:100BC00008B116A505E016A503E008B115A500E0DB
:100BD00015A521F010002060A069C01EA0610FB112
:100BE000401EA0612046FFF7FBFB4FB1D4E9012175
:100BF00038469047206A401C2062C01C206206E0F4
:100C0000206AFAE7D4E9012115F8010B9047761E16
:100C1000F8D22046FFF7FAFBBDE8F0814E414E00C6
:100C20006E616E00494E4600696E66002DE9F04720
:100C3000814616468AB0354878440DC88DE80D00C7
:100C400032487844801C03AC0DC884E80D0041F69E
:100C50009B300844372190FBF1F290FBF1F5A5F1B0
:100C6000800501FB12041B3C02D56442012000E018
:100C70000020DFF898A080460027FA44AAF1BE0AB7
:100C80000EE0E0070AD03246684607EB4701012331
:100C90000AEB810100F046FB8DE8070064107F1C21
:100CA000002CEED1194F7F44AE3F19E0E80715D074
:100CB00007EB04100DF1180A90E80E008AE80E0008
:100CC000C068F04201D1981908903246012306A964
:100CD00003A800F027FB03AB83E807006D10641C3A
:100CE000002DE3D14FF0010332466946B8F1000F01
:100CF00003A802D000F001FB01E000F013FBC9E9FA
:100D00000001C9F808200AB0BDE8F087A849000032
:100D100000487047800B00207546FFF7F9FFAE468C
:100D200005006946534620F00700854618B020B5F7
:100D3000FFF7B8FABDE820404FF000064FF000077B
:100D40004FF000084FF0000B21F00701AC46ACE873
:100D5000C009ACE8C009ACE8C009ACE8C0098D46E0
:100D6000704710B50446AFF300802046BDE8104040
:100D7000FFF783BA4FF0013C50F8042B51F8043BC5
:100D80009A4221D1A2EB0C03934313EACC1317D15F
:100D900050F8042B51F8043B9A4215D1A2EB0C03F6
:100DA000934313EACC130BD150F8042B51F8043BB6
:100DB0009A4209D1A2EB0C03934313EACC13DBD084
:100DC0004FF00000704700BFD01A01BAB1FA81F1AC
:100DD00001F0180122FA01F0CB40C1F12001DBB291
:100DE000C0B2C01A2CFA01F3D11A914311EAC3110F
:100DF000E6D1704701491820ABBEFEE7260002008D
:100E000070475FEA400C08BF91F0000F4FEA8C2357
:100E10004FEAC12243EA51514FEA1C5018BF00F576
:100E2000F0404FEA300018BF41F000415FEA6C5CCF
:100E300000F02980BCF1FF3F08BF40F080407047C0
:100E4000130C06BF12044FF0100C4FF0000C130EE1
:100E500004BF12020CF1080C130F04BF12010CF1B5
:100E6000040C930F04BF92000CF1020CD30F04BFCB
:100E700052000CF1010C11464FF00002A0F11F00CE
:100E8000A0EB0C00704711F0004F08BF704731F025
:100E900000413FF4D5AF0B0C06BF09044FF0100C16
:100EA0004FF0000C0B0E04BF09020CF1080C0B0FE5
:100EB00004BF09010CF1040C8B0F04BF89000CF175
:100EC000020CCB0F04BF49000CF1010CCCF1200344
:100ED000A0EB0C0022FA03F302FA0CF241EA030140
:100EE00000F10100704720F07F4C80EA030023F0FE
:100EF0007F47ACEB070303F57C5300F0004003F1A0
:100F0000FF032DE980494FEA154B09B44FEA14431A
:100F100025EA0B4E24EA03480FF2042606EB1327BA
:100F200049083E785FEA320203FB0667C7F500070F
:100F300007FB06F64FEA54374FEAD64606F102069B
:100F400007FB066CCCF1005C4FEA1C472CEA074C0F
:100F500007FB06F40CFB06F504EB15464FEA961664
:100F600034BF00204FF000404FEAD13706FB07FCAA
:100F70004FEA1C4C0CFB0BF7D21B03FB0CF761EB8D
:100F800007010CFB0EF7B0EB074072EB17420CFBAE
:100F900008F734BFA2EB0742B2EB074261EB1741FF
:100FA0004FEA0C444FEA910706FB07FC4FEA1C4C42
:100FB0000CFB0BF7B0EBC74072EB573203FB0CF79F
:100FC00034BFA2EBC742B2EBC74261EB57310CFB17
:100FD0000EF7B0EBC70072EB57720CFB08F734BF8B
:100FE000A2EBC702B2EBC70261EB5771039F4FEA56
:100FF000816141EA921104EBCC044FEAD1374FEA08
:10100000826206FB07FC42EA90124FEA80604FEAD8
:101010001C4C0CFB0BF7D21B03FB0CF761EB07011D
:101020000CFB0EF7B0EB074072EB17420CFB08F716
:1010300034BFA2EB0742B2EB074261EB17414FEA24
:101040008C554FEA910704EB9C2406FB07FC4FEA02
:101050001C4C0CFB0BF7B0EBC74072EB573203FB99
:101060000CF734BFA2EBC742B2EBC74261EB57317A
:101070000CFB0EF7B0EBC70072EB57720CFB08F7D6
:1010800034BFA2EBC702B2EBC70261EB577115EB9D
:101090004C254FEA816141EA92114FEA82624FEAA0
:1010A000D13742EA901206FB07FC44F100044FEAF4
:1010B00080604FEA1C4C0CFB0BF7D21B03FB0CF7B8
:1010C00061EB07010CFB0EF7B0EB074072EB174228
:1010D0000CFB08F734BFA2EB0742B2EB074261EB0F
:1010E000174115EB1C154FEA813141EA92414FEA55
:1010F000823242EA90424FEA80304FEA0C7644F165
:10110000000448EA03434EEA0B484FF0000EB2EBEE
:10111000080C71EB030724BF624639464EEB0E0EF6
:101120004FF0000B0018524149414BEB0B0BB2EB57
:10113000080C71EB03077BF1000B24BF62463946B4
:101140004EEB0E0E4FF0000B0018524149414BEB95
:101150000B0BB2EB080C71EB03077BF1000B24BF08
:10116000624639464EEB0E0E51EA020718BF46F0B2
:10117000010616EB0E7655F1000254F1000103D57D
:10118000BDE88901BDE80088BDE88901BDE80048E7
:10119000B619524141EB0101A3F101037047808070
:1011A0007F7E7D7C7B7A79787776767574737271C1
:1011B00071706F6E6E6D6C6C6B6A6A696868676679
:1011C00066656464636362616160605F5F5E5E5D0B
:1011D0005D5C5C5B5B5A5A5959585857575656557F
:1011E00055555454535352525251515050504F4FE1
:1011F0004F4E4E4D4D4D4C4C4C4B4B4B4A4A4A4931
:101200004949484848474747474646464545454473
:101210004444444343434342424242414141002B00
:101220009C4630D477002BD01CB54FEA370703B467
:101230004FF010004FF01001BAF1000F06D0BCF1D2
:10124000000FDCBF40F0080040F008014FF0000044
:101250000FBCBDE810400BF1010BBBF1010F08BF43
:101260005FEA170722BF12F1010211F101014FF0ED
:10127000004143F1000300F0004043EA00007047E2
:10128000F9D35708D0E746EA064613F1400F4FEA74
:1012900016461FDD13F1200FDFBF16430A4600215B
:1012A00020335B42BED0C3F1200746EA064602FA6D
:1012B00007F74FEA164646EA0706C3F1200722FA67
:1012C00003F201FA07F721FA03F14FF0000342EAB3
:1012D0000702A7E746EA020646EA06464FEA16462E
:1012E00046EA0106BCBF46EA0646360C4FF000034C
:1012F0004FF000024FF0000194E72DE9804C9A4630
:10130000934670B491E8380007C831EA400C48BFF2
:1013100034EA430C03D5FFF7E6FDFFF780FFF0BC8E
:10132000BDE8008C2DE9804C9A46934670B491E854
:10133000380007C810F0804F08BF13F0804F03D16A
:1013400000F005F8FFF76BFFF0BCBDE8008C20F063
:101350007F4780EA030023F07F4C07EB0C03A3F5E3
:101360007C5300F00040A3F1FE0392F0000F00F068
:10137000B38095F0000F00F077802DE901494FEA26
:1013800011404FEA144621EA004800FB06FC24EA1B
:10139000064708FB06F607FB08F800FB07F718EB03
:1013A00006484CEB164C4FEA124B18EB07484FEA35
:1013B00015464CEB174022EA0B4E0BFB06FC25EAC8
:1013C00006470EFB06F607FB0EFE0BFB07F71EEBB0
:1013D000064E4CEB164C4FF000061EEB074E4CEB46
:1013E000174B18EB0B0840F1000018EB0E0B58EBF5
:1013F000000840F100008F1A4FF000013CBFC943C4
:10140000661B14BFB5EB040C00213CBFC943F61B9F
:101410004FEA17444EEA8E0E27EA04454FEA1C476E
:1014200004FB07622CEA074C05FB07F70CFB05F6EB
:1014300004FB0CFC16EB074642EB174216EB0C467E
:1014400042EB1C421BEB060658EB0202414146EA06
:101450009E0601D5BDE80189B619524141EB010153
:10146000A3F10103BDE801894FEA14454FEA114792
:1014700024EA054621EA074C05FB07F406FB07F7BB
:101480000CFB06F105FB0CFC11EB074144EB174488
:101490004FEA124711EB0C4144EB1C4422EA074C83
:1014A00005FB07F206FB07F70CFB06F605FB0CFC39
:1014B00016EB074642EB174216EB0C4642EB1C4577
:1014C0006A1854F1000148BF7047B619524141EB08
:1014D0000101A3F10103704795F0000F37D04FEAE7
:1014E00011424FEA144721EA024624EA074C02FB64
:1014F00007F106FB07F70CFB06F402FB0CFC14EBF0
:10150000074441EB17414FEA154714EB0C4441EBFC
:101510001C4125EA074C02FB07F506FB07F70CFB0D
:1015200006F602FB0CFC16EB074645EB174516EBDF
:101530000C4645EB1C42121951F1000148BF70479F
:10154000B619524141EB0101A3F1010370474FEA83
:1015500014454FEA114724EA054621EA074C05FBEA
:1015600007F106FB07F70CFB06F24FF0000605FB40
:101570000CFC12EB074241EB174112EB0C4251EB12
:101580001C4148BF7047921841EB0101A3F10103D0
:10159000704700BFFEE77047002105E0002200E031
:1015A000521C012AFCDB491C8142F7D3704772B6FA
:1015B00000BFFEE770B5044600F018F90646254660
:1015C000681C10B104480078054400BF00F00EF913
:1015D000801BA842FAD370BDA8080020F8B50246C7
:1015E0000B460025002400200021D6E0012606FA43
:1015F00001F51E6806EA0504AC4274D11E7906F0B6
:101600000306012E04D01E7906F00306022E13D124
:1016100090684F000326BE40B0434F00DE68BE40D6
:1016200030439060506801268E40B0431E79C6F367
:1016300000168E40304350601E7906F00306032EDC
:1016400009D0D0684F000326BE40B0434F009E68CB
:10165000BE403043D0601E7906F00306022E13D13F
:10166000CF0802F1200656F827004E07F70E0F2686
:10167000BE40B0434F07FF0E1E69BE403043CF0847
:1016800002F1200646F8270010684F000326BE40EE
:10169000B0431E7906F003064F00BE403043106091
:1016A0005E6806F44036002E76D000BF0026009615
:1016B0003C4E366846F480463A4F3E603E463668B9
:1016C00006F48046009600BF00BF374E8F0856F8DC
:1016D00027008E07370F0F26BE40B043334EB2426D
:1016E00002D1002624E057E0314EB24201D101265A
:1016F0001EE0304EB24201D1022619E02E4EB24217
:1017000001D1032614E02D4EB24201D104260FE090
:101710002B4EB24201D105260AE02A4EB24201D137
:10172000062605E0284EB24201D1072600E0082631
:101730008F073F0FBE4030431B4E8F0846F82700EF
:10174000224E3068A0435E6806F4801606B120433E
:101750001E4E3060361D3068A0435E6806F40016E9
:1017600006B12043194E361D3060184E361F3068C2
:10177000A0435E6806F4003606B12043134E361FC0
:101780003060361F3068A0435E6806F4803606B1CC
:1017900020430E4E083E3060491C1029FFF426AF4E
:1017A000F8BD000044380240083801400000024003
:1017B0000004024000080240000C024000100240F9
:1017C0000014024000180240001C0240083C014086
:1017D000024613690B400BB1012000E00020704766
:1017E0000AB1816101E00B04836170470148006820
:1017F00070470000A00800200348006803490978EA
:101800000844014908607047A0080020A80800208B
:1018100010B50D48006840F400700B490860084698
:10182000006840F4806008600846006840F48070FA
:101830000860032000F0A2F80F2000F007F800F085
:101840002BF8002010BD0000003C024070B504469B
:101850000E4800784FF47A71B1FBF0F00C4909683A
:10186000B1FBF0F5284600F01BFC08B1012070BD6B
:10187000102C07D200222146501E00F041F80548E6
:10188000046001E00120F2E70020F0E7A808002052
:10189000AC080020A408002008B500BF002000907C
:1018A0000E48006840F480400C4908600846006813
:1018B00000F48040009000BF00BF00BF00200090F7
:1018C000081F006840F08050091F08600846006843
:1018D00000F08050009000BF00BF08BD44380240B7
:1018E00001460846002809DB00F01F0301229A4048
:1018F00043099B0003F1E023C3F8002100BF7047B8
:101900002DE9F05F80460D461646002702F032FAB8
:10191000074639462A46334601F00700C0F1070A58
:10192000BAF1040F02D94FF0040A01E0C0F1070A2E
:10193000D14600F1040ABAF1070F02D24FF0000AB3
:1019400001E0A0F1030AD4464FF0010A0AFA09FAAD
:10195000AAF1010A0AEA020A0AFA0CFA4FF0010B8C
:101960000BFA0CFBABF1010B0BEA030B4AEA0B047D
:101970002146404602F006FABDE8F09F00BF00F0A5
:101980000702064B19684FF6FF031940044B0B433F
:1019900043EA0221014B196000BF70470CED00E0E3
:1019A0000000FA0570B504460D460CB9012070BD63
:1019B0005848006800F00700A84209D255490D7048
:1019C0000846006800F00700A84201D00120EEE7B9
:1019D000207800F0020002281DD1207800F00400D9
:1019E000042805D14C48006840F4E0504A4908609A
:1019F000207800F00800082805D14748006840F426
:101A00006040454908604448006820F0F000A16843
:101A1000084341490860207800F00100A8B36068DD
:101A2000012807D13C4808380068C0F34040B8B9E5
:101A30000120BCE76068022802D06068032807D153
:101A4000354808380068C0F3406048B90120AEE767
:101A5000314808380068C0F3400008B90120A6E703
:101A60002D48006820F00300616808432A49086097
:101A7000FFF7BCFE064609E0FFF7B8FE801B41F207
:101A80008831884202D9032091E707E022480068A4
:101A900000F00C006168B0EB810FEDD11D480068CB
:101AA00000F00700A84209D91A490D7008460068DD
:101AB00000F00700A84201D0012078E7207800F06C
:101AC0000400042807D11448006820F4E050E168BD
:101AD000084311490860207800F00800082808D160
:101AE0000D48006820F46040216940EAC1000A49BD
:101AF000086000F02FF808490968C1F30311074A8C
:101B0000515CC8400649086006480068FFF79EFE21
:101B100000204CE7003C0240083802404E550008C7
:101B2000AC080020A40800200148006870470000AD
:101B3000AC08002000B5FFF7F7FF04490968C1F3BE
:101B40008221034A515CC84000BD000008380240B1
:101B50005E5500082DE9F047002400250026A14627
:101B60002548006800F00C0020B1042805D00828A2
:101B70003AD105E0DFF8849039E0DFF8849036E070
:101B80001D48001F006800F03F041B48001F00684C
:101B900000F4800078B11A481749091F0968C1F399
:101BA0008811A0FB01700146224600233846FEF74B
:101BB0008BFB05460EE011480F49091F0968C1F368
:101BC0008811A0FB01700146224600233846FEF72B
:101BD0007BFB05460848001F0068C0F30140401C1D
:101BE0004600B5FBF6F902E0DFF8109000BF00BF39
:101BF0004846BDE8F0870000083802400024F400A1
:101C000000127A00F8B504460CB90120F8BD20781E
:101C100000F00100002874D0F948006800F00C00C2
:101C200004280DD0F648006800F00C00082813D1F5
:101C3000F348001F006800F48000B0F5800F0BD15E
:101C4000EF4808380068C0F34040002859D0606869
:101C5000002856D10120D9E700BF6068B0F5803F69
:101C600008D1E7480838006840F48030E449083972
:101C700008601EE06068B0F5A02F0DD1E04808387C
:101C8000006840F48020DE49083908600846006892
:101C900040F4803008600CE0D9480838006820F42F
:101CA0008030D749083908600846006820F4802051
:101CB000086000BF606890B1FFF798FD054606E038
:101CC000FFF794FD401B642801D903209EE7CC4810
:101CD00008380068C0F340400028F1D011E0FFF759
:101CE00085FD054606E0FFF781FD401B642801D90C
:101CF00003208BE7C24808380068C0F34040002842
:101D0000F1D1207800F0020002285FD1BC480068C1
:101D100000F00C0058B1BA48006800F00C00082828
:101D20001CD1B748001F006800F48000B0B9B44867
:101D300008380068C0F3400020B1E068012801D0F5
:101D4000012063E7AE480838006820F0F8002169F8
:101D500040EAC100AA490839086037E0E06800B3EA
:101D60000120A8490860FFF741FD054606E0FFF79E
:101D70003DFD401B022801D9032047E7A048083851
:101D80000068C0F340000028F1D09D480838006882
:101D900020F0F800216940EAC1009949083908603B
:101DA00014E0002097490860FFF720FD054606E093
:101DB000FFF71CFD401B022801D9032026E79048AD
:101DC00008380068C0F340000028F1D1207800F006
:101DD000080008282CD16069A8B101208A49086050
:101DE000FFF704FD054606E0FFF700FD401B022853
:101DF00001D903200AE782486C300068C0F3400034
:101E00000028F1D014E000207F490860FFF7EEFCC5
:101E1000054606E0FFF7EAFC401B022801D9032033
:101E2000F4E677486C300068C0F340000028F1D138
:101E3000207800F00400042870D100277048383062
:101E4000006800F0805090B900BF002000906C48FE
:101E50003830006840F080506949383108600846E1
:101E6000006800F08050009000BF00BF0127674865
:101E7000006800F48070B0B96448006840F4807075
:101E800062490860FFF7B2FC054606E0FFF7AEFCCA
:101E9000401B022801D90320B8E65C48006800F422
:101EA00080700028F2D000BFA068012808D15448F3
:101EB0006830006840F001005149683108601DE059
:101EC000A06805280DD14E486830006840F0040035
:101ED0004B49683108600846006840F0010008601E
:101EE0000CE047486830006820F001004449683140
:101EF00008600846006820F00400086000BFA06881
:101F0000A8B1FFF773FC054609E0FFF76FFC401B23
:101F100041F28831884202D9032077E626E038482A
:101F200068300068C0F340000028EED013E0FFF7EF
:101F30005DFC054608E0FFF759FC401B41F2883183
:101F4000884201D9032061E62D4868300068C0F35B
:101F500040000028EFD1012F07D129483830006810
:101F600020F0805026493831086000BFA069002861
:101F700045D02348006800F00C0008285DD0A06917
:101F8000022845D100201F490866FFF72FFC0546AF
:101F900006E0FFF72BFC401B022801D9032035E6A1
:101FA000174808380068C0F340600028F1D1D4E930
:101FB00007010843616A40EA81110122A06AC2EB6D
:101FC000500041EA00412C20005D41EA00600C49CC
:101FD000091F086001200B490866FFF707FC05464A
:101FE00006E0FFF703FC401B022801D903200DE6A1
:101FF000034808380068C0F340600028F1D049E089
:102000000838024000004742800E474200700040FE
:10201000002021490866FFF7E9FB054606E0FFF7C7
:10202000E5FB401B022801D90320EFE51B480068AF
:10203000C0F340600028F2D12CE0A069012800D153
:10204000E4E51648001D0668A069012820D006F4C2
:102050008001E06981421BD106F03F01206A814284
:1020600016D147F6C0703040616AB0EB811F0FD1C6
:1020700006F440310122A06AC2EB5000B1EB004FE0
:1020800006D106F070612C20005DB1EB006F01D02D
:102090000120BBE50020B9E50000474200380240BE
:1020A00070B504462546681EB0F1807F01D301203B
:1020B0000FE0681E4FF0E02148610F214FF0FF3024
:1020C00001F060FE00204FF0E021886107200861E8
:1020D000002070BD7047704710B50346002200BF56
:1020E00093F83C00012801D1022010BD012083F8A3
:1020F0003C0000BF22F0FF00CC6840EA040222F45A
:1021000040708C6840EA040222F480604C6840EA27
:10211000040222F400600C6840EA040222F48050B9
:102120000C6940EA040222F400504C6940EA0402BF
:1021300022F48040CC6940EA04021868426400BF7F
:10214000002083F83C0000BF00BFCEE730B5024658
:102150000B4600BF92F83C00012801D1022030BD9F
:10216000012082F83C0000BF022082F83D00106888
:1021700044681068816824F070041868044310688B
:102180004460184D1068A8421BD01068B0F1804F11
:1021900017D0154D1068A84213D0144D1068A842EE
:1021A0000FD0134D1068A8420BD0124D1068A842F2
:1021B00007D0114D1068A84203D0104D1068A842F6
:1021C00005D121F080015868014310688160012029
:1021D00082F83D0000BF002082F83C0000BF00BF35
:1021E000BDE700000000014000040040000800407E
:1021F000000C004000040140004001400018004075
:1022000010B504460CB9012010BD94F83D0028B962
:10221000002084F83C00204600F026F8022084F8D4
:102220003D00211D206801F09DFA012084F8460040
:1022300000BF84F83E0001213F2001554020015598
:102240004120015500BF00BF012084F84200432017
:102250000155442001554520015500BF012084F857
:102260003D000020D0E7000010B586B004461421E0
:1022700001A8FEF7A0F96249206888420FD100BF8B
:10228000002000905F48006840F001005D49086050
:102290000846006800F00100009000BFAEE0206832
:1022A000B0F1804F1AD100BF002000905548001FA8
:1022B000006840F001005349091F086008460068A3
:1022C00000F00100009000BF00BF002211461C205A
:1022D000FFF716FB1C20FFF703FB8FE04A4920683D
:1022E000884239D100BF002000904648001F006896
:1022F00040F002004349091F08600846006800F0EA
:102300000200009000BF00BF00BF002000903D48C9
:102310001438006840F002003A4914390860084651
:10232000006800F00200009000BF00BF1020019084
:10233000022002900020039004900220059001A941
:102340003248FFF74BF9002211461D20FFF7D8FA5B
:102350001D20FFF7C5FA51E02D49206888421AD1A7
:1023600000BF002000902748001F006840F00800D0
:102370002449091F08600846006800F00800009022
:1023800000BF00BF002211463220FFF7B9FA322009
:10239000FFF7A6FA32E01F49206888421AD100BF31
:1023A000002000901748001F006840F010001549F9
:1023B000091F08600846006800F01000009000BF88
:1023C00000BF002211463620FFF79AFA3620FFF7A9
:1023D00087FA13E01049206888420FD100BF00201F
:1023E00000900848006840F002000649086008466E
:1023F000006800F00200009000BF00BF06B010BDF2
:102400000000014044380240000400400004024043
:10241000000C00400010004000040140014691F80B
:102420003D00012801D001207047022081F83D00C5
:102430000868C06840F001000B68D8601A4B086853
:1024400098421BD00868B0F1804F17D0174B08682E
:10245000984213D0164B086898420FD0154B086865
:1024600098420BD0144B0868984207D0134B086869
:10247000984203D0124B086898420CD108688068D3
:1024800000F00702062A0CD00868006840F001003E
:102490000B68186005E00868006840F001000B68F0
:1024A00018600020C0E70000000001400004004068
:1024B00000080040000C00400004014000400140C2
:1024C000001800402DE9F04104460D46002700BFEA
:1024D00094F83C00012802D10220BDE8F0810120DF
:1024E00084F83C0000BF022084F83D002068866824
:1024F00026F0770626F47F462068866028685028F4
:1025000033D00CDC202850D004DC00284BD010281D
:1025100051D149E0302849D040284CD139E06028D9
:102520002DD0702807D0B0F5805F03D0B0F5005FE4
:1025300041D10DE041E0D5E902136A68206801F05D
:102540008EF92068866846F077062068866034E059
:10255000D5E902136A68206801F081F92068806873
:1025600040F480402168886027E0EA686968206854
:1025700001F0BFFA5021206801F07CF91DE0EA6803
:102580006968206801F010FB6021206801F072F991
:1025900013E0EA686968206801F0ABFA402120681E
:1025A00001F068F909E000BF00BF00BF296820689A
:1025B00001F060F901E0012700BF00BF012084F8AD
:1025C0003D0000BF002084F83C0000BF384684E78F
:1025D00010B50446207F01283DD11F48008848B926
:1025E0000021204600F018FC1C49086001201A490F
:1025F000088030E01848008801282CD100212046AE
:1026000000F00AFC1649086008460068134909688A
:10261000884207D91248006810490968401A1149D0
:10262000086009E00D4800684FF6FF71081A0C4970
:10263000096808440B490860FFF77CFA4000A821AC
:10264000B0FBF1F007490968B0FBF1F006490860FA
:1026500000200149088010BD980800208C08002047
:1026600090080020940800209C0800202DE9F041EB
:1026700004460D461646002700BF94F83C0001288A
:1026800002D10220BDE8F081012084F83C0000BFA7
:1026900096B9EB68D5E90012206801F03DFA206890
:1026A000806920F00C002168886120688069A96831
:1026B00008432168886141E0042E13D1EB68D5E915
:1026C0000012206801F084FA2068806920F44060DC
:1026D0002168886120688069A96840EA0120216832
:1026E00088612BE0082E12D1EB68D5E90012206832
:1026F00001F08BFA2068C06920F00C002168C861E5
:102700002068C069A96808432168C86116E00C2EDA
:1027100013D1EB68D5E90012206801F092FA206825
:10272000C06920F440602168C8612068C069A96858
:1027300040EA01202168C86100E0012700BF0020B5
:1027400084F83C0000BF38469CE710B504460CB93D
:10275000012010BD94F83D0028B9002084F83C0009
:10276000204600F025F8022084F83D00211D206855
:1027700000F0F8FF012084F8460000BF84F83E0016
:1027800001213F200155402001554120015500BF46
:1027900000BF012084F84200432001554420015528
:1027A0004520015500BF012084F83D000020D0E7FE
:1027B000704700002DE9F04304460D46002615B988
:1027C00094F83E000BE0042D02D13F20005D06E0AE
:1027D000082D02D14020005D01E04120005D8046CF
:1027E00015B994F842000BE0042D02D14320005D9E
:1027F00006E0082D02D14420005D01E04520005D87
:102800008146B8F1010F02D1B9F1010F02D00120C8
:10281000BDE8F0831DB9022084F83E000EE0042DCF
:1028200003D102213F20015508E0082D03D10221E8
:102830004020015502E00221412001551DB902202E
:1028400084F842000EE0042D03D1022143200155FB
:1028500008E0082D03D102214420015502E00221A5
:102860004520015535B1042D0BD0082D10D00C2D6D
:102870001CD114E02068C06840F002002168C860E4
:1028800016E02068C06840F004002168C8600FE0CE
:102890002068C06840F008002168C86008E020682F
:1028A000C06840F010002168C86001E0012600BF48
:1028B00000BF86BB01222946206800F0BFFF1A49ED
:1028C000206888421BD02068B0F1804F17D017498C
:1028D0002068884213D01649206888420FD01549D5
:1028E000206888420BD014492068884207D01349D9
:1028F0002068884203D01249206888420CD12068A1
:10290000806800F00707062F0CD02068006840F0B0
:1029100001002168086005E02068006840F00100BF
:1029200021680860304673E7000001400004004061
:1029300000080040000C004000040140004001403D
:102940000018004010B5044620680069C0F340003C
:10295000D8B12068C068C0F34000B0B16FF0020089
:1029600021680861012020772068806900F0030059
:1029700018B12046FFF72CFE05E0204600F004F9D0
:10298000204600F0B8F90020207720680069C0F3E5
:102990008000D8B12068C068C0F38000B0B16FF08B
:1029A000040021680861022020772068806900F413
:1029B000407018B12046FFF70BFE05E0204600F0FE
:1029C000E3F8204600F097F900202077206800699E
:1029D000C0F3C000D8B12068C068C0F3C000B0B177
:1029E0006FF0080021680861042020772068C06922
:1029F00000F0030018B12046FFF7EAFD05E020468D
:102A000000F0C2F8204600F076F900202077206818
:102A10000069C0F30010D8B12068C068C0F300108E
:102A2000B0B16FF01000216808610820207720689D
:102A3000C06900F4407018B12046FFF7C9FD05E0F9
:102A4000204600F0A1F8204600F055F9002020773C
:102A50002068006900F0010058B12068C06800F0EB
:102A6000010030B16FF0010021680861204600F0DC
:102A7000C9F920680069C0F3C01058B12068C06867
:102A8000C0F3C01030B16FF08000216808612046AB
:102A9000FFF720FB20680069C0F3801058B1206860
:102AA000C068C0F3801030B16FF040002168086149
:102AB000204600F000FA20680069C0F3401058B1C9
:102AC0002068C068C0F3401030B16FF0200021686A
:102AD00008612046FFF7FFFA10BD000010B586B070
:102AE0000446142101A8FDF766FD224920688842AA
:102AF0001DD100BF002000901F48006840F010006A
:102B00001D4908600846006800F01000009000BFF2
:102B100000BF48150190022002900020039004900D
:102B20000120059001A91548FEF758FD20E0144941
:102B3000206888421CD100BF002000900E48006829
:102B400040F004000C4908600846006800F00400EA
:102B5000009000BF00BF40200190022002900020A2
:102B6000039004900320059001A90648FEF736FD66
:102B700006B010BD00000140303802400010024095
:102B8000000401400008024070472DE9F04104466E
:102B90000D461646002700BF94F83C00012802D1DC
:102BA0000220BDE8F081012084F83C0000BF36B16E
:102BB000042E1BD0082E31D00C2E5ED145E02946C4
:102BC000206800F061FE2068806940F008002168FC
:102BD00088612068806920F004002168886120688D
:102BE0008069296908432168886148E0294620688E
:102BF00000F082FE2068806940F4006021688861EE
:102C00002068806920F4806021688861206880697C
:102C1000296940EA01202168886130E0294620685E
:102C200000F0A8FE2068C06940F008002168C86173
:102C30002068C06920F004002168C8612068C0696C
:102C4000296908432168C86119E02946206800F015
:102C5000CDFE2068C06940F400602168C86120682A
:102C6000C06920F480602168C8612068C069296952
:102C700040EA01202168C86101E0012700BF00BFD0
:102C800000BF002084F83C0000BF384689E710B53B
:102C900004460CB9012010BD94F83D0028B900206D
:102CA00084F83C00204600F025F8022084F83D001E
:102CB000211D206800F056FD012084F8460000BF69
:102CC00084F83E0001213F2001554020015541205C
:102CD000015500BF00BF012084F842004320015588
:102CE000442001554520015500BF012084F83D00D6
:102CF0000020D0E77047704770B504460D4615B9FF
:102D000094F83E000BE0042D02D13F20005D06E068
:102D1000082D02D14020005D01E04120005D012826
:102D200001D0012070BD1DB9022084F83E000EE0E4
:102D3000042D03D102213F20015508E0082D03D1C5
:102D400002214020015502E00221412001550122CB
:102D50002946206800F072FD23492068884203D08C
:102D600022492068884201D1012000E0002028B1DA
:102D70002068406C40F40040216848641A4920688B
:102D800088421BD02068B0F1804F17D018492068C6
:102D9000884213D01749206888420FD0164920680E
:102DA00088420BD011492068884207D01349206817
:102DB000884203D01249206888420CD1206880687C
:102DC00000F00706062E0CD02068006840F00100D5
:102DD0002168086005E02068006840F00100216873
:102DE000086000209EE70000000001400004014050
:102DF0000004004000080040000C0040004001407A
:102E00000018004010B504460248844201D101F088
:102E1000D3F810BDF00A00200246002031B1042989
:102E200007D0082908D00C290CD108E01368586B8A
:102E300009E01368986B06E01368D86B03E0136829
:102E4000186C00E000BF00BF704770B504460D4627
:102E500000BF94F83C00012801D1022070BD012080
:102E600084F83C0000BF022084F83D00294620463B
:102E700000F0E6FD48B1012084F83D0000BF0020CD
:102E800084F83C0000BF0120E8E72068C06820F01B
:102E900040002168C8602068C06820F48040216834
:102EA000C860012084F83D0000BF002084F83C0089
:102EB00000BF00BFD2E7704700BFFEE710B5012298
:102EC00002210C48FEF78CFC012211460948FEF74E
:102ED00087FC0F20FEF760FB002201210548FEF76A
:102EE0007FFC1E20FEF758FB002202210148FEF75E
:102EF00077FC10BD0014024010B5002201210A48E1
:102F0000FEF76EFC0F20FEF747FB01220221064868
:102F1000FEF766FC1E20FEF73FFB01221146024829
:102F2000FEF75EFC10BD00000014024010B5AE209C
:102F300000F0E8FE202000F0E5FE102000F0E2FEA8
:102F4000B02000F0DFFEC82000F0DCFE002000F022
:102F5000D9FE102000F0D6FE402000F0D3FE8120E4
:102F600000F0D0FE7F2000F0CDFEA12000F0CAFED0
:102F7000A62000F0C7FEA82000F0C4FE3F2000F00D
:102F8000C1FEA42000F0BEFED32000F0BBFE002056
:102F900000F0B8FED52000F0B5FEF02000F0B2FE43
:102FA000D92000F0AFFE222000F0ACFEDA2000F0C5
:102FB000A9FE122000F0A6FEDB2000F0A3FE2020D8
:102FC00000F0A0FE8D2000F09DFE142000F09AFE7F
:102FD000AF2000F097FE10BD00B587B0142102A805
:102FE000FDF7E9FA00BF002001906748006840F053
:102FF0001000654908600846006800F01000019064
:1030000000BF00BF00BF002001900846006840F0EC
:10301000200008600846006800F02000019000BF12
:1030200000BF00BF002001900846006840F080000B
:1030300008600846006800F08000019000BF00BFF3
:1030400000BF002001900846006840F002000860C0
:103050000846006800F00200019000BF00BF00BFFA
:10306000002001900846006840F00400086008460F
:10307000006800F00400019000BF00BF00BF002006
:1030800001900846006840F00100086008460068AA
:1030900000F00100019000BF00BF00BF00200190C0
:1030A0000846006840F0400008600846006800F0EC
:1030B0004000019000BF00BF002203213348FEF70B
:1030C0008FFB00224FF400513148FEF789FB0022AC
:1030D0004FF480712F48FEF783FB7E200290002082
:1030E0000390049002A92C48FEF778FA032002907E
:1030F00011200390002004900220059002A923488B
:10310000FEF76CFA4FF4005002900120039000206B
:103110000490059002A91E48FEF760FA4FF48070F3
:1031200002900120039000200490059002A9194804
:10313000FEF754FA4FF404400290002003900490EC
:1031400002A91648FEF74AFA4FF4406002900020A8
:103150000390049002A90F48FEF740FA4FF4705014
:10316000029000200390049002A90D48FEF736FA61
:103170002020029000200390049002A90448FEF74A
:103180002DFA07B000BD00003038024000140240A4
:10319000000402400008024000100240000002400B
:1031A0000018024000B595B00020119012901390C5
:1031B00014900F9010901C2108A8FDF7FCF9202115
:1031C0006846FDF7F8F92F482F490860A7204860A6
:1031D00000212D4881606321C160002101614161AE
:1031E0008161FFF70DF808B1FEF7E1F94FF4805067
:1031F000119011A92448FFF765F908B1FEF7D7F936
:103200002148FFF744FD08B1FEF7D1F930200F90B7
:10321000002010900FA91C48FEF798FF08B1FEF798
:10322000C6F9602008903120099000200A900B9088
:103230000C900D900E90002208A91348FFF7A5FCF2
:1032400008B1FEF7B4F910480068806920F0080062
:103250000D49096888610020009001900290039058
:1032600004904FF4005005900020079069460648EE
:10327000FEF732FF08B1FEF79AF90348FFF72EFC7C
:1032800015B000BD00000140D009002000B58BB092
:1032900000200790089009900A90142102A8FDF7D9
:1032A0008AF90020009001904FF080401949086091
:1032B0000020486000211748816041F6FF01C1608D
:1032C000002101618161FEF79BFF08B1FEF76FF9F4
:1032D0004FF48050079007A90E48FFF7F3F808B1A4
:1032E000FEF765F9052002900020039002A9094825
:1032F000FFF7ABFD08B1FEF75AF92020009000203F
:10330000019069460348FEF721FF08B1FEF74FF927
:103310000BB000BD180A002000B58BB0002007904C
:10332000089009900A9005900690019002900390F1
:1033300004901F481F490860A720486000211D48CD
:1033400081604FF6FF71C160002101618161FEF76C
:1033500057FF08B1FEF72BF94FF48050079007A9EB
:103360001448FFF7AFF808B1FEF721F91148FFF74D
:10337000ECF908B1FEF71BF900200590069005A9AD
:103380000C48FEF7E3FE08B1FEF711F902200190A8
:1033900001200290002003900490002201A905481A
:1033A000FFF764F908B1FEF702F90BB000BD0000A9
:1033B00000040040600A002000B587B0142102A874
:1033C000FDF7F9F8002000900190154815490860B4
:1033D00000204860002113488160491EC16000211F
:1033E00001618161FEF70CFF08B1FEF7E0F80520EE
:1033F00002903020039002A90A48FFF726FD08B189
:10340000FEF7D5F82020009000200190694605487D
:10341000FEF79CFE08B1FEF7CAF807B000BD000039
:10342000000C0040A80A00201CB50020009001906C
:103430000E480F4908605320486000210C48816005
:1034400040F2CF71C16000218161FEF7D9FE08B161
:10345000FEF7ADF800200090019069460448FEF7A1
:1034600075FE08B1FEF7A3F81CBD00000010004077
:10347000F00A002000B595B0002011901290139032
:1034800014900F9010901C2108A8FDF794F82021AB
:103490006846FDF790F8314831490860A720486038
:1034A00000212F4881604FF6FF71C160002101614A
:1034B0006321416100218161FEF7A2FE08B1FEF7A0
:1034C00076F84FF48050119011A92548FEF7FAFFC5
:1034D00008B1FEF76CF82248FFF7D9FB08B1FEF7F8
:1034E00066F830200F90002010900FA91C48FEF7BE
:1034F0002DFE08B1FEF75BF860200890312009909E
:1035000000200A900B900C900D900E90002208A9BC
:103510001348FFF73AFB08B1FEF749F81048006876
:10352000806920F008000E49096888610020009039
:1035300001900290039004904FF4005005900020F9
:10354000079069460648FEF7C7FD08B1FEF72FF859
:103550000348FFF7C3FA15B000BD000000040140A6
:10356000380B002000BFFEE700BFFEE770B5002467
:1035700015E004F1B001C8B200F0C4FB002000F077
:10358000C1FB102000F0BEFB002504E0002000F08D
:10359000C9FB681CC5B2802DF8DB601CC4B2082CC6
:1035A000E7DB70BD70B504460D4605F1B001C8B249
:1035B00000F0A8FB102141EA141000F0A3FB04F076
:1035C0000F0141F0010000F09DFB70BD2DE9F041BD
:1035D00006460C4617464FF000080025A7F12000CC
:1035E00000F0FF087F2E02DD0026A01CC4B2601C84
:1035F000C1B23046FFF7D6FF002509E008EB4801CD
:10360000054A02EB4101485D00F08CFB681CC5B225
:10361000062DF3DBBDE8F081000000202DE9F0412C
:1036200004460F46154600260DE0AA5D39462046A1
:10363000FFF7CCFFA01DC4B2782C02DD0024781C5B
:10364000C7B2701CC6B2A85D0028EED1BDE8F081FB
:103650007047704710B5FEF7CFF810BD00B593B0B6
:10366000302107A8FCF7A7FF142102A8FCF7A3FF4D
:1036700000BF002001902448006840F0805022499B
:1036800008600846006800F08050019000BF00BF4D
:1036900000BF002001901D48006840F480401B4995
:1036A00008600846006800F48040019000BF00BF39
:1036B000012007900004089002200D9041050E9112
:1036C00004210F91A821109102211191042112913E
:1036D00007A8FEF797FA08B1FDF769FF0F200290DF
:1036E00002200390002004904FF4A05005904FF466
:1036F00080500690052102A8FEF754F908B1FDF7A5
:1037000056FF13B000BD000040380240007000407A
:103710000348006840F470000149086070470000E9
:1037200088ED00E010B50248FFF70CF910BD00006D
:10373000180A002010B50248FFF704F910BD000078
:10374000600A002010B50248FFF7FCF810BD000029
:10375000A80A002010B50248FFF7F4F810BD0000D9
:10376000F00A002010B50268294B98420ED0B0F143
:10377000804F0BD0274B984208D0274B984205D05A
:10378000264B984202D0264B984203D122F0700279
:103790004B681A431E4B984220D0B0F1804F1DD089
:1037A0001C4B98421AD01C4B984217D01B4B984286
:1037B00014D01B4B984211D01A4B98420ED01A4B82
:1037C00098420BD0194B984208D0194B984205D01B
:1037D000184B984202D0184B984203D122F4407201
:1037E000CB681A4322F080034C6943EA040202606A
:1037F0008B68C3620B688362054B984202D0084B0A
:10380000984201D10B6903630123436110BD00009D
:10381000000001400004004000080040000C00408F
:1038200000040140004001400044014000480140C4
:1038300000180040001C00400020004030B501F09E
:103840001F05012404FA05F3046A9C430462046A18
:1038500001F01F0502FA05F52C43046230BD30B5B6
:103860000C46816821F47F4142EA03252543294320
:10387000816030BD0A46816821F0700142F0070383
:10388000194381607047000030B5056A25F00105D5
:103890000562026A4368846924F0700424F003041A
:1038A0000D682C4322F002028D682A43104DA84275
:1038B00000D103E00F4DA84206D100BF22F008025C
:1038C000CD682A4322F00402094DA84202D0094DD6
:1038D000A84207D123F4807323F400734D692B436E
:1038E0008D692B43436084614D684563026230BD3E
:1038F000000001400004014030B5056A25F01005C4
:103900000562026A4368846924F4E04424F4407444
:103910000D6844EA052422F020028D6842EA05126F
:10392000124DA84200D103E0114DA84207D100BFBB
:1039300022F08002CD6842EA051222F040020B4DCF
:10394000A84202D00A4DA84209D123F4806323F48F
:1039500000634D6943EA85038D6943EA850343604B
:1039600084614D688563026230BD00000000014043
:103970000004014030B5056A25F480750562026ACD
:103980004368C46924F0700424F003040D682C43D8
:1039900022F400728D6842EA0522124DA84200D13D
:1039A00003E0114DA84207D100BF22F40062CD68A8
:1039B00042EA052222F480620A4DA84202D00A4D52
:1039C000A84209D123F4805323F400534D6943EAFC
:1039D00005138D6943EA05134360C4614D68C563EF
:1039E000026230BD000001400004014030B5056AAC
:1039F00025F480550562036A4468C26922F4E042F6
:103A000022F440720D6842EA052223F400538D68C7
:103A100043EA0533084DA84202D0084DA84204D11C
:103A200024F480444D6944EA85144460C2614D68C1
:103A30000564036230BD0000000001400004014045
:103A40002DE9F04705460C464FF0000928688668C6
:103A500026F070066068064326F0070620680643D5
:103A600028688660606800F00F0100293BD10011D2
:103A7000082838D2DFE800F0333435360B272D0420
:103A8000D4E90313A2682868FFF7E9FE2EE0206856
:103A9000052802D10120BDE8F0872868D0F82080F1
:103AA0002868006A20F00100296808622868876990
:103AB00027F0F007206947EA00172868876128681F
:103AC000C0F8208012E02269A168286800F011F88F
:103AD0000CE02269A168286800F066F806E000BFE3
:103AE00000BF00BF02E04FF0010900BF00BF484621
:103AF000D1E730B50B461446026A056A25F0010588
:103B00000562816921F0F00141EA041122F00A0204
:103B10001A438161026230BD70B50C461546066AD3
:103B200026F0010606628169026A184EB04214D07E
:103B3000B0F1804F11D0164EB0420ED0154EB042AB
:103B40000BD0154EB04208D0144EB04205D0144EE2
:103B5000B04202D0134EB04201D1012600E000264F
:103B60001EB121F00301294301E041F0010121F0E0
:103B7000F001F02606EA0316314322F00A0204F0AF
:103B80000A0632438161026270BD000000000140FC
:103B90000004004000080040000C00400004014008
:103BA000004001400018004030B50B461446056A3D
:103BB00025F0100505628169026A21F4704141EA2D
:103BC000043122F0A00242EA03128161026230BD98
:103BD00070B50C461546066A26F010060662816925
:103BE000026A21F4407141EA052121F470414FF449
:103BF000704606EA0336314322F0A002A02606EA08
:103C0000041632438161026270BD70B50C461546E0
:103C1000066A26F480760662C169026A21F0030111
:103C2000294321F0F001F02606EA0316314322F47D
:103C300020624FF4206606EA04263243C161026224
:103C400070BD70B50C461546066A26F480560662AD
:103C5000C169026A21F4407141EA052121F47041F1
:103C60004FF4704606EA0336314322F420424FF403
:103C7000204606EA04363243C161026270BD00BFCD
:103C8000FEE7000070B50446012600251EE004F0A2
:103C9000800028B1012211461948FDF7A1FD04E07A
:103CA000002201211648FDF79BFD01220221144844
:103CB000FDF796FD1E20FDF76FFC00220221104843
:103CC000FDF78EFD6006040E681CC5B2082DDEDB14
:103CD000012211460A48FDF783FD1E20FDF75CFC1A
:103CE000012202210648FDF77BFD1E20FDF754FC52
:103CF000002202210248FDF773FD304670BD00002E
:103D00000014024010B50446FFF7D8F87820FFF7FA
:103D1000B9FF0020FFF7B6FF2046FFF7B3FFFFF71C
:103D2000EBF810BD10B50446FFF7C8F87820FFF790
:103D3000A9FF4020FFF7A6FF2046FFF7A3FFFFF7EC
:103D4000DBF810BD03B401984100009850EAC1208F
:103D500018BF04204A0D18BF40F0010040F2FF7266
:103D6000B2EB515F08BF40F00200012808BF0520F8
:103D700002B0704702480068C0F30220704700009C
:103D80000CED00E010B5002804DB0A07130E054A0D
:103D9000135406E00A07140E034A00F00F031B1F1A
:103DA000D45410BD00E400E018ED00E030380A28DB
:103DB00001D20120704700207047000010B5044672
:103DC00035480078052863D2DFE800F00316293C67
:103DD0004F003248807820B12078401C40B22070DB
:103DE00006E02E48C07818B12078401E40B22070FE
:103DF000204600F0D1F84CE02848807820B1607867
:103E0000401C40B2607006E02448C07818B1607869
:103E1000401E40B26070601C00F0BEF839E01F48E0
:103E2000807820B1A078401C40B2A07006E01B480A
:103E3000C07818B1A078401E40B2A070A01C00F05D
:103E4000ABF826E01548807820B1E078401C40B2FD
:103E5000E07006E01148C07818B1E078401E40B22A
:103E6000E070E01C00F098F813E00C48807820B176
:103E70002079401C40B2207106E00848C07818B193
:103E80002079401E40B22071201D00F085F800E02E
:103E900000BF00BF10BD00001F080020B0080020B8
:103EA00010B504213948FDF793FC08B9012000E062
:103EB00000203749087002213448FDF789FC08B911
:103EC000012000E00020324948704FF40061314881
:103ED000FDF77EFC08B9012000E000202C49887025
:103EE0004FF480512B48FDF773FC08B9012000E026
:103EF00000202749C87020212448FDF769FC18B923
:103F00000120234908710BE01420FDF753FB202109
:103F10001E48FDF75DFC012802D100201C490871F4
:103F200010211A48FDF754FC08B9012000E00020D8
:103F3000174948714FF400511648FDF749FC08B97C
:103F4000012000E000201249887140210F48FDF750
:103F50003FFC08B9012000E000200D49C87108218C
:103F60000A48FDF735FC08B9012000E000200849A7
:103F700008724FF480610748FDF72AFC08B9012058
:103F800000E000200249487210BD0000001002400D
:103F9000B00800200018024090F90010092901DD46
:103FA000092107E090F90010002901DA002101E061
:103FB00090F900100170704710B54748007818B1AB
:103FC00001204649087005E04348407810B10220BE
:103FD000424908704248007830B1012824D00228B4
:103FE00032D0032872D151E04FF400613D48FDF713
:103FF000EFFB01280AD1002241033B48FDF7F0FB0B
:104000004FF4FA6039498862C86207E001203749F5
:104010008862C86231490870314908703348C16A02
:10402000334800F009FD52E02C480078012803D104
:1040300002202B49087006E028480078022802D1A7
:1040400003202749087042E000F022FE00F0BAFE8B
:104050002848007848B92548007830B91F480078CA
:10406000022802D103201E490870204800F0F8FC05
:104070001E48C16A1E4800F0DFFC1E4800F0F0FC3C
:104080001C48C16A1C4800F0D7FC20E000F034FD59
:1040900000F050FE1748007830B910480078012829
:1040A00002D102200E490870104800F0D9FC0F48D8
:1040B000C16A0F4800F0C0FC0E4800F0D1FC0D486A
:1040C000C16A0D4800F0B8FC01E0FFE700BF00BF87
:1040D00000F092FA10BD0000B0080020280800206F
:1040E0002708002000080240000402407009002058
:1040F000D0090020A0090020380B002010B500F0E6
:1041000025FB01201E498862C8621E4848601E497E
:104110001B4881601D49C1601D48006818494861FD
:104120001C480178164801621B48016814488161E7
:10413000174801681248C161164801781048416269
:10414000012016498862C86215484860154913481D
:1041500081601549C1600E480068104948610D48EA
:1041600001780E4801620C4801680C4881610848DA
:1041700001680A48C161074801780848416210BDDA
:1041800070090020200800202108002022080020BB
:104190003C0800204008002038080020A00900202A
:1041A00023080020240800202508002000B52DED5C
:1041B000028B83B000200290009001909848007814
:1041C00010B101287DD106E09648807910B1012018
:1041D00093490870B3E09348407A60B1924A91786D
:1041E0001078FFF7DFF90020FFF79CFD00F0AEFA32
:1041F00000208B49087000F067F900F0D9F900F051
:10420000ABF98A48007830B1012825D0022844D083
:1042100003287DD164E0864991ED000ADFED850A2F
:1042200020EE200ABCEEC00A10EE100A694600F02B
:10423000D7FB6846FFF7C2FD694602A800F064FAA2
:104240009DED020AB8EE400ADFED7A0A80EE201AF0
:10425000774880ED001A67E0774991ED000ADFEDBD
:10426000750A20EE200ABCEEC00A10EE100A69465C
:1042700000F0B6FB6846FFF7A1FD694602A800F012
:1042800043FA9DED020AB8EE400ADFED6A0A80EEBD
:10429000201A694880ED001A46E0684991ED000A4D
:1042A000DFED640A20EE200ABCEEC00A10EE100A10
:1042B000694600F095FB6846FFF780FD694602A855
:1042C00000E03BE000F020FA9DED020AB8EE400A63
:1042D000DFED580A80EE201A584880ED001A23E0DE
:1042E000574991ED000ADFED530A20EE200ABCEE9B
:1042F000C00A10EE100A694600F072FB6846FFF72C
:104300005DFD694602A800F0FFF99DED020A00E09C
:1043100009E0B8EE400ADFED470A80EE201A48486F
:1043200080ED001A00E000BF00BF3F4A917810788E
:10433000FFF738F9FF20FFF7F5FC00E000BF00BFF2
:104340003B4890ED000ADFED3B0A20EE200ABDEE6F
:10435000C00A10EE102A3BA13E48FCF72DF8364863
:1043600090ED000ADFED330A20EE200ABDEEC00A10
:1043700010EE102A38A13C48FCF71EF82F4890EDAB
:10438000000ADFED2C0A20EE200ABDEEC00A10EE76
:10439000102A36A13948FCF70FF8294890ED000A99
:1043A000DFED240A20EE200ABDEEC00A10EE102A2E
:1043B00033A13748FCF700F83648027836A13A486E
:1043C000FBF7FAFF3948006801F044F841EC180B9C
:1043D00053EC182B36A13B48FBF7EEFF1D4A00219A
:1043E0000846FFF71BF9204A01210020FFF716F9C4
:1043F000224A02210020FFF711F9254A032100205B
:10440000FFF70CF9284A04210020FFF707F92D4A8D
:1044100005210020FFF702F903B0BDEC028B00BDBF
:1044200018080020B00800201A0800201E080020EC
:104430005C08002000007A44600800206408002026
:10444000680800206163633A20202020202535641D
:1044500020000000BA08002073706565643A2020CF
:104460002025356420000000D8080020646973749A
:10447000616E743A2025356420000000F6080020A3
:104480007265616C646973743A25356420000000BC
:1044900014090020280800206D6F64653A20202050
:1044A000202535640000000032090020700800203B
:1044B00064616E676C69616E673A2020252E3266F2
:1044C00000000000500900202148C07968B121484F
:1044D0004088401E00B21F4948800846B0F90200DB
:1044E000012834DA0420488031E01948007A68B1A4
:1044F00018484088401C00B2164948800846B0F968
:104500000200042823DD0120488020E010480079C3
:1045100068B110480088801F00B20E490880084624
:10452000B0F900003C2812DA542008800FE0084857
:10453000407960B107480088801D00B205490880B5
:104540000846B0F90000542801DD3C20088070477F
:10455000B00800201A080020134800883C2803D126
:104560000020124908701EE00F480088422803D13D
:1045700001200E49087016E00B480088482803D136
:1045800002200A4908700EE0074800884E2803D12F
:1045900003200649087006E003480088542802D129
:1045A00004200249087070471A0800201F080020E4
:1045B0000F484088012803D100200E49087016E0FA
:1045C0000B484088022803D101200A4908700EE0F8
:1045D00007484088032803D102200649087006E0F6
:1045E00003484088042802D103200249087070471C
:1045F0001A0800201E08002010B54FF4006115486D
:10460000FDF7E6F878B91448007802280BD10120AC
:1046100012498862C8620846C16A114800F00CFA63
:1046200000200E4908704FF480610A48FDF7D0F869
:1046300070B90948007801280AD108498862C8621F
:104640000846C16A064800F0F7F9002003490870DF
:1046500010BD000000080240290800207009002059
:10466000D0090020FDF7D4F8FEF7F8FFFEF7B4FC00
:10467000FEF798FDFEF7FEFEFEF708FEFEF7D4FEFD
:10468000FEF79AFEFEF748FE6420FCF793FFFEF764
:104690004DFCFEF76BFF0121154800F0CDF901211B
:1046A000144800F0C9F96FF0010013490968086166
:1046B000124909680861FFF721FD0F48FDF7AEFEBA
:1046C0000E48FDF7ABFE0E48FDF7A8FE0021084896
:1046D000FEF712FB00210748FEF70EFB00210948F8
:1046E000FEF768F803E0FFF7DBFBFFF75FFDFAE793
:1046F000D0090020380B0020180A0020A80A00204A
:10470000F00A0020600A002010B591F9002042F262
:10471000107312FB03F291F9013003EB4304C4EB75
:10472000C31302EBC30291F9023003EBC30404EBA1
:10473000031302EB830291F9033003EB830302EBD3
:10474000430291F904301A44026010BD10B52DEDFA
:10475000108B8C4890ED000A8B48D0ED000A80EE5B
:10476000201A8A4880ED001A864890ED000A884891
:10477000D0ED000A80EE201A864890ED000A21EE66
:10478000000A8248D0ED000A20EE200A824880ED1F
:10479000000A824890ED000A7D4890ED001AC0EEB4
:1047A000010A7C4890ED000A20EE800A7748D0ED9F
:1047B000000A20EE200A7A4880ED000A794890ED40
:1047C000000A734890ED001AC0EE010A714890ED9E
:1047D000000A20EE800A6D48D0ED000A20EE200A83
:1047E000714880ED000A7148048804EBD4714810C8
:1047F00000F007FD41EC1B0B9FED6D0B53EC102BF4
:1048000000F07AFB41EC190B6348006800F022FECF
:1048100041EC1A0B53EC192B00F01EFD41EC180B68
:1048200000F0C2FC644908606048048804EBD4715D
:10483000481000F0E6FC41EC1B0B9FED5D0B53ECC8
:10484000102B00F059FB41EC190B5548006800F0A3
:1048500001FE41EC1A0B53EC192B00F0FDFC41EC6E
:10486000180B00F0A1FC554908605048048804EB7F
:10487000D471481000F0C5FC41EC1B0B9FED4C0BB4
:1048800053EC102B00F038FB41EC190B4648006844
:1048900000F0E0FD41EC1A0B53EC192B00F0DCFCAE
:1048A00041EC180B00F080FC4549086008460068A0
:1048B00000F0BEFC41EC190B9FED420B53EC102BAA
:1048C00000F0CAFC41EC180B00F06EFC3F49087088
:1048D0003648048804EBD471481000F092FC41EC97
:1048E0001B0B9FED330B53EC102B00F005FB41EC41
:1048F000190B2648006800F0ADFD41EC1B0B254864
:10490000006800F0A7FD41EC1D0B2148006800F095
:10491000A1FD41EC1F0B53EC1F2B9FED2D0B51EC18
:10492000100B00F0E9FA41EC1E0B53EC1D2B00F0CC
:1049300093FC41EC1C0B53EC1B2B00F08DFC41EC69
:104940001A0B53EC192B00F087FC41EC180B00F00C
:10495000A1FA214908601A480068204948611B48AB
:1049600001781E480162154801681C48816114489D
:1049700001681A48C1611548017818484162BDECC8
:10498000108B10BD64080020680800206C0800200F
:10499000540800205008002048080020600800202B
:1049A000440800205C0800204C0800202C0800204F
:1049B0006E861BF0F92109403408002038080020D9
:1049C0003C080020FCA9F1D24D62603F4008002065
:1049D000FCA9F1D24D62503F70080020A0090020D0
:1049E00010B542F21072B0FBF2F252B20A704FF4FC
:1049F0007A72B0FBF2F20A23B2FBF3F403FB142247
:104A000052B24A706422B0FBF2F2B2FBF3F403FB41
:104A1000142252B28A700A22B0FBF2F2B2FBF3F413
:104A200003FB142252B2CA700A22B0FBF2F302FB5B
:104A3000130252B20A7110BD002203685A62074A7B
:104A4000B2FBF1F2521E0368DA62044AB2FBF1F2E1
:104A50000123C3EB520203685A63704740420F00C0
:104A6000017831B1012912D0022921D0032940D186
:104A700029E04168097831B10021426811700121B3
:104A800001700022427401218162C16232E0826AB7
:104A9000016A11448162826A81698A4205D381690F
:104AA00081620122027402210170816AC16221E0E7
:104AB0008168097821B1002281680A7003210170A0
:104AC000816AC16216E0D0E90912511A8162816AD5
:104AD000002903DC0121816201224274816AC162E2
:104AE000C168097821B10022C1680A7000210170F3
:104AF00000E000BF00BF704710B56148007888BB78
:104B00004FF480615F48FCF763FE90B14FF40041C1
:104B10005C48FCF75DFE60B101205B490870012232
:104B200041035A48FCF75CFE01205549496808706A
:104B3000A4E04FF480615348FCF74AFE98B94FF463
:104B400000415048FCF744FE68B902204E49087005
:104B5000002201034D48FCF743FE01204849496803
:104B600008708BE003E000204749087086E0444865
:104B70000078012827D14448007801280FD181020C
:104B80004048FCF725FE30B14FF400413D48FCF7AA
:104B90001FFE002872D10220394908706EE03A48A1
:104BA000007802286AD141023648FCF711FE30B97C
:104BB0004FF400413348FCF70BFE00285ED0022082
:104BC0002F4908705AE02E480078022825D12E4837
:104BD000007801280ED181022A48FCF7F9FD28B19E
:104BE0004FF400412748FCF7F3FDE8BB03202449BC
:104BF000087043E02448007802283FD14102214850
:104C0000FCF7E6FD28B94FF400411E48FCF7E0FD33
:104C100050B303201A49087030E01948007803287F
:104C20002CD11948007801280ED181021548FCF7D3
:104C3000CFFD28B14FF400411248FCF7C9FDB8B9C7
:104C400000200F49087013E00F48007802280FD1A8
:104C500041020C48FCF7BCFD28B94FF4004109485B
:104C6000FCF7B6FD20B100E008E000200449087020
:104C70000348407C10B100200149087010BD0000BD
:104C800070090020000002402908002000040240B2
:104C900010B52448007818BB2348007960B1012082
:104CA00022490870012241032148FCF799FD0120A7
:104CB0001C494968087034E01B48407960B1022003
:104CC0001A490870002201031948FCF789FD0120E8
:104CD00014494968087024E000201449087020E055
:104CE00010480078022812D10F48007918B90F48EF
:104CF0000078012806D00C48407990B90B4800781C
:104D000002280ED1012107488068017009E005489A
:104D10000078032805D10348407C10B100200149E8
:104D2000087010BD70090020B0080020290800207C
:104D30000004024010B520211C48FCF749FD012861
:104D400005D1012201021A48FCF74AFD05E00022C4
:104D50004FF480711648FCF743FD1648007850B9AF
:104D60001548007808B30020134908700120114944
:104D70004968087019E00F480078022809D10F48E7
:104D8000007890B100200D4908700320094908708F
:104D90000BE008480078032807D10948007820B1C3
:104DA0000020074908700349087010BD0004024044
:104DB00000080240A0090020840800208508002087
:104DC0008608002010B52448007818BB2348C07915
:104DD00060B1012022490870002201022148FCF73D
:104DE000FFFC01201C494968087034E01B48007A28
:104DF00060B102201A4908700122C1011948FCF76C
:104E0000EFFC012014494968087024E0002014498F
:104E1000087020E010480078022812D10F48C079AD
:104E200018B90F480078012806D00C48007A90B9CC
:104E30000B48007802280ED10121074880680170D4
:104E400009E005480078032805D10348407C10B1EB
:104E500000200149087010BDA0090020B008002002
:104E60002A0800200008024010B500290AD008785E
:104E7000002807D005487844FBF77CFF002801D0C4
:104E8000002010BD0248784410BD0000A6070000B5
:104E90009E07000021F00042A2F16052B2F5801F8F
:104EA00001F0004328BFD2F17F6C0BD95FEA001CF0
:104EB00043EAC20242EB507018BF704728BF20F08F
:104EC00001007047B2F5801FBCBF184670474FEA1B
:104ED000410C1CF5001F02D2084600F031BB70B532
:104EE00000F064FA00000089FFF7F6BF4FF00040C1
:104EF000A0F58000704700002DE9C04130B4DFF814
:104F0000A0C23CEA111418BF3CEA131400F0EC8074
:104F100081EA03051CEA111444EAD57418BF1CEA9F
:104F2000131500F0C780A4EB05044FF0004545EAD7
:104F3000C12145EAC32341EA505143EA525304F1E7
:104F40007F74994204F500344FEAC0204FEAC22230
:104F500008BF904200F09C804FEA13650FF24016A4
:104F6000765D4FEA134506FB05F7C7F1807706FB30
:104F700007F74FEAD737A7FB03687642C8F58038B2
:104F8000A7FB06CE38BFA8F1010807FB08E64FF0E3
:104F9000000EA6FB028CE6FB03CEDCF1000CCEF18A
:104FA000004E38BFAEF1010EA6FB0C584FF00007C3
:104FB0004FF00005E6FB0E87A1FB08C6A0FB07CE5D
:104FC00016EB0E0645F10005E1FB076515F1E04E15
:104FD0007EBFA4F580345FEA46066D4116F1800776
:104FE00045F100054FEA17274FEA066647EA0567CD
:104FF000A6F1DE46B6F1805F4FEA15251FD9384687
:1050000024F0010C05EBC471BCF1FE6F01EB0C1137
:1050100002D8F0BCBDE8008124425CBF01F5801ECF
:105020009EEAC47F02D4F0BCBDE80081244238D49B
:10503000F0BCA1F1C041BDE8004100F005BA4FEA63
:10504000D22242EA43524FEAD323A7FB02864FEA19
:10505000D02040EA415007FB03661EEA0E0F4FEADC
:10506000D12105FB026658BFA6EB0056B6EB0056F1
:105070004FEA520E4EEAC37E18EB0E0E56EB530E5D
:10508000BDD518EB02085E417F1C55F10005B6E75F
:105090004FF480154FF000074FF000064FF0000866
:1050A000ADE7F0BC4FF0000001F1C04101F000415C
:1050B000BDE8008111EA0C1F0CEA131500D00CE0CA
:1050C00013EA0C1F00F025804FF00000F0BC81EACD
:1050D000030101F00041BDE80081F0BCBDE80041E2
:1050E00081EA030100F0B0B9F0BCBDE8004170B541
:1050F00000F05CF9097EFC3E00F007B881EA03018C
:105100004FF0000001F00041704781EA030100F018
:105110009BB9F0BCBDE800414FF000002149704749
:10512000FFFDFBF9F7F5F4F2F0EEEDEBE9E8E6E46C
:10513000E3E1E0DEDDDBDAD8D7D5D4D3D1D0CFCDF3
:10514000CCCBCAC8C7C6C5C4C2C1C0BFBEBDBCBB2C
:10515000BAB9B8B7B6B5B4B3B2B1B0AFAEADACAB27
:10516000AAA9A8A8A7A6A5A4A3A3A2A1A09F9F9E01
:105170009D9C9C9B9A9999989797969595949393B3
:10518000929191908F8F8E8E8D8C8C8B8B8A89894A
:1051900088888787868585848483838282818180CD
:1051A0000000FF070000F87F4FEA1153A3F580636A
:1051B000D3F11E03A8BFD3F1200C08DB4FF000424F
:1051C00042EAC12252EA505232FA03F070470942D1
:1051D0000BD4102BC4BF0020704703F5787CBCF1C2
:1051E000FF3F05D04FF0FF3070474FF00000704791
:1051F00070B500F0DBF800BF4992248000207047B2
:10520000F0E710F0004248BF4042B0FA80F310FAD5
:1052100003F10AD0C3F11D0303F580634FEA415047
:1052200002EB035202EBD12170474FF000007047B0
:10523000B0FA80F310FA03F10AD0C3F11D0303F5AD
:1052400080634FEA41504FEA035202EBD12170478D
:105250004FF0000070470000DFF848C170B51CEA4D
:10526000111E1EBF1CEA13159EEA0C0F95EA0C0FC7
:1052700000F06F8081EA030423EA4C134EEAD47EE7
:1052800021EA4C1141F4801143F48013AE44A1FB98
:10529000024CA0FB0365AEF17F7E361955EB0C0581
:1052A000A1FB034C4CF10003A0FB021C16EB0C0607
:1052B000654153F10003094218BF46F0010613F49B
:1052C000007F0BD14FEA03314FEA0530340341EA46
:1052D000155140EA16506FF003020AE04FEAC3216D
:1052E0004FEAC520F40241EA555140EA56506FF0AA
:1052F000020202EB2E4201EB025585EACE710AD082
:105300005FEA440C18BF24F0004450F1000041F162
:10531000000120EAD47040F2FE7C624500D270BDEC
:10532000A84214BF4FF080444FF04044002E08BF05
:105330000024BEF1806FA8BFA1F1C041BDE870405C
:1053400080F282804FF0000001F1C04101F0004185
:1053500070479EEA0C0F0CEA131518BF95EA0C0F64
:1053600006D04FF0000081EA030E0EF0004170BD40
:1053700000F01CF88900013E00F007B800F009B801
:105380004FEA430C5FEA5C5C08D081EA030100F05D
:105390005BB84FEA410C5FEA5C5CF6D14FF000006D
:1053A000014970470000FF070000F87F0EF1020E70
:1053B0002EF0030E5EF8046B364205D4012A43EB4F
:1053C000030515F5001F12D8012841EB010C1CF54F
:1053D000001F0CD80ED14FEAD17C15F5001F0CEB45
:1053E0004C0C0CF1020C08BF4CEBD37C04E04FF0EA
:1053F000080C01E04FEAD37C0CEB4C0526FA05F6CD
:1054000006F00706B6F1040C06D20EEB860CBDE8DA
:1054100070404CF0010C6047DFE80CF0090B020211
:105420004FF000414FF00000A1F5002170BD19467A
:105430001046012851EB010418BFD4F5001484BFB5
:10544000002001F0004170BD0808A0F500114FEAEE
:105450003101704743004FEAD30C4FEA3C0C434004
:105460001FBF40070CF1605113F0FE4F70471CF056
:10547000006F03D100200CF0004170470CF0004396
:1054800043EA507010B540EACC0000F00EF800BFBF
:10549000000000924FEA0001FFF7D6BF4FF0004135
:1054A0004FF00000A1F5002170470EF1020E2EF022
:1054B000030E5EF8044B244204D44FEA4102B2F1D9
:1054C0007F4F11D84FEA4003B3F17F4F0CD80ED174
:1054D0004FEAD07CB2F17F4F0CEB4C0C0CF1020C7C
:1054E00008BF4CEBD17C04E04FF0080C01E04FEA20
:1054F000D17C0CEB4C0324FA03F404F00704B4F160
:10550000040C06D20EEB840CBDE810404CF0010CEC
:105510006047DFE80CF0070802024FF00040A0F5FA
:10552000800010BD0846420018BFD2F1807288BFCB
:1055300000F0004010BD4FF04070E1EE100A7047DF
:10554000FF2141EAD050C0057047FBF790B9000039
:105550000000000000000102030406070809000023
:10556000000001020304000002400000000000A04F
:105570000000000005400000000000C8000000001E
:105580000C4000000000409C00000000194000009A
:105590000020BCBE0000000034400000BFC91B8ECC
:1055A00000000004B5400000504BCFD06607E2CFAA
:1055B000010000006C4100003E8251AADFEEA734DA
:1055C00001000000D9420000DCB5A0E23A301F978C
:1055D000FFFFFFFFB4450000FD25A0C8E9A3C14FB0
:1055E000FFFFFFFFFF3F0000000000800000000001
:1055F000FF3F000000000080000000003856000857
:1056000000000020B0080000C40100089C5B0008F6
:10561000B008002030090000200200081C00000033
:1056200043000000F8FFFFFF0C0000000E00000028
:105630000F0000002E00000091422F1A0702111BDC
:10564000147F021116242A7F2A121662640813237B
:10565000263649552250430503341C22411C412261
:105660001C2A15083E08141A0806320823A0602ACE
:105670000801211A600B11162010080402263E5161
:1056800049453E1C427F400515615149461621415E
:10569000454B31161814127F10162745454539160B
:1056A0003C4A4949301C017109621636494949365C
:1056B00026064949291E4336362A56062B081478F1
:1056C0002A1401297E131408160201510906163204
:1056D0004959513E167C1211127C3A7F3C163E41CC
:1056E0004141221A7F053A1C1212411E7F09090905
:1056F00001181449497A1A7FA11A7F421A7F4E1E57
:105700002040413F0112295B1B7F400111167F029F
:105710000C027F3E7F0408107F483A3E3C1A060C7C
:105720001C51215E0C141929461A465412311601D7
:10573000017F01011A3F35123F1E1F2040201F0C20
:105740001A380C1663140814631607087008071932
:10575000EF234543198B211B552A0219781A417DE5
:1057600016040201020429712240290B111620544B
:10577000545478167F484444382E38444444200614
:1057800013487F1A3818121816087E0901021D18CE
:10579000A4A4A4E425080404781B447D3B1D408098
:1057A000847D5F341028441B417F121C7C04181E2A
:1057B0003A7C242948123816FC242424181A180587
:1057C0003AFC1812081A4854122016043F4440208C
:1057D000163C4040207C1A1CC01A1C0C1430403C63
:1057E0002B44284F161CA0A0A07C3F4464544C447A
:1057F0001401011372F84333301C100C0603912C72
:1058000040C0780319672A0403212D7088FC0829F9
:10581000261820FF211E14F008F033E0184D211C3B
:10582000031E11338870000C101E21232419272118
:105830001010160E45E01804021C071820EA3D025D
:105840000418E0692C20180707174080F0804040BA
:105850003F0202010F01022842F01D0101011F0455
:10586000912B80B066B1191D2901913A30CE492C97
:10587000146018043C6018061D1EE0100808107221
:105880001F0F102020100FF05310F83620203F205B
:10589000203C700808C21E3028242221441E3008F3
:1058A000888848082E1820202011CC3BC0203227A1
:1058B000070424243F241AF8202308084B19212028
:1058C00036E0108888184B0F11101E380808C838A9
:1058D0002021523F1A702E29608F1C222121221C68
:1058E00090111D31222211901961CAC0C26A80C66E
:1058F00059081C40201050170102040810204A408B
:1059000001114A04012119152A403219251B0402EC
:10591000F21B7048D13AF0501A360F1EC030C8281A
:10592000E87028080718272423140B6F2A387E28CC
:105930000D203C23020227382008F888889F4B203E
:105940003FF01BC0303F1B083830191019781B0876
:10595000F80F194039201B100F103E8888E80810F6
:1059600010AC23201810112A035E29402238294048
:105970002C221E024019A41809F808203F21010119
:1059800021252A0852298129424149112EC08080AF
:10599000807F0E2FF888C0281808501C0126382F49
:1059A0002940292F29801B20301012F81AF81413CF
:1059B000203F190229204B30C0601A2074123F4B3F
:1059C000E010B06B0F10B029D01AF030198022010E
:1059D00079203F18242438504FC04C888870C01458
:1059E0000C30204B7088C11738202121221C3A1816
:1059F0009F4A188239A049D0112A1F90121F2408EB
:105A000078881BC838151C07380E60191A1AF82038
:105A10001114033C0714073C0348140818688080DD
:105A200068180820302C03032C30200838C82F5960
:105A300050298F29102F203826212020681145FE5B
:105A4000020202257F4040401A0CE0611C0106382A
:105A50000B191D42FE191D527F1A04120211045A1D
:105A600080011930D91D3916211808192422222243
:105A70003F20AB390F115F3F112020110E21311A49
:105A80000E104B2011104B88F8102A10B359401AF1
:105A90001F3F2B22130F16F0888888181A20D02950
:105AA000D1497A21176B94949493603960190F4C03
:105AB000203F21F354809898793059121AC0271941
:105AC000D1193039311F203F24022D30212A0812EC
:105AD000893069D7294B2903190BC96079A019BFEF
