:020000040800F2
:10000000F011002089020008193100089B2A00081D
:100010001531000893150008F136000800000000B3
:100020000000000000000000000000000332000893
:100030009715000800000000013200080532000892
:10004000A3020008A3020008A3020008A3020008FC
:10005000A3020008A3020008A3020008A3020008EC
:10006000A3020008A3020008A3020008A3020008DC
:10007000A3020008A3020008A3020008A3020008CC
:10008000A3020008A3020008A3020008A3020008BC
:10009000A3020008A3020008A3020008A3020008AC
:1000A000A3020008A3020008A3020008A30200089C
:1000B000D5320008E5320008A3020008A3020008B8
:1000C000A3020008A3020008A3020008A30200087C
:1000D000A3020008A3020008A3020008A30200086C
:1000E000A3020008A3020008A3020008A30200085C
:1000F000A3020008A3020008A3020008A30200084C
:10010000A3020008A3020008F5320008A3020008B9
:10011000A3020008A302000805330008A302000898
:10012000A3020008A3020008A3020008A30200081B
:10013000A3020008A3020008A3020008A30200080B
:10014000A3020008A3020008A3020008A3020008FB
:10015000A3020008A3020008A3020008A3020008EB
:10016000A3020008A3020008A3020008A3020008DB
:10017000A3020008A3020008A30200080000000078
:10018000A3020008A302000800F002F800F06CF8D7
:100190000AA090E8000C82448344AAF10107DA45E2
:1001A00001D100F061F8AFF2090EBAE80F0013F0C8
:1001B000010F18BFFB1A43F0010318476C4B0000F6
:1001C0008C4B00000A444FF0000C10F8013B13F078
:1001D000070408BF10F8014B1D1108BF10F8015BA0
:1001E000641E05D010F8016B641E01F8016BF9D193
:1001F00013F0080F1EBF10F8014BAD1C0C1B09D1EA
:100200006D1E58BF01F801CBFAD505E014F8016B5B
:1002100001F8016B6D1EF9D59142D6D370470000ED
:100220000023002400250026103A28BF78C1FBD8FF
:10023000520728BF30C148BF0B607047662904F0E1
:100240001B85642900F0F480002070471FB504F07E
:100250000EFD00F061FC04000020002104F042FBD0
:10026000E0601FBD10B510BD00F056FD1146FFF750
:10027000EDFF03F09DFF00F074FD03B4FFF7F2FF04
:1002800003BC00F0B7FD000009488047094800475B
:10029000FEE7FEE7FEE7FEE7FEE7FEE7FEE7FEE736
:1002A000FEE7FEE704480549054A064B7047000093
:1002B000C132000889010008F00B0020F011002075
:1002C000F00D0020F00D002053EA020C00F06980D0
:1002D0002DE9F04B4FF00006002B1FBFB3FA83F55A
:1002E00003FA05F424FA05F65E4012BF1643B2FA8B
:1002F00082F502FA05F4C5F120051EBF22FA05FCBD
:1003000044EA0C04203556EA044C4FEA144418BF62
:10031000641C4FF000084FF00009904271EB030C91
:1003200039D3002919BFB1FA81F701FA07F6B0FAFB
:1003300080F700FA07F6C7F120071EBF20FA07FC76
:1003400046EA0C062037B6FBF4FCA7EB0507103F86
:1003500007F01F0BCBF120060CFA0BFB2CFA06F66C
:1003600044BFB3460026202FA4BF5E464FF0000BCB
:100370005BEA060C08BF4FF0010B19EB0B09ABFB56
:10038000027C48EB0608C01B06FB02CC0BFB03CC2F
:1003900071EB0C01C1E70B46024641464846BDE8F9
:1003A000F08B13B54FF000004FF00001AFF3008069
:1003B000BDE81C40704700000FB41CB5074B06AAEF
:1003C0007B4469460090059800F08DFB002069464B
:1003D00000F09CFB1CBC5DF814FB0000490700000A
:1003E00070B5044685690068C10601D5302600E075
:1003F0002026C00707D070BDD4E9012130469047C0
:10040000206A401C20626D1EF6D570BD70B5044692
:1004100085690078C00707D170BDD4E9012120208B
:100420009047206A401C20626D1EF6D570BD00000A
:100430002DE9F0410646002410687529314616A5BD
:1004400010D0AFF30080002802DA404213A507E085
:1004500031688A0701D512A502E0490704D511A524
:10046000012401E0AFF3008000210A2206F12407F5
:1004700009E0B0FBF2FCB0FBF2F302FB1C003030F1
:1004800078541846491C0028F3D123462A463046A2
:10049000BDE8F04100F0B9B8000000002D000000F8
:1004A0002B000000200000002DE9F0474FF0000A6B
:1004B00089460446C0F820A02046E1688847002805
:1004C00076D0252806D0D4E901219047206A401C27
:1004D0002062F1E7E168204600258847C4F81CA0A7
:1004E00006460027C4F818A02A2E09D0304603F08B
:1004F00095F938B304EB8708303EC8F8186019E066
:1005000059F8041B204604EB87029161E168884793
:10051000012F064618D1E069002820DA25F02005D1
:100520001DE0D8F8180000EB800006EB40003038E2
:10053000C8F818002046E1688847064603F06EF9BF
:100540000028EED1012F0AD02E2E08D12046E168D6
:1005500088477F1C0646022F45F02005C4DBA069B2
:10056000002803DA404245F00105A061E80701D008
:1005700025F01005B6B1A6F14100192802D82036A1
:1005800045F400654A463146204625604D46FFF752
:1005900055FE58B1012806D0ED1D25F0070000F1E9
:1005A000080989E704E005F1040985E730468AE790
:1005B000206ABDE8F0874FF0000200B5134694466C
:1005C0009646203922BFA0E80C50A0E80C50B1F1AB
:1005D0002001BFF4F7AF090728BFA0E80C5048BFBF
:1005E0000CC05DF804EB890028BF40F8042B08BF5D
:1005F000704748BF20F8022B11F0804F18BF00F859
:10060000012B70477047704770472DE9F0470D4642
:1006100099469246044600F124080168880604D5EC
:10062000E06921F01001216000E00120A84201DD15
:10063000471B00E00027A1697A1902EB0900081A9C
:10064000A0612078C00602D42046FFF7C9FE00262C
:1006500008E0D4E901211AF806009047206A401CFE
:10066000761C20624E45F4DB2078C0060AD5204671
:10067000FFF7B6FE06E0D4E9012130209047206A5A
:10068000401C2062381EA7F10107F4DC07E0D4E922
:10069000012118F805009047206A401C2062281E9E
:1006A000A5F10105F3DC2046FFF7B0FE2078000637
:1006B00002D50220BDE8F0870120FBE770472DE955
:1006C000FF4F0C461E464FF0FF378BB0D2E90001BA
:1006D000DDF860800A908A46C1F30A5505B93D46A7
:1006E000002108464FF00000BAF1000F00F440006E
:1006F00005DA00EB80004FF4400101EA50004FEAB8
:100700009059B9F1010F00DDB9460A9850EA4A0044
:100710000ED044F61050A5F2FF3545432F14B8F122
:10072000000F1ED07542291E1EDDC9F100021CE01B
:10073000B8F1010F4FF0000001D0302103E0F24387
:1007400005E02154401CB042FBDB30460022002172
:1007500021540B99C1F80880C1E900200FB0BDE811
:10076000F08FBD1B6D1CDEE74A4600DA694206A821
:1007700000F05CFA06AB93E8070003AB83E80700E0
:1007800050460A9900F03DFB8DE80700A0F50050A7
:100790001F3800900398002D0ADD42F21F014A46DF
:1007A0000844002303A90390684600F0A6FD09E071
:1007B000A0F500504A461F38002303A9039068465D
:1007C00000F0B0FD8DE807000004000C03D04FF0EE
:1007D000FF30410800E01046B8F1000F03D00022BE
:1007E000009215461EE0751E05D400F099F93032CE
:1007F00062556D1EF9D5B3460122084302D000228E
:100800007F1C04E02078302801D100227F1E002ABE
:10081000099784D01DE0112D07DA00F081F93032FC
:1008200062556D1C50EA0102F5D1084302D00098D0
:10083000C8B10EE00021681E05E0235C625C6354D1
:100840002254401E491C8142F7DBAB46A81B401EC8
:100850000990002004F80B000B98099AC0F8088052
:10086000C0E9002B7AE711264FF0000857E72DE981
:10087000F04F88460446D21D22F0070191B0D1E91D
:100880000001CDE90A0102F095FF02460B98C00F66
:1008900001D02D2007E02068810701D52B2002E040
:1008A000202101EAC000032A099001D0072A05DBB4
:1008B00003464146204600F079F90BE12078800696
:1008C00001D5E06900E00620B8F1650F814606D049
:1008D000B8F1660F18D0B8F1670F70D131E0002081
:1008E000B9F1110F009001DB112301E009F10103BF
:1008F0000AAA01A90CA8FFF7E2FEDDE90C700026A8
:1009000009F10105834647E001204B4600904FF076
:1009100000470AAA01A90CA8FFF7D1FEDDE90DB036
:100920000C995D46002610B909F101000D18B9EBCC
:10093000050003D4C0F1FF3609F10105A5EB09005C
:100940002BE0B9F1010F01DA4FF001090020B9F1F4
:10095000110F0090484601DD112300E003460AAA6A
:1009600001A90CA8FFF7ABFEDDE90C704D4600268F
:100970008346207800070AD4AB4500DA5D4601A81B
:10098000012D04DD411911F8011C302907D04F4514
:1009900002DA17F1040F04DA012082460FE06D1E1F
:1009A000EEE7002F02DCED1B3E4403E0781CA8427A
:1009B00000DD7D1CB81B00F1010A4FF000472078D4
:1009C000000703D4AA4501DB4FF0FF3A0021B7F13D
:1009D000004F0DF143088DF8431024D002202B2343
:1009E000002F01DA7F422D230A21021EA0F101000F
:1009F00000DC5FB197FBF1FC97FBF1F201FB1C7C83
:100A000017460CF1300C08F801CDEEE7A8F1010013
:100A100003702188090501D5452100E06521A0F179
:100A2000010800F8011C09980FA9A1EB0807FF1D98
:100A300000B10120411901EBEA70A1693844081A9C
:100A4000401EA0612078C00602D42046FFF7C8FCF3
:100A5000099828B1D4E901219047206A401C2062FE
:100A60002078C00622D52046FFF7BAFC1EE0002EF3
:100A700004DBB34502DD01A8805D00E03020D4E94D
:100A800001219047206A401C2062761CAAF10100D7
:100A90005FEA000A0AD100F03FF8C0680168405CD4
:100AA000D4E901219047206A401C2062281EA5F14C
:100AB0000105DCDC07E0D4E9012118F8010B9047BF
:100AC000206A401C2062381EA7F10107F3DC204693
:100AD000FFF79CFC032011B041E6000001694A1CAD
:100AE00002610878704700B58FB0CDE9013100216F
:100AF000059105497944CDE9031011466846FFF791
:100B0000D3FC0FB000BD0000E5FFFFFF0A6802F84C
:100B1000010B0A607047000000487047B00B0020CE
:100B200030B5B0F10A024FEA900E71F100034EEABF
:100B3000817EB0EB0E0061EB91014FEA101E4EEA90
:100B4000017E10EB0E0041EB11114FEA102E4EEA20
:100B5000016E10EB0E0041EB11214FEA104E4EEAF0
:100B6000014E10EB0E0041EB1141401841F1000124
:100B70004FEAD00040EA41704FEAD10110EB800506
:100B80004FEA810444EA907444EB01046D1944EB8C
:100B90000404521BA3414FF0000348BF0A3200D5A2
:100BA00030BD401C41F1000130BD00002DE9F04195
:100BB0001F46044603260168072A01F4006004DB8F
:100BC00008B116A505E016A503E008B115A500E0DB
:100BD00015A521F010002060A069C01EA0610FB112
:100BE000401EA0612046FFF7FBFB4FB1D4E9012175
:100BF00038469047206A401C2062C01C206206E0F4
:100C0000206AFAE7D4E9012115F8010B9047761E16
:100C1000F8D22046FFF7FAFBBDE8F0814E414E00C6
:100C20006E616E00494E4600696E66002DE9F04720
:100C3000814616468AB0354878440DC88DE80D00C7
:100C400032487844801C03AC0DC884E80D0041F69E
:100C50009B300844372190FBF1F290FBF1F5A5F1B0
:100C6000800501FB12041B3C02D56442012000E018
:100C70000020DFF898A080460027FA44AAF1BE0AB7
:100C80000EE0E0070AD03246684607EB4701012331
:100C90000AEB810100F046FB8DE8070064107F1C21
:100CA000002CEED1194F7F44AE3F19E0E80715D074
:100CB00007EB04100DF1180A90E80E008AE80E0008
:100CC000C068F04201D1981908903246012306A964
:100CD00003A800F027FB03AB83E807006D10641C3A
:100CE000002DE3D14FF0010332466946B8F1000F01
:100CF00003A802D000F001FB01E000F013FBC9E9FA
:100D00000001C9F808200AB0BDE8F087D44000000F
:100D100000487047900B00207546FFF7F9FFAE467C
:100D200005006946534620F00700854618B020B5F7
:100D3000FFF7B8FABDE820404FF000064FF000077B
:100D40004FF000084FF0000B21F00701AC46ACE873
:100D5000C009ACE8C009ACE8C009ACE8C0098D46E0
:100D6000704710B50446AFF300802046BDE8104040
:100D7000FFF783BA4FF0013C50F8042B51F8043BC5
:100D80009A4221D1A2EB0C03934313EACC1317D15F
:100D900050F8042B51F8043B9A4215D1A2EB0C03F6
:100DA000934313EACC130BD150F8042B51F8043BB6
:100DB0009A4209D1A2EB0C03934313EACC13DBD084
:100DC0004FF00000704700BFD01A01BAB1FA81F1AC
:100DD00001F0180122FA01F0CB40C1F12001DBB291
:100DE000C0B2C01A2CFA01F3D11A914311EAC3110F
:100DF000E6D1704701491820ABBEFEE7260002008D
:100E000070475FEA400C08BF91F0000F4FEA8C2357
:100E10004FEAC12243EA51514FEA1C5018BF00F576
:100E2000F0404FEA300018BF41F000415FEA6C5CCF
:100E300000F02980BCF1FF3F08BF40F080407047C0
:100E4000130C06BF12044FF0100C4FF0000C130EE1
:100E500004BF12020CF1080C130F04BF12010CF1B5
:100E6000040C930F04BF92000CF1020CD30F04BFCB
:100E700052000CF1010C11464FF00002A0F11F00CE
:100E8000A0EB0C00704711F0004F08BF704731F025
:100E900000413FF4D5AF0B0C06BF09044FF0100C16
:100EA0004FF0000C0B0E04BF09020CF1080C0B0FE5
:100EB00004BF09010CF1040C8B0F04BF89000CF175
:100EC000020CCB0F04BF49000CF1010CCCF1200344
:100ED000A0EB0C0022FA03F302FA0CF241EA030140
:100EE00000F10100704720F07F4C80EA030023F0FE
:100EF0007F47ACEB070303F57C5300F0004003F1A0
:100F0000FF032DE980494FEA154B09B44FEA14431A
:100F100025EA0B4E24EA03480FF2042606EB1327BA
:100F200049083E785FEA320203FB0667C7F500070F
:100F300007FB06F64FEA54374FEAD64606F102069B
:100F400007FB066CCCF1005C4FEA1C472CEA074C0F
:100F500007FB06F40CFB06F504EB15464FEA961664
:100F600034BF00204FF000404FEAD13706FB07FCAA
:100F70004FEA1C4C0CFB0BF7D21B03FB0CF761EB8D
:100F800007010CFB0EF7B0EB074072EB17420CFBAE
:100F900008F734BFA2EB0742B2EB074261EB1741FF
:100FA0004FEA0C444FEA910706FB07FC4FEA1C4C42
:100FB0000CFB0BF7B0EBC74072EB573203FB0CF79F
:100FC00034BFA2EBC742B2EBC74261EB57310CFB17
:100FD0000EF7B0EBC70072EB57720CFB08F734BF8B
:100FE000A2EBC702B2EBC70261EB5771039F4FEA56
:100FF000816141EA921104EBCC044FEAD1374FEA08
:10100000826206FB07FC42EA90124FEA80604FEAD8
:101010001C4C0CFB0BF7D21B03FB0CF761EB07011D
:101020000CFB0EF7B0EB074072EB17420CFB08F716
:1010300034BFA2EB0742B2EB074261EB17414FEA24
:101040008C554FEA910704EB9C2406FB07FC4FEA02
:101050001C4C0CFB0BF7B0EBC74072EB573203FB99
:101060000CF734BFA2EBC742B2EBC74261EB57317A
:101070000CFB0EF7B0EBC70072EB57720CFB08F7D6
:1010800034BFA2EBC702B2EBC70261EB577115EB9D
:101090004C254FEA816141EA92114FEA82624FEAA0
:1010A000D13742EA901206FB07FC44F100044FEAF4
:1010B00080604FEA1C4C0CFB0BF7D21B03FB0CF7B8
:1010C00061EB07010CFB0EF7B0EB074072EB174228
:1010D0000CFB08F734BFA2EB0742B2EB074261EB0F
:1010E000174115EB1C154FEA813141EA92414FEA55
:1010F000823242EA90424FEA80304FEA0C7644F165
:10110000000448EA03434EEA0B484FF0000EB2EBEE
:10111000080C71EB030724BF624639464EEB0E0EF6
:101120004FF0000B0018524149414BEB0B0BB2EB57
:10113000080C71EB03077BF1000B24BF62463946B4
:101140004EEB0E0E4FF0000B0018524149414BEB95
:101150000B0BB2EB080C71EB03077BF1000B24BF08
:10116000624639464EEB0E0E51EA020718BF46F0B2
:10117000010616EB0E7655F1000254F1000103D57D
:10118000BDE88901BDE80088BDE88901BDE80048E7
:10119000B619524141EB0101A3F101037047808070
:1011A0007F7E7D7C7B7A79787776767574737271C1
:1011B00071706F6E6E6D6C6C6B6A6A696868676679
:1011C00066656464636362616160605F5F5E5E5D0B
:1011D0005D5C5C5B5B5A5A5959585857575656557F
:1011E00055555454535352525251515050504F4FE1
:1011F0004F4E4E4D4D4D4C4C4C4B4B4B4A4A4A4931
:101200004949484848474747474646464545454473
:101210004444444343434342424242414141002B00
:101220009C4630D477002BD01CB54FEA370703B467
:101230004FF010004FF01001BAF1000F06D0BCF1D2
:10124000000FDCBF40F0080040F008014FF0000044
:101250000FBCBDE810400BF1010BBBF1010F08BF43
:101260005FEA170722BF12F1010211F101014FF0ED
:10127000004143F1000300F0004043EA00007047E2
:10128000F9D35708D0E746EA064613F1400F4FEA74
:1012900016461FDD13F1200FDFBF16430A4600215B
:1012A00020335B42BED0C3F1200746EA064602FA6D
:1012B00007F74FEA164646EA0706C3F1200722FA67
:1012C00003F201FA07F721FA03F14FF0000342EAB3
:1012D0000702A7E746EA020646EA06464FEA16462E
:1012E00046EA0106BCBF46EA0646360C4FF000034C
:1012F0004FF000024FF0000194E72DE9804C9A4630
:10130000934670B491E8380007C831EA400C48BFF2
:1013100034EA430C03D5FFF7E6FDFFF780FFF0BC8E
:10132000BDE8008C2DE9804C9A46934670B491E854
:10133000380007C810F0804F08BF13F0804F03D16A
:1013400000F005F8FFF76BFFF0BCBDE8008C20F063
:101350007F4780EA030023F07F4C07EB0C03A3F5E3
:101360007C5300F00040A3F1FE0392F0000F00F068
:10137000B38095F0000F00F077802DE901494FEA26
:1013800011404FEA144621EA004800FB06FC24EA1B
:10139000064708FB06F607FB08F800FB07F718EB03
:1013A00006484CEB164C4FEA124B18EB07484FEA35
:1013B00015464CEB174022EA0B4E0BFB06FC25EAC8
:1013C00006470EFB06F607FB0EFE0BFB07F71EEBB0
:1013D000064E4CEB164C4FF000061EEB074E4CEB46
:1013E000174B18EB0B0840F1000018EB0E0B58EBF5
:1013F000000840F100008F1A4FF000013CBFC943C4
:10140000661B14BFB5EB040C00213CBFC943F61B9F
:101410004FEA17444EEA8E0E27EA04454FEA1C476E
:1014200004FB07622CEA074C05FB07F70CFB05F6EB
:1014300004FB0CFC16EB074642EB174216EB0C467E
:1014400042EB1C421BEB060658EB0202414146EA06
:101450009E0601D5BDE80189B619524141EB010153
:10146000A3F10103BDE801894FEA14454FEA114792
:1014700024EA054621EA074C05FB07F406FB07F7BB
:101480000CFB06F105FB0CFC11EB074144EB174488
:101490004FEA124711EB0C4144EB1C4422EA074C83
:1014A00005FB07F206FB07F70CFB06F605FB0CFC39
:1014B00016EB074642EB174216EB0C4642EB1C4577
:1014C0006A1854F1000148BF7047B619524141EB08
:1014D0000101A3F10103704795F0000F37D04FEAE7
:1014E00011424FEA144721EA024624EA074C02FB64
:1014F00007F106FB07F70CFB06F402FB0CFC14EBF0
:10150000074441EB17414FEA154714EB0C4441EBFC
:101510001C4125EA074C02FB07F506FB07F70CFB0D
:1015200006F602FB0CFC16EB074645EB174516EBDF
:101530000C4645EB1C42121951F1000148BF70479F
:10154000B619524141EB0101A3F1010370474FEA83
:1015500014454FEA114724EA054621EA074C05FBEA
:1015600007F106FB07F70CFB06F24FF0000605FB40
:101570000CFC12EB074241EB174112EB0C4251EB12
:101580001C4148BF7047921841EB0101A3F10103D0
:10159000704700BFFEE77047002105E0002200E031
:1015A000521C012AFCDB491C8142F7D3704772B6FA
:1015B00000BFFEE770B5044600F018F90646254660
:1015C000681C10B104480078054400BF00F00EF913
:1015D000801BA842FAD370BDB8080020F8B50246B7
:1015E0000B460025002400200021D6E0012606FA43
:1015F00001F51E6806EA0504AC4274D11E7906F0B6
:101600000306012E04D01E7906F00306022E13D124
:1016100090684F000326BE40B0434F00DE68BE40D6
:1016200030439060506801268E40B0431E79C6F367
:1016300000168E40304350601E7906F00306032EDC
:1016400009D0D0684F000326BE40B0434F009E68CB
:10165000BE403043D0601E7906F00306022E13D13F
:10166000CF0802F1200656F827004E07F70E0F2686
:10167000BE40B0434F07FF0E1E69BE403043CF0847
:1016800002F1200646F8270010684F000326BE40EE
:10169000B0431E7906F003064F00BE403043106091
:1016A0005E6806F44036002E76D000BF0026009615
:1016B0003C4E366846F480463A4F3E603E463668B9
:1016C00006F48046009600BF00BF374E8F0856F8DC
:1016D00027008E07370F0F26BE40B043334EB2426D
:1016E00002D1002624E057E0314EB24201D101265A
:1016F0001EE0304EB24201D1022619E02E4EB24217
:1017000001D1032614E02D4EB24201D104260FE090
:101710002B4EB24201D105260AE02A4EB24201D137
:10172000062605E0284EB24201D1072600E0082631
:101730008F073F0FBE4030431B4E8F0846F82700EF
:10174000224E3068A0435E6806F4801606B120433E
:101750001E4E3060361D3068A0435E6806F40016E9
:1017600006B12043194E361D3060184E361F3068C2
:10177000A0435E6806F4003606B12043134E361FC0
:101780003060361F3068A0435E6806F4803606B1CC
:1017900020430E4E083E3060491C1029FFF426AF4E
:1017A000F8BD000044380240083801400000024003
:1017B0000004024000080240000C024000100240F9
:1017C0000014024000180240001C0240083C014086
:1017D000024613690B400BB1012000E00020704766
:1017E0000AB1816101E00B04836170470148006820
:1017F00070470000B00800200348006803490978DA
:101800000844014908607047B0080020B80800206B
:1018100010B50D48006840F400700B490860084698
:10182000006840F4806008600846006840F48070FA
:101830000860032000F0A2F80F2000F007F800F085
:101840002BF8002010BD0000003C024070B504469B
:101850000E4800784FF47A71B1FBF0F00C4909683A
:10186000B1FBF0F5284600F005FC08B1012070BD81
:10187000102C07D200222146501E00F041F80548E6
:10188000046001E00120F2E70020F0E7B808002042
:10189000BC080020B408002008B500BF002000905C
:1018A0000E48006840F480400C4908600846006813
:1018B00000F48040009000BF00BF00BF00200090F7
:1018C000081F006840F08050091F08600846006843
:1018D00000F08050009000BF00BF08BD44380240B7
:1018E00001460846002809DB00F01F0301229A4048
:1018F00043099B0003F1E023C3F8002100BF7047B8
:101900002DE9F05F80460D461646002701F06AFF7C
:10191000074639462A46334601F00700C0F1070A58
:10192000BAF1040F02D94FF0040A01E0C0F1070A2E
:10193000D14600F1040ABAF1070F02D24FF0000AB3
:1019400001E0A0F1030AD4464FF0010A0AFA09FAAD
:10195000AAF1010A0AEA020A0AFA0CFA4FF0010B8C
:101960000BFA0CFBABF1010B0BEA030B4AEA0B047D
:101970002146404601F03EFFBDE8F09F00BF00F069
:101980000702064B19684FF6FF031940044B0B433F
:1019900043EA0221014B196000BF70470CED00E0E3
:1019A0000000FA0570B504460D460CB9012070BD63
:1019B0005848006800F00700A84209D255490D7048
:1019C0000846006800F00700A84201D00120EEE7B9
:1019D000207800F0020002281DD1207800F00400D9
:1019E000042805D14C48006840F4E0504A4908609A
:1019F000207800F00800082805D14748006840F426
:101A00006040454908604448006820F0F000A16843
:101A1000084341490860207800F00100A8B36068DD
:101A2000012807D13C4808380068C0F34040B8B9E5
:101A30000120BCE76068022802D06068032807D153
:101A4000354808380068C0F3406048B90120AEE767
:101A5000314808380068C0F3400008B90120A6E703
:101A60002D48006820F00300616808432A49086097
:101A7000FFF7BCFE064609E0FFF7B8FE801B41F207
:101A80008831884202D9032091E707E022480068A4
:101A900000F00C006168B0EB810FEDD11D480068CB
:101AA00000F00700A84209D91A490D7008460068DD
:101AB00000F00700A84201D0012078E7207800F06C
:101AC0000400042807D11448006820F4E050E168BD
:101AD000084311490860207800F00800082808D160
:101AE0000D48006820F46040216940EAC1000A49BD
:101AF000086000F019F808490968C1F30311074AA2
:101B0000515CC8400649086006480068FFF79EFE21
:101B100000204CE7003C0240083802407C4C0008A2
:101B2000BC080020B40800202DE9F047002400255F
:101B30000026A1462548006800F00C0020B10428CA
:101B400005D008283AD105E0DFF8849039E0DFF8C5
:101B5000849036E01D48001F006800F03F041B48D9
:101B6000001F006800F4800078B11A481749091F67
:101B70000968C1F38811A0FB0170014622460023C9
:101B80003846FEF7A1FB05460EE011480F49091F34
:101B90000968C1F38811A0FB0170014622460023A9
:101BA0003846FEF791FB05460848001F0068C0F361
:101BB0000140401C4600B5FBF6F902E0DFF810904A
:101BC00000BF00BF4846BDE8F0870000083802406B
:101BD0000024F40000127A00F8B504460CB9012084
:101BE000F8BD207800F00100002874D0F9480068A2
:101BF00000F00C0004280DD0F648006800F00C003E
:101C0000082813D1F348001F006800F48000B0F5E5
:101C1000800F0BD1EF4808380068C0F3404000281F
:101C200059D06068002856D10120D9E700BF60680C
:101C3000B0F5803F08D1E7480838006840F48030AC
:101C4000E449083908601EE06068B0F5A02F0DD1A6
:101C5000E0480838006840F48020DE490839086010
:101C60000846006840F4803008600CE0D948083825
:101C7000006820F48030D7490839086008460068B9
:101C800020F48020086000BF606890B1FFF7AEFDCF
:101C9000054606E0FFF7AAFD401B642801D9032092
:101CA0009EE7CC4808380068C0F340400028F1D0D7
:101CB00011E0FFF79BFD054606E0FFF797FD401B8F
:101CC000642801D903208BE7C24808380068C0F3B4
:101CD00040400028F1D1207800F0020002285FD1B6
:101CE000BC48006800F00C0058B1BA48006800F029
:101CF0000C0008281CD1B748001F006800F48000C1
:101D0000B0B9B44808380068C0F3400020B1E068BA
:101D1000012801D0012063E7AE480838006820F0B0
:101D2000F800216940EAC100AA490839086037E093
:101D3000E06800B30120A8490860FFF757FD054699
:101D400006E0FFF753FD401B022801D9032047E7B7
:101D5000A04808380068C0F340000028F1D09D4832
:101D60000838006820F0F800216940EAC10099496C
:101D70000839086014E0002097490860FFF736FD35
:101D8000054606E0FFF732FD401B022801D903207B
:101D900026E7904808380068C0F340000028F1D1D9
:101DA000207800F0080008282CD16069A8B1012033
:101DB0008A490860FFF71AFD054606E0FFF716FDA1
:101DC000401B022801D903200AE782486C300068D2
:101DD000C0F340000028F1D014E000207F490860E3
:101DE000FFF704FD054606E0FFF700FD401B022853
:101DF00001D90320F4E677486C300068C0F3400056
:101E00000028F1D1207800F00400042870D10027C8
:101E100070483830006800F0805090B900BF002052
:101E200000906C483830006840F080506949383183
:101E300008600846006800F08050009000BF00BFB6
:101E400001276748006800F48070B0B964480068F2
:101E500040F4807062490860FFF7C8FC054606E060
:101E6000FFF7C4FC401B022801D90320B8E65C48F8
:101E7000006800F480700028F2D000BFA06801283C
:101E800008D154486830006840F001005149683179
:101E900008601DE0A06805280DD14E486830006834
:101EA00040F004004B49683108600846006840F083
:101EB000010008600CE047486830006820F001002D
:101EC0004449683108600846006820F00400086052
:101ED00000BFA068A8B1FFF789FC054609E0FFF73D
:101EE00085FC401B41F28831884202D9032077E605
:101EF00026E0384868300068C0F340000028EED083
:101F000013E0FFF773FC054608E0FFF76FFC401B8A
:101F100041F28831884201D9032061E62D486830BA
:101F20000068C0F340000028EFD1012F07D12948F5
:101F30003830006820F0805026493831086000BFF2
:101F4000A069002845D02348006800F00C0008284C
:101F50005DD0A069022845D100201F490866FFF71F
:101F600045FC054606E0FFF741FC401B022801D96D
:101F7000032035E6174808380068C0F340600028A1
:101F8000F1D1D4E907010843616A40EA81110122D5
:101F9000A06AC2EB500041EA00412C20005D41EAFA
:101FA00000600C49091F086001200B490866FFF713
:101FB0001DFC054606E0FFF719FC401B022801D96D
:101FC00003200DE6034808380068C0F3406000288D
:101FD000F1D049E00838024000004742800E4742F5
:101FE00000700040002021490866FFF7FFFB05460E
:101FF00006E0FFF7FBFB401B022801D90320EFE5B9
:102000001B480068C0F340600028F2D12CE0A069B2
:10201000012800D1E4E51648001D0668A0690128E2
:1020200020D006F48001E06981421BD106F03F0117
:10203000206A814216D147F6C0703040616AB0EB29
:10204000811F0FD106F440310122A06AC2EB50007B
:10205000B1EB004F06D106F070612C20005DB1EBB2
:10206000006F01D00120BBE50020B9E50000474228
:102070000038024070B504462546681EB0F1807FE6
:1020800001D301200FE0681E4FF0E02148610F21CD
:102090004FF0FF3001F0AEFB00204FF0E0218861EF
:1020A00007200861002070BD7047704710B50346D7
:1020B000002200BF93F83C00012801D1022010BD8E
:1020C000012083F83C0000BF22F0FF00CC6840EA0A
:1020D000040222F440708C6840EA040222F480601A
:1020E0004C6840EA040222F400600C6840EA0402F2
:1020F00022F480500C6940EA040222F400504C693A
:1021000040EA040222F48040CC6940EA04021868E4
:10211000426400BF002083F83C0000BF00BFCEE750
:1021200030B502460B4600BF92F83C00012801D1B1
:10213000022030BD012082F83C0000BF022082F85E
:102140003D00106844681068816824F070041868C5
:10215000044310684460184D1068A8421BD01068F2
:10216000B0F1804F17D0154D1068A84213D0144D10
:102170001068A8420FD0134D1068A8420BD0124D22
:102180001068A84207D0114D1068A84203D0104D26
:102190001068A84205D121F08001586801431068F9
:1021A0008160012082F83D0000BF002082F83C00E1
:1021B00000BF00BFBDE70000000001400004004078
:1021C00000080040000C00400004014000400140B5
:1021D0000018004010B504460CB9012010BD94F859
:1021E0003D0028B9002084F83C00204600F026F885
:1021F000022084F83D00211D206801F08BF80120A9
:1022000084F8460000BF84F83E0001213F200155BC
:10221000402001554120015500BF00BF012084F836
:10222000420043200155442001554520015500BF7F
:10223000012084F83D000020D0E7000038B50446B6
:102240005249206888420FD100BF002000905048BA
:10225000006840F001004E4908600846006800F040
:102260000100009000BF8FE02068B0F1804F1AD1CC
:1022700000BF002000904648001F006840F00100A9
:102280004349091F08600846006800F001000090FB
:1022900000BF00BF002211461C20FFF731FB1C20AD
:1022A000FFF71EFB70E03B49206888421AD100BF4F
:1022B000002000903648001F006840F002003449BA
:1022C000091F08600846006800F00200009000BF87
:1022D00000BF002211461D20FFF712FB1D20FFF753
:1022E000FFFA51E02C49206888421AD100BF002033
:1022F00000902748001F006840F008002449091F8B
:1023000008600846006800F00800009000BF00BFA9
:10231000002211463220FFF7F3FA3220FFF7E0FAED
:1023200032E01E49206888421AD100BF0020009088
:102330001748001F006840F010001549091F086089
:102340000846006800F01000009000BF00BF0022A7
:1023500011463620FFF7D4FA3620FFF7C1FA13E012
:102360000F49206888420FD100BF00200090084824
:10237000006840F00200064908600846006800F066
:102380000200009000BF00BF38BD00000000014007
:102390004438024000040040000C0040001000409F
:1023A00000040140014691F83D00012801D00120C0
:1023B0007047022081F83D000868C06840F00100C5
:1023C0000B68D8601A4B086898421BD00868B0F1B7
:1023D000804F17D0174B0868984213D0164B0868E7
:1023E00098420FD0154B086898420BD0144B0868E0
:1023F000984207D0134B0868984203D0124B0868E4
:1024000098420CD10868806800F00702062A0CD0B8
:102410000868006840F001000B68186005E0086873
:10242000006840F001000B6818600020C0E7000061
:10243000000001400004004000080040000C004083
:102440000004014000400140001800402DE9F04127
:1024500004460D46002700BF94F83C00012802D135
:102460000220BDE8F081012084F83C0000BF02207A
:1024700084F83D002068866826F0770626F47F46BB
:10248000206886602868502833D00CDC202850D083
:1024900004DC00284BD0102851D149E0302849D025
:1024A00040284CD139E060282DD0702807D0B0F5F5
:1024B000805F03D0B0F5005F41D10DE041E0D5E988
:1024C00002136A68206800F0A2FF2068866846F060
:1024D00077062068866034E0D5E902136A682068D0
:1024E00000F095FF2068806840F480402168886093
:1024F00027E0EA686968206801F0D3F85021206875
:1025000000F090FF1DE0EA686968206801F0DCF8DF
:102510006021206800F086FF13E0EA68696820689F
:1025200001F0BFF84021206800F07CFF09E000BF07
:1025300000BF00BF2968206800F074FF01E0012798
:1025400000BF00BF012084F83D0000BF002084F8D8
:102550003C0000BF384684E7704710B50446206849
:102560000069C0F34000D8B12068C068C0F34000E3
:10257000B0B16FF002002168086101202077206867
:10258000806900F0030018B12046FFF7E5FF05E081
:10259000204600F003F9204600F0B7F9002020772C
:1025A00020680069C0F38000D8B12068C068C0F31B
:1025B0008000B0B16FF0040021680861022020772C
:1025C0002068806900F4407018B12046FFF7C4FF0E
:1025D00005E0204600F0E2F8204600F096F90020E1
:1025E000207720680069C0F3C000D8B12068C068B7
:1025F000C0F3C000B0B16FF008002168086104208A
:1026000020772068C06900F0030018B12046FFF76A
:10261000A3FF05E0204600F0C1F8204600F075F960
:102620000020207720680069C0F30010D8B120682E
:10263000C068C0F30010B0B16FF0100021680861ED
:10264000082020772068C06900F4407018B1204647
:10265000FFF782FF05E0204600F0A0F8204600F0DA
:1026600054F9002020772068006900F0010058B17B
:102670002068C06800F0010030B16FF001002168EF
:102680000861204600F0C8F920680069C0F3C01056
:1026900058B12068C068C0F3C01030B16FF080003E
:1026A000216808612046FFF7FFFC20680069C0F33D
:1026B000801058B12068C068C0F3801030B16FF04E
:1026C000400021680861204600F0E6F920680069B2
:1026D000C0F3401058B12068C068C0F3401030B15A
:1026E0006FF02000216808612046FFF7DEFC10BD76
:1026F00010B586B00446142101A8FDF75CFF2249FD
:10270000206888421DD100BF002000901F4800684B
:1027100040F010001D4908600846006800F01000F5
:10272000009000BF00BF48150190022002900020D9
:10273000039004900120059001A91548FEF74EFF73
:1027400020E01449206888421CD100BF002000907E
:102750000E48006840F004000C4908600846006814
:1027600000F00400009000BF00BF40200190022054
:1027700002900020039004900320059001A90648D0
:10278000FEF72CFF06B010BD0000014030380240BB
:1027900000100240000401400008024070472DE98B
:1027A000F04104460D461646002700BF94F83C0051
:1027B000012802D10220BDE8F081012084F83C000C
:1027C00000BF36B1042E1BD0082E31D00C2E5ED1A6
:1027D00045E02946206800F02FFE2068806940F01F
:1027E0000800216888612068806920F00400216861
:1027F000886120688069296908432168886148E008
:102800002946206800F050FE2068806940F400608E
:10281000216888612068806920F48060216888616F
:1028200020688069296940EA01202168886130E0D8
:102830002946206800F076FE2068C06940F0080054
:102840002168C8612068C06920F004002168C8615F
:102850002068C069296908432168C86119E02946D0
:10286000206800F09BFE2068C06940F40060216889
:10287000C8612068C06920F480602168C861206850
:10288000C069296940EA01202168C86101E0012787
:1028900000BF00BF00BF002084F83C0000BF3846E6
:1028A00089E710B504460CB9012010BD94F83D002D
:1028B00028B9002084F83C00204600F025F80220CA
:1028C00084F83D00211D206800F024FD012084F8DB
:1028D000460000BF84F83E0001213F200155402002
:1028E00001554120015500BF00BF012084F842007E
:1028F00043200155442001554520015500BF0120CA
:1029000084F83D000020D0E77047704770B504465A
:102910000D4615B994F83E000BE0042D02D13F207E
:10292000005D06E0082D02D14020005D01E041205D
:10293000005D012801D0012070BD1DB9022084F87E
:102940003E000EE0042D03D102213F20015508E096
:10295000082D03D102214020015502E0022141202F
:10296000015501222946206800F040FD23492068D6
:10297000884203D022492068884201D1012000E02A
:10298000002028B12068406C40F400402168486471
:102990001A49206888421BD02068B0F1804F17D0B8
:1029A00018492068884213D01749206888420FD000
:1029B0001649206888420BD011492068884207D008
:1029C00013492068884203D01249206888420CD1FC
:1029D0002068806800F00706062E0CD0206800688A
:1029E00040F001002168086005E02068006840F0C0
:1029F00001002168086000209EE7000000000140FF
:102A0000000401400004004000080040000C0040A9
:102A1000004001400018004010B5044602488442BE
:102A200001D101F001F810BD000B002070B5044683
:102A30000D4600BF94F83C00012801D1022070BD72
:102A4000012084F83C0000BF022084F83D002946A4
:102A5000204600F0CDFD48B1012084F83D0000BFC4
:102A6000002084F83C0000BF0120E8E72068C0682F
:102A700020F040002168C8602068C06820F48040D1
:102A80002168C860012084F83D0000BF002084F860
:102A90003C0000BF00BFD2E7704700BFFEE7000068
:102AA00010B5012202210C48FEF79AFE01221146C0
:102AB0000948FEF795FE0F20FEF76EFD002201216A
:102AC0000548FEF78DFE1E20FEF766FD002202215E
:102AD0000148FEF785FE10BD0014024010B500222B
:102AE00001210A48FEF77CFE0F20FEF755FD01226A
:102AF00002210648FEF774FE1E20FEF74DFD01225E
:102B000011460248FEF76CFE10BD000000140240A2
:102B100010B5AE2000F02EFE202000F02BFE10207D
:102B200000F028FEB02000F025FEC82000F022FEB4
:102B3000002000F01FFE102000F01CFE402000F0DE
:102B400019FE812000F016FE7F2000F013FEA12068
:102B500000F010FEA62000F00DFEA82000F00AFEF6
:102B60003F2000F007FEA42000F004FED32000F078
:102B700001FE002000F0FEFDD52000F0FBFDF0205E
:102B800000F0F8FDD92000F0F5FD222000F0F2FD64
:102B9000DA2000F0EFFD122000F0ECFDDB2000F069
:102BA000E9FD202000F0E6FD8D2000F0E3FD14207B
:102BB00000F0E0FDAF2000F0DDFD10BD00B587B0F6
:102BC000142102A8FDF7F7FC00BF00200190674820
:102BD000006840F01000654908600846006800F091
:102BE0001000019000BF00BF00BF00200190084608
:102BF000006840F0200008600846006800F02000EF
:102C0000019000BF00BF00BF00200190084600688F
:102C100040F0800008600846006800F080000190E5
:102C200000BF00BF00BF002001900846006840F0D0
:102C3000020008600846006800F00200019000BF32
:102C400000BF00BF002001900846006840F004006B
:102C500008600846006800F00400019000BF00BF53
:102C600000BF002001900846006840F001000860A5
:102C70000846006800F00100019000BF00BF00BFDF
:102C8000002001900846006840F0400008600846B7
:102C9000006800F04000019000BF00BF0022032147
:102CA0003348FEF79DFD00224FF400513148FEF7F6
:102CB00097FD00224FF480712F48FEF791FD7E2092
:102CC000029000200390049002A92C48FEF786FC95
:102CD0000320029011200390002004900220059010
:102CE00002A92348FEF77AFC4FF40050029001201D
:102CF000039000200490059002A91E48FEF76EFC88
:102D00004FF4807002900120039000200490059001
:102D100002A91948FEF762FC4FF40440029000201B
:102D20000390049002A91648FEF758FC4FF4406047
:102D3000029000200390049002A90F48FEF74EFC79
:102D40004FF47050029000200390049002A90D48A7
:102D5000FEF744FC3020029000200390049002A96A
:102D60000448FEF73BFC07B000BD000030380240CD
:102D7000001402400004024000080240001002401B
:102D8000000002400018024000B595B000201190EC
:102D90001290139014900F9010901C2108A8FDF72A
:102DA0000AFC20216846FDF706FC2F482F490860E1
:102DB000A720486000212D4881606321C160002167
:102DC000016141618161FFF705FA08B1FEF7EFFB90
:102DD0004FF48050119011A92448FFF737FB08B138
:102DE000FEF7E5FB2148FFF75CFD08B1FEF7DFFBCE
:102DF00030200F90002010900FA91C48FFF790F989
:102E000008B1FEF7D4FB6020089031200990002023
:102E10000A900B900C900D900E90002208A9134878
:102E2000FFF7BDFC08B1FEF7C2FB104800688069DF
:102E300020F008000D490968886100200090019089
:102E40000290039004904FF40050059000200790EA
:102E500069460648FFF72AF908B1FEF7A8FB0348C0
:102E6000FFF746FC15B000BD00000140E00900205E
:102E700000B58BB000200790089009900A901421AB
:102E800002A8FDF798FB0020009001904FF08040D1
:102E9000194908600020486000211748816041F608
:102EA000FF01C160002101618161FFF793F908B161
:102EB000FEF77DFB4FF48050079007A90E48FFF7FF
:102EC000C5FA08B1FEF773FB0520029000200390BD
:102ED00002A90948FFF7AAFD08B1FEF768FB202008
:102EE00000900020019069460348FFF719F908B1E6
:102EF000FEF75DFB0BB000BD280A002000B587B0CF
:102F000000200390049005900690019002901448D0
:102F100014490860A72048600021124881604FF6DC
:102F2000FF71C160002101618161FFF753F908B1B0
:102F3000FEF73DFB4FF48050039003A90948FFF7CB
:102F400085FA08B1FEF733FB00200190029001A939
:102F50000448FFF7E5F808B1FEF729FB07B000BD0C
:102F600000040040700A002000B587B0142102A8B8
:102F7000FDF721FB002000900190154815490860DD
:102F800000204860002113488160491EC160002173
:102F900001618161FFF71EF908B1FEF708FB05200A
:102FA00002903020039002A90A48FFF73FFD08B1C4
:102FB000FEF7FDFA202000900020019069460548A8
:102FC000FFF7AEF808B1FEF7F2FA07B000BD000057
:102FD000000C0040B80A00201CB5002000900190B1
:102FE0000E480F4908605320486000210C4881605A
:102FF00040F2CF71C16000218161FFF7EBF808B1A9
:10300000FEF7D5FA00200090019069460448FFF7CA
:1030100087F808B1FEF7CBFA1CBD00000010004095
:10302000000B002000B595B0002011901290139075
:1030300014900F9010901C2108A8FDF7BCFA2021D5
:103040006846FDF7B8FA314831490860A720486062
:1030500000212F4881604FF6FF71C160002101619E
:103060006321416100218161FFF7B4F808B1FEF7E7
:103070009EFA4FF48050119011A92548FFF7E6F908
:1030800008B1FEF794FA2248FFF70BFC08B1FEF7EF
:103090008EFA30200F90002010900FA91C48FFF7E7
:1030A0003FF808B1FEF783FA6020089031200990BC
:1030B00000200A900B900C900D900E90002208A911
:1030C0001348FFF76CFB08B1FEF771FA104800686F
:1030D000806920F008000E4909688861002000908E
:1030E00001900290039004904FF40050059000204E
:1030F000079069460648FEF7D9FF08B1FEF757FA70
:103100000348FFF7F5FA15B000BD000000040140C8
:10311000480B002000BFFEE700BFFEE770B50024AB
:1031200015E004F1B001C8B200F024FB002000F06B
:1031300021FB102000F01EFB002504E0002000F021
:1031400029FB681CC5B2802DF8DB601CC4B2082CBA
:10315000E7DB70BD70B504460D4605F1B001C8B29D
:1031600000F008FB102141EA141000F003FB04F00A
:103170000F0141F0010000F0FDFA70BD2DE9F041B2
:1031800006460C4617464FF000080025A7F1200020
:1031900000F0FF087F2E02DD0026A01CC4B2601CD8
:1031A000C1B23046FFF7D6FF002509E008EB480121
:1031B000054A02EB4101485D00F0ECFA681CC5B21B
:1031C000062DF3DBBDE8F081000000202DE9F04181
:1031D00004460F46154600260DE0AA5D39462046F6
:1031E000FFF7CCFFA01DC4B2782C02DD0024781CB0
:1031F000C7B2701CC6B2A85D0028EED1BDE8F08150
:103200007047704710B5FEF7F7FA10BD00B593B0E0
:10321000302107A8FDF7CFF9142102A8FDF7CBF95B
:1032200000BF002001902448006840F080502249EF
:1032300008600846006800F08050019000BF00BFA1
:1032400000BF002001901D48006840F480401B49E9
:1032500008600846006800F48040019000BF00BF8D
:10326000012007900004089002200D9041050E9166
:1032700004210F91A8211091022111910421129192
:1032800007A8FEF7A9FC08B1FEF791F90F200290FC
:1032900002200390002004904FF4A05005904FF4BA
:1032A00080500690052102A8FEF77CFB08B1FEF7CE
:1032B0007EF913B000BD00004038024000700040AD
:1032C0000348006840F4700001490860704700003E
:1032D00088ED00E010B50248FFF73FF910BD00008F
:1032E000280A002010B50248FFF737F910BD00008A
:1032F000700A002010B50248FFF72FF910BD00003A
:10330000B80A002010B50248FFF727F910BD0000E9
:10331000000B002010B50268294B98420ED0B0F186
:10332000804F0BD0274B984208D0274B984205D0AE
:10333000264B984202D0264B984203D122F07002CD
:103340004B681A431E4B984220D0B0F1804F1DD0DD
:103350001C4B98421AD01C4B984217D01B4B9842DA
:1033600014D01B4B984211D01A4B98420ED01A4BD6
:1033700098420BD0194B984208D0194B984205D06F
:10338000184B984202D0184B984203D122F4407255
:10339000CB681A4322F080034C6943EA04020260BE
:1033A0008B68C3620B688362054B984202D0084B5E
:1033B000984201D10B6903630123436110BD0000F2
:1033C000000001400004004000080040000C0040E4
:1033D0000004014000400140004401400048014019
:1033E00000180040001C00400020004030B501F0F3
:1033F0001F05012404FA05F3046A9C430462046A6D
:1034000001F01F0502FA05F52C43046230BD30B50A
:103410000C46816821F47F4142EA03252543294374
:10342000816030BD0A46816821F0700142F00703D7
:10343000194381607047000030B5056A25F0010529
:103440000562026A4368846924F0700424F003046E
:103450000D682C4322F002028D682A43104DA842C9
:1034600000D103E00F4DA84206D100BF22F00802B0
:10347000CD682A4322F00402094DA84202D0094D2A
:10348000A84207D123F4807323F400734D692B43C2
:103490008D692B43436084614D684563026230BD92
:1034A000000001400004014030B5056A25F0100518
:1034B0000562026A4368846924F4E04424F4407499
:1034C0000D6844EA052422F020028D6842EA0512C4
:1034D000124DA84200D103E0114DA84207D100BF10
:1034E00022F08002CD6842EA051222F040020B4D24
:1034F000A84202D00A4DA84209D123F4806323F4E4
:1035000000634D6943EA85038D6943EA850343609F
:1035100084614D688563026230BD00000000014097
:103520000004014030B5056A25F480750562026A21
:103530004368C46924F0700424F003040D682C432C
:1035400022F400728D6842EA0522124DA84200D191
:1035500003E0114DA84207D100BF22F40062CD68FC
:1035600042EA052222F480620A4DA84202D00A4DA6
:10357000A84209D123F4805323F400534D6943EA50
:1035800005138D6943EA05134360C4614D68C56343
:10359000026230BD000001400004014030B5056A00
:1035A00025F480550562036A4468C26922F4E0424A
:1035B00022F440720D6842EA052223F400538D681C
:1035C00043EA0533084DA84202D0084DA84204D171
:1035D00024F480444D6944EA85144460C2614D6816
:1035E0000564036230BD000000000140000401409A
:1035F0002DE9F04705460C464FF00009286886681B
:1036000026F070066068064326F007062068064329
:1036100028688660606800F00F0100293BD1001126
:10362000082838D2DFE800F0333435360B272D0474
:10363000D4E90313A2682868FFF7E9FE2EE02068AA
:10364000052802D10120BDE8F0872868D0F8208045
:103650002868006A20F001002968086228688769E4
:1036600027F0F007206947EA001728688761286873
:10367000C0F8208012E02269A168286800F011F8E3
:103680000CE02269A168286800F01EF806E000BF7F
:1036900000BF00BF02E04FF0010900BF00BF484675
:1036A000D1E730B50B461446026A056A25F00105DC
:1036B0000562816921F0F00141EA041122F00A0259
:1036C0001A438161026230BD30B50B461446056A6B
:1036D00025F0100505628169026A21F4704141EA12
:1036E000043122F0A00242EA03128161026230BD7D
:1036F00000BFFEE770B50446012600251EE004F079
:10370000800028B1012211461948FEF769F804E04B
:10371000002201211648FEF763F801220221144815
:10372000FEF75EF81E20FDF737FF00220221104849
:10373000FEF756F86006040E681CC5B2082DDEDBE5
:10374000012211460A48FEF74BF81E20FDF724FF20
:10375000012202210648FEF743F81E20FDF71CFF58
:10376000002202210248FEF73BF8304670BD0000FF
:103770000014024010B50446FFF792F97820FFF7D5
:10378000B9FF0020FFF7B6FF2046FFF7B3FFFFF7B2
:10379000A5F910BD10B50446FFF782F97820FFF7B0
:1037A000A9FF4020FFF7A6FF2046FFF7A3FFFFF782
:1037B00095F910BD03B401984100009850EAC1206A
:1037C00018BF04204A0D18BF40F0010040F2FF72FC
:1037D000B2EB515F08BF40F00200012808BF05208E
:1037E00002B0704702480068C0F302207047000032
:1037F0000CED00E010B5002804DB0A07130E054AA3
:10380000135406E00A07140E034A00F00F031B1FAF
:10381000D45410BD00E400E018ED00E030380A2870
:1038200001D20120704700207047000010B5044607
:1038300035480078052863D2DFE800F00316293CFC
:103840004F003248807820B12078401C40B2207070
:1038500006E02E48C07818B12078401E40B2207093
:10386000204600F0D1F84CE02848807820B16078FC
:10387000401C40B2607006E02448C07818B16078FF
:10388000401E40B26070601C00F0BEF839E01F4876
:10389000807820B1A078401C40B2A07006E01B48A0
:1038A000C07818B1A078401E40B2A070A01C00F0F3
:1038B000ABF826E01548807820B1E078401C40B293
:1038C000E07006E01148C07818B1E078401E40B2C0
:1038D000E070E01C00F098F813E00C48807820B10C
:1038E0002079401C40B2207106E00848C07818B129
:1038F0002079401E40B22071201D00F085F800E0C4
:1039000000BF00BF10BD00001F080020C00800203D
:1039100010B504213948FDF75BFF08B9012000E02C
:1039200000203749087002213448FDF751FF08B9DB
:10393000012000E00020324948704FF40061314816
:10394000FDF746FF08B9012000E000202C498870EF
:103950004FF480512B48FDF73BFF08B9012000E0F0
:1039600000202749C87020212448FDF731FF18B9ED
:103970000120234908710BE01420FDF71BFE2021D4
:103980001E48FDF725FF012802D100201C490871BF
:1039900010211A48FDF71CFF08B9012000E00020A3
:1039A000174948714FF400511648FDF711FF08B947
:1039B000012000E000201249887140210F48FDF7E6
:1039C00007FF08B9012000E000200D49C871082157
:1039D0000A48FDF7FDFE08B9012000E00020084973
:1039E00008724FF480610748FDF7F2FE08B9012024
:1039F00000E000200249487210BD000000100240A3
:103A0000C00800200018024090F90010092901DDCB
:103A1000092107E090F90010002901DA002101E0F6
:103A200090F900100170704710B55348007818B134
:103A300001205249087005E04F48407810B102203B
:103A40004E4908704E48007830B1012831D0022824
:103A50003FD003287ED163E04FF400614948FDF771
:103A6000B7FE012817D1002241034748FDF7B8FEF1
:103A70004648806A3230454988620846806A41F289
:103A80007071884202DB0846404988623F48806A7C
:103A90003E49C86207E001203C498862C862374954
:103AA0000870374908703948C16A394800F022FD6A
:103AB0005DE032480078012803D1022030490870C7
:103AC00006E02E480078022802D103202C49087015
:103AD0004DE030480078012800D110BD00F036FEDE
:103AE00000F086FE2C48007848B92848007830B9A4
:103AF00022480078022802D1032021490870234877
:103B000000F00CFD2148C16A214800F0F3FC224876
:103B100000F004FD2048C16A204800F0EBFC26E0DC
:103B20001C480078012800D1D7E700F043FD00F0E1
:103B30005FFE1948007830B910480078012802D19A
:103B400002200F490870114800F0E8FC0F48C16AD4
:103B50000F4800E00AE000F0CDFC0F4800F0DEFC6A
:103B60000D48C16A0D4800F0C5FC00E000BF00BF71
:103B700000F0E8FA00BFB0E7C008002028080020E5
:103B800027080020000802400004024080090020AD
:103B9000E009002018080020B0090020480B002090
:103BA00010B52DED048B00F071FB01202E498862C9
:103BB000C8622E4848602E492B4881602D49C1605B
:103BC0002D480068400028494861486900F0CDFE52
:103BD00041EC190B9FED290B53EC102B00F0D8FE94
:103BE00041EC180B00F094FE1F490862254800685C
:103BF00041001D4881612048006841001A48C161A8
:103C00000146C86900F0B1FE41EC190B9FED1B0B9A
:103C100053EC102B00F0BCFE41EC180B00F078FECA
:103C200011494862012018498862C86217484860F3
:103C30001749154881601749C1600F48006812494B
:103C4000486115480178104801620E4801680E4825
:103C50008161094801680C48C1610F4801780A4830
:103C60004162BDEC048B10BD8009002020080020BB
:103C700021080020220800203C080020FCA9F1D2E5
:103C80004D62603F38080020B00900202308002062
:103C900024080020250800204008002000B52DED54
:103CA000028B83B000200290009001909848007829
:103CB00010B101287DD106E09648807910B101202D
:103CC00093490870B3E09348407A60B1924A917882
:103CD0001078FFF73FFA0020FFF75CFD00F0D6FAFE
:103CE00000208B49087000F095F900F007FA00F009
:103CF000D9F98A48007830B1012825D0022844D06B
:103D000003287DD164E0864991ED000ADFED850A44
:103D100020EE200ABCEEC00A10EE100A694600F040
:103D2000BDFB6846FFF782FD694602A800F08CFAE9
:103D30009DED020AB8EE400ADFED7A0A80EE201A05
:103D4000774880ED001A67E0774991ED000ADFEDD2
:103D5000750A20EE200ABCEEC00A10EE100A694671
:103D600000F09CFB6846FFF761FD694602A800F081
:103D70006BFA9DED020AB8EE400ADFED6A0A80EEAA
:103D8000201A694880ED001A46E0684991ED000A62
:103D9000DFED640A20EE200ABCEEC00A10EE100A25
:103DA000694600F07BFB6846FFF740FD694602A8C4
:103DB00000E03BE000F048FA9DED020AB8EE400A50
:103DC000DFED580A80EE201A584880ED001A23E0F3
:103DD000574991ED000ADFED530A20EE200ABCEEB0
:103DE000C00A10EE100A694600F058FB6846FFF75B
:103DF0001DFD694602A800F027FA9DED020A00E0C9
:103E000009E0B8EE400ADFED470A80EE201A484884
:103E100080ED001A00E000BF00BF3F4A91781078A3
:103E2000FFF798F9FF20FFF7B5FC00E000BF00BFE7
:103E30003B4890ED000ADFED3B0A20EE200ABDEE84
:103E4000C00A10EE102A3BA13E48FCF7B5FA3648EE
:103E500090ED000ADFED330A20EE200ABDEEC00A25
:103E600010EE102A38A13C48FCF7A6FA2F4890ED36
:103E7000000ADFED2C0A20EE200ABDEEC00A10EE8B
:103E8000102A36A13948FCF797FA294890ED000A24
:103E9000DFED240A20EE200ABDEEC00A10EE102A43
:103EA00033A13748FCF788FA3648027836A13A48F9
:103EB000FCF782FA3948006800F068FE41EC180B04
:103EC00053EC182B36A13B48FCF776FA1D4A00212B
:103ED0000846FFF77BF9204A01210020FFF776F919
:103EE000224A02210020FFF771F9254A0321002010
:103EF000FFF76CF9284A04210020FFF767F92D4AE3
:103F000005210020FFF762F903B0BDEC028B00BD74
:103F100018080020C00800201A0800201E080020F1
:103F20005C08002000007A4460080020640800203B
:103F3000680800206163633A202020202025356432
:103F400020000000CA08002073706565643A2020D4
:103F50002025356420000000E8080020646973749F
:103F6000616E743A202535642000000006090020A7
:103F70007265616C646973743A25356420000000D1
:103F800024090020280800206D6F64653A20202055
:103F90002025356400000000420900207008002040
:103FA00064616E676C69616E673A2020252E326607
:103FB000000000006009002010B5002410210D4809
:103FC000FDF706FC01280CD10B480068401C0A498B
:103FD000086008460068142806D300200860012401
:103FE00002E00020044908600CB1012010BD00204F
:103FF000FCE7000000040240AC08002010B50024DB
:1040000010210348FDF7E4FB00B90124204610BD50
:10401000000402402148C07968B121484088401E10
:1040200000B21F4948800846B0F90200012834DA7E
:104030000420488031E01948007A68B11848408867
:10404000401C00B2164948800846B0F90200042816
:1040500023DD0120488020E01048007968B1104835
:104060000088801F00B20E4908800846B0F90000A1
:104070003C2812DA542008800FE00848407960B1EB
:1040800007480088801D00B2054908800846B0F93D
:104090000000542801DD3C2008807047C008002043
:1040A0001A080020134800883C2803D10020124938
:1040B00008701EE00F480088422803D101200E49F5
:1040C000087016E00B480088482803D102200A49EE
:1040D00008700EE0074800884E2803D103200649E7
:1040E000087006E003480088542802D104200249E1
:1040F000087070471A0800201F0800200F484088E9
:10410000012803D100200E49087016E00B484088B2
:10411000022803D101200A4908700EE007484088B0
:10412000032803D102200649087006E003484088AE
:10413000042802D103200249087070471A080020A1
:104140001E08002010B54FF400611548FDF740FB34
:1041500078B91448007802280BD1012012498862EE
:10416000C8620846C16A114800F0C4F900200E492F
:1041700008704FF480610A48FDF72AFB70B90948BE
:10418000007801280AD108498862C8620846C16AD5
:10419000064800F0AFF900200349087010BD000088
:1041A000000802402908002080090020E0090020C2
:1041B000FDF72EFBFFF72AF8FEF700FDFEF7E4FD02
:1041C000FEF730FFFEF754FEFEF706FFFEF7CCFECB
:1041D000FEF794FE6420FDF7EDF9FEF799FCFEF77B
:1041E0009DFF0121134800F085F90121124800F0DC
:1041F00081F96FF0010011490968086110490968E7
:104200000861FFF7CDFC0D48FEF7CCF80C48FEF72F
:10421000C9F80C48FEF7C6F800210648FEF776FB01
:1042200000210548FEF772FB03E0FFF771FBFFF783
:1042300035FDFAE7E0090020480B0020280A00209D
:10424000B80A0020000B002010B591F9002042F2BE
:10425000107312FB03F291F9013003EB4304C4EB3A
:10426000C31302EBC30291F9023003EBC30404EB66
:10427000031302EB830291F9033003EB830302EB98
:10428000430291F904301A44026010BD10B52DEDBF
:10429000048B6D4890ED000A6C48D0ED000A80EE6A
:1042A000201A6B4880ED001A674890ED000A6948B3
:1042B000D0ED000A80EE201A674890ED000A21EE4A
:1042C000000A6348D0ED000A20EE200A634880ED22
:1042D000000A6348D0ED000A5E4890ED001A80EEB7
:1042E000810A5D48D0ED000A20EE200A5848D0ED42
:1042F000000A20EE200A5B4880ED000A5A4890ED43
:10430000000A5448D0ED000A80EE201A524890ED81
:10431000000A21EE000A4E48D0ED000A20EE200AE5
:10432000524880ED000A5249088800EBD0714910CC
:1043300000EE101AB8EEC00ADFED4E0A80EE201A29
:10434000464991ED000A21EE000ABCEEC00A4A4936
:1043500081ED000A4649088800EBD071491000EE53
:10436000101AB8EEC00A9FED431AC0EE010A3D498B
:1043700091ED000A20EE800ABCEEC00A3F4981EDB3
:10438000000A3B49088800EBD071491000EE101A72
:10439000B8EEC00A9FED371AC0EE010A334991ED1D
:1043A000000A20EE800ABCEEC00A354981ED000A01
:1043B0000846006800F0D9FA41EC190B9FED310B6B
:1043C00053EC102B00F0E4FA41EC180B00F0A0FACB
:1043D0002E4908701F49D1ED000A9FED2D1A81EE7C
:1043E000200A1D49D1ED000A20EE200A1849D1ED1E
:1043F000000A60EE200A1E49088800EBD0714910BF
:1044000000EE101AB8EEC00A9FED1A1AC0EE011A9B
:1044100020EEA10A1F4981ED000A194800681E49D3
:1044200048611A4801781C480162144801681A481A
:104430008161134801681848C16114480178164821
:104440004162BDEC048B10BD6408002068080020A8
:104450006C08002054080020500800204808002064
:1044600060080020440800205C0800204C08002060
:104470002C080020D00F49403408002038080020C4
:104480003C080020FCA9F1D24D62603F40080020AA
:104490006F12833A70080020B009002010B542F274
:1044A0001072B0FBF2F252B20A704FF47A72B0FBA3
:1044B000F2F20A23B2FBF3F403FB142252B24A7065
:1044C0006422B0FBF2F2B2FBF3F403FB142252B20B
:1044D0008A700A22B0FBF2F2B2FBF3F403FB14225F
:1044E00052B2CA700A22B0FBF2F302FB130252B2BC
:1044F0000A7110BD002203685A62074AB2FBF1F24A
:10450000521E0368DA62044AB2FBF1F20123C3EBE4
:10451000520203685A63704740420F00017831B17C
:10452000012912D0022921D0032940D129E0416874
:10453000097831B100214268117001210170002217
:10454000427401218162C16232E0826A016A1144CF
:104550008162826A81698A4205D38169816201220E
:10456000027402210170816AC16221E081680978C8
:1045700021B1002281680A7003210170816AC16241
:1045800016E0D0E90912511A8162816A002903DC20
:104590000121816201224274816AC162C168097885
:1045A00021B10022C1680A700021017000E000BF43
:1045B00000BF704710B56148007888BB4FF4806138
:1045C0005F48FDF705F990B14FF400415C48FDF7F5
:1045D000FFF860B101205B490870012241035A488D
:1045E000FDF7FEF80120554949680870A4E04FF432
:1045F00080615348FDF7ECF898B94FF400415048FA
:10460000FDF7E6F868B902204E4908700022010360
:104610004D48FDF7E5F801204849496808708BE0EE
:1046200003E000204749087086E0444800780128EC
:1046300027D14448007801280FD181024048FDF776
:10464000C7F830B14FF400413D48FDF7C1F80028EC
:1046500072D10220394908706EE03A480078022889
:104660006AD141023648FDF7B3F830B94FF4004142
:104670003348FDF7ADF800285ED002202F490870BE
:104680005AE02E480078022825D12E4800780128CB
:104690000ED181022A48FDF79BF828B14FF4004162
:1046A0002748FDF795F8E8BB03202449087043E04C
:1046B0002448007802283FD141022148FDF788F8BC
:1046C00028B94FF400411E48FDF782F850B303208B
:1046D0001A49087030E01948007803282CD119488D
:1046E000007801280ED181021548FDF771F828B134
:1046F0004FF400411248FDF76BF8B8B900200F499C
:10470000087013E00F48007802280FD141020C48CE
:10471000FDF75EF828B94FF400410948FDF758F855
:1047200020B100E008E00020044908700348407C04
:1047300010B100200149087010BD00008009002060
:1047400000000240290800200004024010B524485F
:10475000007818BB2348007960B101202249087015
:10476000012241032148FDF73BF801201C4949681B
:10477000087034E01B48407960B102201A49087083
:10478000002201031948FDF72BF80120144949685C
:10479000087024E000201449087020E010480078D8
:1047A000022812D10F48007918B90F480078012863
:1047B00006D00C48407990B90B48007802280ED1F9
:1047C000012107488068017009E005480078032846
:1047D00005D10348407C10B100200149087010BD8C
:1047E00080090020C00800202908002000040240A1
:1047F00010B53748007800283DD13648C07960B1FF
:10480000012035490870012201023448FCF7E8FF15
:1048100001202F494968087012E02E48007A60B1E3
:1048200002202D4908700022C1012C48FCF7D8FF56
:10483000012027494968087002E0002026490870D5
:10484000FFF7DCFB002841D00120214949680870AE
:1048500020212348FCF7BCFF012805D101220102D9
:104860001E48FCF7BDFF31E000224FF480711B4869
:10487000FCF7B6FF2AE01648007802281CD115483C
:10488000C07918B914480078012806D01148007A78
:1048900038B911480078022803D101210C488068FA
:1048A00001700D48007888B9FFF786FB70B10121CF
:1048B00007488068017009E005480078032805D1A1
:1048C0000348407C10B100200149087010BD000071
:1048D000B0090020C00800202A080020000802407B
:1048E0000004024010B500290AD00878002807D03B
:1048F00005487844FCF73EFA002801D0002010BD9E
:104900000248784410BD0000560400004E04000028
:104910004FEA1153A3F58063D3F11E03A8BFD3F16F
:10492000200C08DB4FF0004242EAC12252EA50520A
:1049300032FA03F0704709420BD4102BC4BF002099
:10494000704703F5787CBCF1FF3F05D04FF0FF3096
:1049500070474FF00000704770B500F0C3F800BF1B
:104960004992248000207047F0E7B0FA80F310FAF3
:1049700003F10AD0C3F11D0303F580634FEA4150F0
:104980004FEA035202EBD12170474FF0000070470D
:10499000DFF848C170B51CEA111E1EBF1CEA1315D2
:1049A0009EEA0C0F95EA0C0F00F06F8081EA030479
:1049B00023EA4C134EEAD47E21EA4C1141F48011D3
:1049C00043F48013AE44A1FB024CA0FB0365AEF19F
:1049D0007F7E361955EB0C05A1FB034C4CF100030F
:1049E000A0FB021C16EB0C06654153F100030942C3
:1049F00018BF46F0010613F4007F0BD14FEA0331D4
:104A00004FEA0530340341EA155140EA16506FF081
:104A100003020AE04FEAC3214FEAC520F40241EA4B
:104A2000555140EA56506FF0020202EB2E4201EB64
:104A3000025585EACE710AD05FEA440C18BF24F013
:104A4000004450F1000041F1000120EAD47040F22E
:104A5000FE7C624500D270BDA84214BF4FF0804476
:104A60004FF04044002E08BF0024BEF1806FA8BF65
:104A7000A1F1C041BDE8704080F282804FF000009B
:104A800001F1C04101F0004170479EEA0C0F0CEAB1
:104A9000131518BF95EA0C0F06D04FF0000081EAFD
:104AA000030E0EF0004170BD00F01CF88900013EBD
:104AB00000F007B800F009B84FEA430C5FEA5C5C0D
:104AC00008D081EA030100F05BB84FEA410C5FEACD
:104AD0005C5CF6D14FF00000014970470000FF0711
:104AE0000000F87F0EF1020E2EF0030E5EF8046B4C
:104AF000364205D4012A43EB030515F5001F12D8F1
:104B0000012841EB010C1CF5001F0CD80ED14FEA17
:104B1000D17C15F5001F0CEB4C0C0CF1020C08BFFE
:104B20004CEBD37C04E04FF0080C01E04FEAD37C5F
:104B30000CEB4C0526FA05F606F00706B6F1040C58
:104B400006D20EEB860CBDE870404CF0010C6047BD
:104B5000DFE80CF0090B02024FF000414FF00000BB
:104B6000A1F5002170BD19461046012851EB010442
:104B700018BFD4F5001484BF002001F0004170BDBF
:104B80000808A0F500114FEA3101704743004FEAD1
:104B9000D30C4FEA3C0C43401FBF40070CF160515F
:104BA00013F0FE4F70471CF0006F03D100200CF093
:104BB000004170470CF0004343EA507010B540EAE2
:104BC000CC0000F00EF800BF000000924FEA000198
:104BD000FFF7D6BF4FF000414FF00000A1F50021D4
:104BE00070470EF1020E2EF0030E5EF8044B2442C5
:104BF00004D44FEA4102B2F17F4F11D84FEA40038B
:104C0000B3F17F4F0CD80ED14FEAD07CB2F17F4F79
:104C10000CEB4C0C0CF1020C08BF4CEBD17C04E00B
:104C20004FF0080C01E04FEAD17C0CEB4C0324FA66
:104C300003F404F00704B4F1040C06D20EEB840C68
:104C4000BDE810404CF0010C6047DFE80CF00708AD
:104C500002024FF00040A0F5800010BD084642005F
:104C600018BFD2F1807288BF00F0004010BD4FF035
:104C70004070E1EE100A7047FBF7F9BD000000003C
:104C800000000000010203040607080900000000FC
:104C90000102030402400000000000A00000000028
:104CA00005400000000000C8000000000C400000AB
:104CB0000000409C00000000194000000020BCBE25
:104CC0000000000034400000BFC91B8E000000043B
:104CD000B5400000504BCFD06607E2CF0100000086
:104CE0006C4100003E8251AADFEEA73401000000B3
:104CF000D9420000DCB5A0E23A301F97FFFFFFFF6A
:104D0000B4450000FD25A0C8E9A3C14FFFFFFFFF88
:104D1000FF3F00000000008000000000FF3F000097
:104D20000000008000000000644D0008000000202A
:104D3000C0080000C4010008C4520008C0080020D8
:104D400030090000200200081C00000043000000A1
:104D5000F8FFFFFF0C0000000E0000000F00000035
:104D60002E00000091422F1A0702111B147F02111E
:104D700016242A7F2A121662640813232636495500
:104D80002250430503341C22411C41221C2A1508D1
:104D90003E08141A0806320823A0602A0801211AC6
:104DA000600B11162010080402263E5149453E1C96
:104DB000427F40051561514946162141454B311648
:104DC0001814127F10162745454539163C4A4949A3
:104DD000301C01710962163649494936260649498F
:104DE000291E4336362A56062B0814782A14012920
:104DF0007E13140816020151090616324959513E14
:104E0000167C1211127C3A7F3C163E414141221A17
:104E10007F053A1C1212411E7F0909090118144925
:104E2000497A1A7FA11A7F421A7F4E1E2040413FC5
:104E30000112295B1B7F400111167F020C027F3E8D
:104E40007F0408107F483A3E3C1A060C1C51215E34
:104E50000C141929461A465412311601017F01011A
:104E60001A3F35123F1E1F2040201F0C1A380C1607
:104E7000631408146316070870080719EF234543E5
:104E8000198B211B552A0219781A417D160402013B
:104E9000020429712240290B11162054545478160B
:104EA0007F484444382E38444444200613487F1A2F
:104EB0003818121816087E0901021D18A4A4A4E4CB
:104EC00025080404781B447D3B1D4080847D5F34AD
:104ED0001028441B417F121C7C04181E3A7C242994
:104EE00048123816FC242424181A18053AFC181203
:104EF000081A4854122016043F444020163C4040F3
:104F0000207C1A1CC01A1C0C1430403C2B44284F27
:104F1000161CA0A0A07C3F4464544C44140101130F
:104F200072F84333301C100C0603912C40C07803F8
:104F300019672A0403212D7088FC0829261820FFF0
:104F4000211E14F008F033E0184D211C031E11330C
:104F50008870000C101E2123241927211010160E12
:104F600045E01804021C071820EA3D020418E06915
:104F70002C20180707174080F08040403F020201B4
:104F80000F01022842F01D0101011F04912B80B086
:104F900066B1191D2901913A30CE492C14601804CC
:104FA0003C6018061D1EE010080810721F0F10202C
:104FB00020100FF05310F83620203F20203C7008BE
:104FC00008C21E3028242221441E30088888480840
:104FD0002E1820202011CC3BC02032270704242487
:104FE0003F241AF8202308084B19212036E01088A6
:104FF00088184B0F11101E380808C8382021523F5E
:105000001A702E29608F1C222121221C90111D3123
:10501000222211901961CAC0C26A80C659081C4078
:10502000201050170102040810204A4001114A04C0
:10503000012119152A403219251B0402F21B704860
:10504000D13AF0501A360F1EC030C828E870280830
:105050000718272423140B6F2A387E280D203C23A1
:10506000020227382008F888889F4B203FF01BC099
:10507000303F1B083830191019781B08F80F1940F9
:1050800039201B100F103E8888E8081010AC232030
:105090001810112A035E2940223829402C221E02B2
:1050A0004019A41809F808203F21010121252A08E8
:1050B00052298129424149112EC08080807F0E2FC4
:1050C000F888C0281808501C0126382F2940292F9D
:1050D00029801B20301012F81AF81413203F1902EF
:1050E00029204B30C0601A2074123F4BE010B06B87
:1050F0000F10B029D01AF0301980220179203F1802
:10510000242438504FC04C888870C0140C30204B79
:105110007088C11738202121221C3A189F4A188212
:1051200039A049D0112A1F90121F240878881BC863
:1051300038151C07380E60191A1AF8201114033C90
:105140000714073C03481408186880806818082072
:10515000302C03032C30200838C82F5950298F29B0
:10516000102F203826212020681145FE020202253A
:105170007F4040401A0CE0611C0106380B191D42AB
:10518000FE191D527F1A04120211045A80011930AF
:10519000D91D391621180819242222223F20AB39A3
:1051A0000F115F3F112020110E21311A0E104B20DC
:1051B00011104B88F8102A10B359401A1F3F2B22A8
:1051C000130F16F0888888181A20D029D1497A211F
:1051D000176B94949493603960190F4C203F21F31E
:1051E00054809898793059121AC02719D11930393A
:1051F000311F203F24022D30212A0812893069D71F
:10520000294B2903190BC96079A019BF2B201FDD79
:10521000390F9C80FFA1E0191229D03BA0FF0C3967
:1052200050194112208A01C01B3324012A190F3A58
:10523000E0413952290F392349603C103F202C2985
:10524000053F010E3008060170291038080F300C98
:10525000030C300F2C49A14E312E0E31200C296247
:105260001D818E70183059D1215721302C222130C8
:1052700055807C0202443F404072FF39083C0202E4
:105280007C8F5440403FA008060101020204043A0A
:105290003CC6C123800CE914591A4944194E29040B
:1052A00035CDCC4C3D5A410C2A3E206808EC517853
:1052B0003F33339328011963E803021B643210392A
:0452C000881324F437
:040000050800018965
:00000001FF
