:020000040800F2
:10000000A0070020950100085127000839240008A6
:100010004D2700088D040008712F00080000000023
:10002000000000000000000000000000052800089B
:100030009104000800000000C52700085D280008A2
:10004000AF010008AF010008AF010008AF010008D0
:10005000AF010008AF010008AF010008AF010008C0
:10006000AF010008AF010008AF010008AF010008B0
:10007000AF010008AF010008AF010008AF010008A0
:10008000AF010008AF010008AF010008AF01000890
:10009000AF010008AF010008AF010008AF01000880
:1000A000AF010008AF010008AF010008AF01000870
:1000B000E1280008F1280008AF010008AF0100089E
:1000C000AF010008AF010008AF010008AF01000850
:1000D000AF010008AF010008AF010008AF01000840
:1000E000AF010008AF010008AF01000800F002F8FE
:1000F00000F03EF80AA090E8000C82448344AAF184
:100100000107DA4501D100F033F8AFF2090EBAE881
:100110000F0013F0010F18BFFB1A43F0010318473B
:10012000383B0000583B0000103A24BF78C878C123
:10013000FAD8520724BF30C830C144BF04680C60ED
:10014000704700000023002400250026103A28BF35
:1001500078C1FBD8520728BF30C148BF0B60704739
:100160001FB50FBC00F014F80FB41FBD10B510BDC3
:1001700000F05AF81146FFF7F3FF02F05DFF00F0C0
:1001800078F803B4FFF7F2FF03BC00F07FF800003B
:1001900000F093B80948804709480047FEE7FEE7AA
:1001A000FEE7FEE7FEE7FEE7FEE7FEE7FEE7FEE727
:1001B00004480549054A064B70470000DD28000841
:1001C000ED000008A0010020A0070020A0030020EF
:1001D000A00300204FF0000200B513469446964657
:1001E000203922BFA0E80C50A0E80C50B1F120014A
:1001F000BFF4F7AF090728BFA0E80C5048BF0CC0F8
:100200005DF804EB890028BF40F8042B08BF704755
:1002100048BF20F8022B11F0804F18BF00F8012BC7
:100220007047704770477047754600F02BF8AE4630
:1002300005006946534620F00700854618B020B5F2
:10024000FFF7B6FFBDE820404FF000064FF0000773
:100250004FF000084FF0000BAC46ACE8C009ACE82A
:10026000C009ACE8C009ACE8C00921F007018D461F
:10027000704710B50446AFF300802046BDE810403B
:10028000FFF77FBF00487047380000200149182061
:10029000ABBEFEE7260002000246C91C21F00301A6
:1002A000D2E900031B1A8B4201D20020704701449F
:1002B000C91D21F00701116070472DE9F34F83B08C
:1002C00000274FF48074BA4603A821468DF80070C9
:1002D000FFF7E2FF5FEA000801D100F083F8214652
:1002E000404600F070F8060009D04FF0010B45467B
:1002F000C14616F8014B8FB15C2C16D01CE008F1FA
:1003000008004146C8F800000020C8F80400D8F8EA
:1003100000402070012005B0BDE8F08F222C01D0F4
:10032000272C0FD12746BA462CE03078222807D058
:100330005C2805D0272803D0BC4203D1002721E048
:10034000761C04464CB12FB9202C06D0A4F109002C
:10035000042802D905F8014BCBE74D4502D1BAF18B
:10036000000F0FD052464946002005F8010B6846A1
:10037000AFF300809DF8000070B14D464FF0000AC9
:100380000BF1010B002CB4D14FEA8B0103A8FFF74E
:1003900083FF040002D004E0A946EFE7002000F04C
:1003A00021F800204246C4F8008005E012F8011B45
:1003B00011B9401C44F82020AA42F7D3002144F888
:1003C00020102146A7E71CB50446CDE90001694687
:1003D0001520ABBE08B100201CBD20461CBD7047D7
:1003E0007047704710B500F009F8BDE81040AFF352
:1003F0000080002801D0FFF749BF704710B50128E1
:1004000005D0002103A000F021F8012010BD09A1B2
:10041000F8E7000053494752544D454D3A204F7577
:1004200074206F662068656170206D656D6F7279EC
:10043000000000003A2048656170206D656D6F72A4
:100440007920636F727275707465640070B50546CB
:100450000C460A2000E06D1C00F011F835B1287838
:100460000028F8D102E0641C00F009F814B12078EB
:100470000028F8D1BDE870400A20AFF3008008B52D
:1004800069468DF800000320ABBE08BDFFE7FEE71C
:100490007047000081B0EFF3108072B60090FFE764
:1004A000FEE7000090B00F900E9100200D90099093
:1004B000FFE70E9800680D99C840002800F087817A
:1004C000FFE70D98012101FA00F00C900E980068EA
:1004D0000C9908400B900B980C99884240F073815E
:1004E000FFE70E9840680028059051D0FFE7059877
:1004F00001283AD0FFE7059802283FD0FFE705988A
:10050000032860D0FFE70598112832D0FFE705984F
:10051000122838D0FFE70020C1F21100059981426E
:1005200036D0FFE70020C1F21200059981422FD09A
:10053000FFE70020C1F221000599814228D0FFE7A2
:100540000020C1F222000599814221D0FFE700205E
:10055000C1F23100059981421AD0FFE70020C1F2B3
:1005600032000599814213D030E00E98C06809909E
:100570002DE00E98C0680430099028E00E98C068FD
:100580000830099023E00E98C0680C3009901EE0F6
:100590000E988068002803D1FFE70420099011E03D
:1005A0000E988068012806D1FFE7082009900C9872
:1005B0000F99086105E0082009900C980F9948618F
:1005C000FFE7FFE703E00020099000E0FFE70B985A
:1005D000FF2803D8FFE70F98049003E00F9804303A
:1005E0000490FFE7049808900B98FF2804D8FFE7D1
:1005F0000D988000039006E00D986FF01F0101EB4D
:1006000080000390FFE70398079008980068079917
:100610000F228A409043099A02FA01F1084308998F
:1006200008600E98C079C006002840F1CB80FFE733
:10063000FFE741F21800C4F20200016841F0010135
:100640000160006800F0010006900698FFE70D9831
:1006500020F003000821C4F2010140580A900D98CF
:1006600000F0030080000F2101FA00F00A9921EA4E
:1006700000000A900F9840F60001C4F20101884280
:1006800003D1FFE70020029026E00F9840F60041DA
:10069000C4F20101884203D1FFE70120019018E074
:1006A0000F9841F20001C4F20101884203D1FFE733
:1006B000022000900AE00F9841F20041C4F20101CB
:1006C0000422884208BF03220092FFE700980190AD
:1006D000FFE701980290FFE702980D9901F00301EE
:1006E000890088400A9908430A900A980D9921F0D8
:1006F00003010822C4F2010288500E988079C007D5
:10070000002809D0FFE70B9840F20041C4F2010134
:100710000A681043086009E00B9840F20041C4F2F7
:1007200001010A6822EA00000860FFE70E9880795C
:100730008007002809D5FFE70B9840F20441C4F276
:1007400001010A681043086009E00B9840F2044177
:10075000C4F201010A6822EA00000860FFE70E986F
:100760008079C006002809D5FFE70B9840F20841C0
:10077000C4F201010A681043086009E00B9840F2D6
:100780000841C4F201010A6822EA00000860FFE79C
:100790000E9880798006002809D5FFE70B9840F273
:1007A0000C41C4F201010A681043086009E00B988B
:1007B00040F20C41C4F201010A6822EA000008601C
:1007C000FFE7FFE7FFE70D9801300D9071E610B0ED
:1007D0007047000082B00A460190ADF802100198FF
:1007E0008068BDF80210084204D0FFE701208DF8B0
:1007F000010003E000208DF80100FFE79DF80100F3
:1008000002B0704782B013468C460190ADF80210DA
:100810008DF801209DF80100002805D0FFE7BDF804
:1008200002000199086105E0BDF802000004019989
:100830000861FFE702B0704740F29410C2F2000076
:100840000068704740F22800C2F20000007840F2D1
:100850009411C2F200010A68104408607047000059
:1008600080B582B042F20000C4F20200016841F09B
:1008700010010160032000F0A1F80F2000F006F83D
:10088000019000F03DF8002002B080BD80B582B03C
:10089000009040F20000C2F20000006840F228011F
:1008A000C2F2000109784FF47A72B2FBF1F1B0FBA9
:1008B000F1F000F071FD002804D0FFE701208DF871
:1008C000070018E000980F280DD8FFE700994FF0B7
:1008D000FF30002200F052F8009840F22C01C2F2E2
:1008E0000001086003E001208DF8070003E000200C
:1008F0008DF80700FFE79DF8070002B080BD0000FB
:1009000083B0FFE741F21800C4F20200016841F031
:1009100001010160006800F0010002900298FFE709
:10092000FFE741F21C00C4F20200016841F080516F
:100930000160006800F0805001900198FFE7FFE738
:100940000420C4F2010001680091009921F0E061E7
:100950000091009941F00071009100990160FFE75A
:1009600003B0704780B582B001468DF807009DF94D
:100970000700009102F0FEFA02B080BD80B588B099
:1009800003468DF81F000691059200200490039302
:1009900002F00AFB04909DF91F000499069A059B3A
:1009A0000290084611461A4601F0D4FE02990190C1
:1009B0000846019902F000FB08B080BD80B582B006
:1009C0000190019802F01AFB02B080BD80B584B09E
:1009D000029001910298002804D1FFE701208DF8D0
:1009E0000F001BE1019842F20001C4F20201096804
:1009F00001F00701884216D9FFE742F20000C4F275
:100A00000200016821F00701019A114301600068AA
:100A100000F007000199884204D0FFE701208DF81B
:100A20000F00FBE0FFE702980078800700282AD536
:100A3000FFE7029800784007002809D5FFE741F258
:100A40000400C4F20200016841F4E0610160FFE7C4
:100A5000029800780007002809D5FFE741F204005A
:100A6000C4F20200016841F460510160FFE741F205
:100A70000400C4F20200016821F0F001029A9268B9
:100A800011430160FFE702980078C007002860D09A
:100A9000FFE70298406801280ED1FFE741F200000D
:100AA000C4F2020000688003002804D4FFE701209C
:100AB0008DF80F00B2E021E00298406802280ED1C4
:100AC000FFE741F20000C4F2020000688001002844
:100AD00004D4FFE701208DF80F009FE00DE041F204
:100AE0000000C4F2020000688007002804D4FFE779
:100AF00001208DF80F0091E0FFE7FFE741F20400CD
:100B0000C4F20200016821F00301029A5268114305
:100B10000160FFF791FE0090FFE741F20400C4F28C
:100B20000200006800F00C0002994968B0EB810FE8
:100B30000ED0FFE7FFF780FE0099401A41F289319D
:100B4000884204D3FFE703208DF80F0066E0E4E756
:100B5000FFE7019842F20001C4F20201096801F0C6
:100B60000701884216D2FFE742F20000C4F20200F9
:100B7000016821F00701019A11430160006800F04B
:100B800007000199884204D0FFE701208DF80F008B
:100B900044E0FFE702980078400700280CD5FFE703
:100BA00041F20400C4F20200016821F4E061029AFB
:100BB000D26811430160FFE702980078000700281F
:100BC0000DD5FFE741F20400C4F20200016821F4F0
:100BD0006051029A126941EAC2010160FFE700F028
:100BE00021F841F20401C4F202010968C9B20909FD
:100BF00043F64842C0F60002515CC84040F2000192
:100C0000C2F20001086040F22C00C2F2000000684D
:100C1000FFF73CFE00218DF80F10FFE79DF80F0055
:100C200004B080BD8BB040F60E70C1F210000A9087
:100C300040F60A30C0F60C50099040F20670C0F63B
:100C40000810089040F20230C0F20450079040F2C1
:100C50000120ADF81A000020059004900390029046
:100C6000019041F20400C4F202000068059005986A
:100C700000F00C000146002800913DD0FFE70098ED
:100C8000042804D0FFE70098082806D035E041F298
:100C90000020C0F27A00019035E00598C0F383404F
:100CA00007A9085C02909DF81600C007002818D01C
:100CB000FFE741F20400C4F20200006800F40030D3
:100CC0000DF11A0141EA504000780490029841F277
:100CD0000021C0F27A0148430499B0FBF1F003907F
:100CE00007E0029840F60011C0F23D01484303902E
:100CF000FFE70398019006E0FFE741F20020C0F211
:100D00007A000190FFE701980BB0704780B586B07C
:100D100004900498002804D1FFE701208DF8170003
:100D200035E304980078C007002800F0B180FFE7A1
:100D300041F20400C4F20200006800F00C00042834
:100D400013D0FFE741F20400C4F20200006800F093
:100D50000C0008281CD1FFE741F20400C4F2020095
:100D60000068C003002813D5FFE741F20000C4F279
:100D7000020000688003002809D5FFE70498406856
:100D8000002804D1FFE701208DF81700FFE27EE084
:100D9000FFE704984068B0F5803F09D1FFE741F2D2
:100DA0000000C4F20200016841F48031016033E0C8
:100DB0000498406800280DD1FFE741F20000C4F21A
:100DC0000200016821F480310160016821F4802172
:100DD000016020E004984068B0F5A02F0DD1FFE736
:100DE00041F20000C4F20200016841F48021016078
:100DF000016841F4803101600CE041F20000C4F26E
:100E00000200016821F480310160016821F4802131
:100E10000160FFE7FFE7FFE7FFE70498406800286D
:100E20001AD0FFE7FFF708FD0390FFE741F200004B
:100E3000C4F202000068800300280CD4FFE7FFF72B
:100E4000FBFC0399401A652804D3FFE703208DF8C3
:100E500017009CE2EAE719E0FFF7EEFC0390FFE7DA
:100E600041F20000C4F202000068800300280CD5A3
:100E7000FFE7FFF7E1FC0399401A652804D3FFE779
:100E800003208DF8170082E2EAE7FFE7FFE7FFE7BC
:100E9000049800788007002840F18E80FFE741F237
:100EA0000400C4F20200006810F00C0F13D0FFE73A
:100EB00041F20400C4F20200006800F00C000828AF
:100EC00029D1FFE741F20400C4F202000068C00328
:100ED000002820D4FFE741F20000C4F202000068BD
:100EE0008007002809D5FFE704980069012804D08D
:100EF000FFE701208DF8170049E241F20000C4F23B
:100F00000200016821F0F801049A526941EAC20125
:100F10000160FFE74FE00498006900282BD0FFE74D
:100F20000020C4F2422001210160FFF785FC0390FC
:100F3000FFE741F20000C4F20200006880070028C9
:100F40000CD4FFE7FFF778FC0399401A032804D379
:100F5000FFE703208DF8170019E2EAE741F20000ED
:100F6000C4F20200016821F0F801049A526941EAD2
:100F7000C20101601EE00020C4F242200021016095
:100F8000FFF75AFC0390FFE741F20000C4F20200B1
:100F90000068800700280CD5FFE7FFF74DFC039998
:100FA000401A032804D3FFE703208DF81700EEE171
:100FB000EAE7FFE7FFE7FFE704980078000700286B
:100FC00049D5FFE704988069002823D0FFE740F265
:100FD0008040C4F2422001210160FFF72DFC039004
:100FE000FFE741F22400C4F20200006880070028F5
:100FF0000CD4FFE7FFF720FC0399401A032804D321
:10100000FFE703208DF81700C1E1EAE7012001F0B6
:10101000DBFB1FE040F28040C4F24220002101606F
:10102000FFF70AFC0390FFE741F22400C4F202003C
:101030000068800700280CD5FFE7FFF7FDFB039948
:10104000401A032804D3FFE703208DF817009EE120
:10105000EAE7FFE7FFE7049800784007002840F13F
:10106000DA80FFE700208DF8070041F21C00C4F28F
:1010700002000068C000002813D4FFE7FFE741F238
:101080001C00C4F20200016841F080510160006858
:1010900000F0805000900098FFE701208DF80700D5
:1010A000FFE747F20000C4F200000068C005002816
:1010B00022D4FFE747F20000C4F20000016841F4C7
:1010C00080710160FFF7B8FB0390FFE747F2000073
:1010D000C4F200000068C00500280CD4FFE7FFF749
:1010E000ABFB0399401A652804D3FFE703208DF872
:1010F00017004CE1EAE7FFE7FFE70498C068012822
:1011000009D1FFE741F22000C4F20200016841F07A
:101110000101016032E00498C06800280DD1FFE7AA
:1011200041F22000C4F20200016821F001010160D7
:10113000016821F0040101601FE00498C0680528DF
:101140000DD1FFE741F22000C4F20200016841F036
:1011500004010160016841F0010101600CE041F20D
:101160002000C4F20200016821F001010160016861
:1011700021F004010160FFE7FFE7FFE7FFE70498C4
:10118000C06800281CD0FFE7FFF756FB0390FFE77D
:1011900041F22000C4F202000068800700280ED44B
:1011A000FFE7FFF749FB0399401A41F28931884272
:1011B00004D3FFE703208DF81700E8E0E8E71BE021
:1011C000FFF73AFB0390FFE741F22000C4F2020070
:1011D0000068800700280ED5FFE7FFF72DFB039975
:1011E000401A41F28931884204D3FFE703208DF889
:1011F0001700CCE0E8E7FFE79DF80700012809D1D8
:10120000FFE741F21C00C4F20200016821F08051A6
:101210000160FFE7FFE70498C069002800F0B38091
:10122000FFE741F20400C4F20200006800F00C0085
:10123000082800F08280FFE70498C06902285CD18A
:10124000FFE76020C4F2422000210160FFF7F4FABA
:101250000390FFE741F20000C4F202000068800141
:1012600000280CD5FFE7FFF7E7FA0399401A032897
:1012700004D3FFE703208DF8170088E0EAE704981D
:10128000006AB0F5803F0CD1FFE741F20400C4F2E0
:101290000200016821F40031049A92681143016050
:1012A000FFE741F20400C4F20200016821F4741166
:1012B000049A136A526A1A43114301606020C4F20F
:1012C000422001210160FFF7B7FA0390FFE741F2E6
:1012D0000000C4F202000068800100280CD4FFE77F
:1012E000FFF7AAFA0399401A032804D3FFE7032063
:1012F0008DF817004BE0EAE71EE06020C4F24220C0
:1013000000210160FFF798FA0390FFE741F2000027
:10131000C4F202000068800100280CD5FFE7FFF747
:101320008BFA0399401A032804D3FFE703208DF8B2
:1013300017002CE0EAE7FFE724E00498C0690128E1
:1013400004D1FFE701208DF8170020E041F20400EE
:10135000C4F2020000680290029800F48030049900
:10136000096A884208D1FFE7029800F470100499D6
:10137000496A884204D0FFE701208DF8170006E093
:10138000FFE7FFE7FFE700208DF81700FFE79DF874
:10139000170006B080BD000080B582B001900198B2
:1013A00001F032FA02B080BD81B0009001B0704708
:1013B00081B0009001B0704784B00290019100208C
:1013C0000090FFE7029890F83C00012804D1FFE765
:1013D00002208DF80F0044E00298012180F83C10B3
:1013E000FFE7FFE7009820F0FF000199C968084374
:1013F0000090009820F4407001998968084300909B
:10140000009820F480600199496808430090009892
:1014100020F400600199096808430090009820F4C6
:1014200080500199096908430090009820F4005009
:101430000199496908430090009820F4804001997F
:10144000C969084300900098029909684864FFE759
:101450000298002180F83C10FFE700208DF80F0073
:10146000FFE79DF80F0004B07047000085B00390BF
:101470000291FFE7039890F83C00012804D1FFE7B0
:1014800002208DF813005BE00398012180F83C10E6
:10149000FFE7FFE70398022180F83D1003980068FA
:1014A000406801900398006880680090019820F0DF
:1014B000700001900298006801990843019001981A
:1014C0000399096848600398006842F60041C4F235
:1014D0000101884218D0FFE703980068B0F1804FFF
:1014E00012D0FFE70398006840F20041C4F2000107
:1014F000884209D0FFE70398006840F60001C4F273
:10150000000188420ED1FFE7009820F08000009093
:101510000298406800990843009000980399096870
:101520008860FFE70398012180F83D10FFE70398EA
:10153000002180F83C10FFE700208DF81300FFE742
:101540009DF8130005B0704780B584B002900298F2
:10155000002804D1FFE701208DF80F0043E0029836
:1015600090F83D00002808D1FFE70298002180F89C
:101570003C10029800F03CF8FFE70298022180F846
:101580003D10029850F8041B01900846019901F0A3
:10159000B7F90298012180F84610FFE7029801216F
:1015A00080F83E10029880F83F10029880F84010B2
:1015B000029880F84110FFE7FFE70298012180F8C8
:1015C0004210029880F84310029880F84410029864
:1015D00080F84510FFE70298012180F83D100020B7
:1015E0008DF80F00FFE79DF80F0004B080BD0000EC
:1015F00080B588B007900798006842F60041C4F2B1
:101600000101884210D1FFE7FFE741F21800C4F260
:101610000200016841F400610160006800F40060AC
:1016200006900698FFE744E007980068B0F1804F05
:101630001AD1FFE7FFE741F21C00C4F20200016883
:1016400041F001010160006800F00100059005987B
:10165000FFE71C20002103900291029AFFF78EF908
:101660000398FFF77FF923E00798006840F20041F4
:10167000C4F2000188421AD1FFE7FFE741F21C00E3
:10168000C4F20200016841F002010160006800F04C
:10169000020004900498FFE71D20002101900091B2
:1016A000009AFFF76BF90198FFF75CF9FFE7FFE796
:1016B000FFE708B080BD000083B00190019890F86A
:1016C0003D00012804D0FFE701208DF80B0047E022
:1016D0000198022180F83D1001980068C16841F02E
:1016E0000101C1600198006842F60041C4F20101A5
:1016F000884218D0FFE701980068B0F1804F12D0FF
:10170000FFE70198006840F20041C4F200018842FE
:1017100009D0FFE70198006840F60001C4F200011B
:10172000884212D1FFE701980068806800F0070046
:1017300000900098062807D0FFE70198006801682C
:1017400041F001010160FFE706E0019800680168CF
:1017500041F001010160FFE700208DF80B00FFE779
:101760009DF80B0003B0704781B00090FFE7009830
:101770000068006A41F21111084210D1FFE7009899
:101780000068006A40F24441084207D1FFE7009830
:101790000068016821F001010160FFE7FFE7FFE752
:1017A0000098012180F83D10002001B07047000032
:1017B00080B58AB008900791FFE7089890F83C0040
:1017C000012804D1FFE702208DF82700B7E0089830
:1017D000012180F83C10FFE7FFE70898022180F81C
:1017E0003D100898006880680690069820F0770001
:1017F0000690069820F47F4006900698089909689C
:101800008860079800680028059000F08280FFE754
:10181000059810287DD0FFE70598202879D0FFE7AC
:101820000598302875D0FFE70598402861D0FFE77C
:10183000059850283DD0FFE70598602849D0FFE77C
:10184000059870280BD0FFE70598B0F5805F05D0AC
:10185000FFE70598B0F5005F19D061E061E00898F6
:10186000006807994A688B68C96804911946049B07
:1018700001F0DAF80898006880680690069840F051
:1018800077000690069808990968886049E00898EA
:10189000006807994A688B68C96803911946039BD9
:1018A00001F0C2F808980068816841F480418160C5
:1018B00037E00898006807994A68C968029111469C
:1018C000029A01F003FB08980068502101F0C6F865
:1018D00027E00898006807994A68C968019111468D
:1018E000019A01F01BFB08980068602101F0B6F82E
:1018F00017E00898006807994A68C968009111467E
:10190000009A01F0E3FA08980068402101F0A6F877
:1019100007E0089800680799096801F09FF800E05F
:10192000FFE70898012180F83D10FFE708980021A3
:1019300080F83C10FFE700208DF82700FFE79DF8B6
:1019400027000AB080BD000081B0009001B0704750
:1019500080B582B0019001980068006900F0020033
:101960000021B1EB500F29D0FFE701980068C06853
:1019700000F002000021B1EB500F1ED0FFE70198EC
:1019800000686FF00201016101980121017701985F
:10199000006880698007002804D0FFE70198FFF7FE
:1019A000D3FF06E0019800F045F9019800F038FAFD
:1019B000FFE7019800210177FFE7FFE70198006842
:1019C000006900F004000021B1EB900F29D0FFE77F
:1019D00001980068C06800F004000021B1EB900F8E
:1019E0001ED0FFE7019800686FF0040101610198C3
:1019F0000221017701980068806910F4407F04D0CB
:101A0000FFE70198FFF7A0FF06E0019800F012F948
:101A1000019800F005FAFFE7019800210177FFE740
:101A2000FFE701980068006900F008000021B1EBB1
:101A3000D00F29D0FFE701980068C06800F00800C7
:101A40000021B1EBD00F1ED0FFE7019800686FF0C6
:101A50000801016101980421017701980068C069BB
:101A60008007002804D0FFE70198FFF76DFF06E02C
:101A7000019800F0DFF8019800F0D2F9FFE7019833
:101A800000210177FFE7FFE701980068006900F097
:101A900010000021B1EB101F29D0FFE7019800686A
:101AA000C06800F010000021B1EB101F1ED0FFE74E
:101AB000019800686FF01001016101980821017719
:101AC00001980068C06910F4407F04D0FFE70198D6
:101AD000FFF73AFF06E0019800F0ACF8019800F03B
:101AE0009FF9FFE7019800210177FFE7FFE70198E1
:101AF00000680069C007002811D0FFE7019800685E
:101B0000C068C007002809D0FFE7019800686FF09F
:101B100001010161019800F0ADFAFFE7FFE70198CC
:101B200000680069C0B20021B1EBD01F13D0FFE7FD
:101B300001980068C068C0B20021B1EBD01F09D085
:101B4000FFE7019800686FF0800101610198FFF7DD
:101B50002BFCFFE7FFE701980068006900F04000F8
:101B60000021B1EB901F14D0FFE701980068C06816
:101B700000F040000021B1EB901F09D0FFE7019871
:101B800000686FF040010161019800F051FCFFE72F
:101B9000FFE701980068006900F020000021B1EB28
:101BA000501F14D0FFE701980068C06800F02000C3
:101BB0000021B1EB501F09D0FFE7019800686FF0DA
:101BC000200101610198FFF7F3FBFFE7FFE702B097
:101BD00080BD000080B586B0059000200490039081
:101BE000029001900598006842F60041C4F201019C
:101BF00088421DD1FFE7FFE741F21800C4F202005E
:101C0000016841F004010160006800F004000090E8
:101C10000098FFE74FF4807001900220029004903A
:101C200040F60000C4F2010001A9FEF73BFCFFE70B
:101C300006B080BD81B0009001B0704780B586B01D
:101C4000049003910292FFE7049890F83C00012869
:101C500004D1FFE702208DF8170085E004980121E8
:101C600080F83C10FFE7FFE702980C28019000F293
:101C700070800199DFE801F0076D6D6D206D6D6D6D
:101C80003A6D6D6D530004980068039900F0FCFEF6
:101C900004980068816941F0080181610498006836
:101CA000816921F004018161039800690499096840
:101CB0008A69104388614DE004980068039900F038
:101CC0004BFF04980068816941F4006181610498C8
:101CD0000068816921F48061816103980069049939
:101CE00009688A6942EA0020886133E00498006844
:101CF000039900F09DFF04980068C16941F0080154
:101D0000C16104980068C16921F00401C1610398B0
:101D1000006904990968CA691043C8611AE0049807
:101D20000068039900F0F0FF04980068C16941F46D
:101D30000061C16104980068C16921F48061C161DA
:101D40000398006904990968CA6942EA0020C861D9
:101D500000E0FFE7FFE70498002180F83C10FFE770
:101D600000208DF81700FFE79DF8170006B080BD32
:101D700080B584B002900298002804D1FFE70120CA
:101D80008DF80F0043E0029890F83D00002808D13C
:101D9000FFE70298002180F83C10029800F03CF820
:101DA000FFE70298022180F83D10029850F8041BCA
:101DB00001900846019900F0A3FD0298012180F8E6
:101DC0004610FFE70298012180F83E10029880F843
:101DD0003F10029880F84010029880F84110FFE709
:101DE000FFE70298012180F84210029880F8431022
:101DF000029880F84410029880F84510FFE7029896
:101E0000012180F83D1000208DF80F00FFE79DF8BC
:101E10000F0004B080BD000081B0009001B0704799
:101E200081B0009001B0704780B58AB008900791EA
:101E30000798002805D1FFE7089890F83E00059024
:101E40001CE00798042805D1FFE7089890F83F00A8
:101E5000049010E00798082805D1FFE7089890F84B
:101E60004000039004E0089890F841000390FFE7D9
:101E700003980490FFE704980590FFE70598012870
:101E800004D0FFE701208DF827007BE007980028A9
:101E900005D1FFE70898022180F83E101EE0079860
:101EA000042806D1FFE70898022180F83F1002912C
:101EB00012E00798082806D1FFE70898022180F869
:101EC0004010019105E00898022180F8411001912D
:101ED000FFE701980290FFE70298FFE70898006883
:101EE0000799012200F084FD0898006842F600413D
:101EF000C4F20101884207D1FFE708980068416CED
:101F000041F400414164FFE70898006842F600414F
:101F1000C4F20101884218D0FFE708980068B0F1C8
:101F2000804F12D0FFE70898006840F20041C4F2E9
:101F30000001884209D0FFE70898006840F60001D8
:101F4000C4F20001884212D1FFE708980068806857
:101F500000F0070006900698062807D0FFE70898CB
:101F60000068016841F001010160FFE706E00898A0
:101F70000068016841F001010160FFE700208DF871
:101F80002700FFE79DF827000AB080BD80B584B028
:101F900003900291039800680299002200F028FD46
:101FA0000398006842F60041C4F2010188421BD147
:101FB000FFE7FFE703980068006A41F21111084249
:101FC00010D1FFE703980068006A40F244410842DC
:101FD00007D1FFE703980068416C21F40041416498
:101FE000FFE7FFE7FFE7FFE7FFE703980068006A06
:101FF00041F21111084210D1FFE703980068006A0E
:1020000040F24441084207D1FFE7039800680168A5
:1020100021F001010160FFE7FFE7FFE702980028D8
:1020200005D1FFE70398012180F83E101EE00298D9
:10203000042806D1FFE70398012180F83F100191A1
:1020400012E00298082806D1FFE70398012180F8E2
:102050004010009105E00398012180F841100091A3
:10206000FFE700980190FFE70198FFE7002004B028
:1020700080BD000080B586B00590059840F2F00163
:10208000C2F20001884261D1FFE740F29C10C2F227
:1020900000000068002811D1FFE740F2F000C2F212
:1020A0000000FFF761FB40F2A801C2F2000100222C
:1020B000039008461146FFF769FF46E040F29C1086
:1020C000C2F20000006800281ED0FFE740F2A00026
:1020D000C2F20000016801310160006840F29C1109
:1020E000C2F20001096888420DD1FFE740F2981062
:1020F000C2F200000068013840F2F001C2F20001B3
:102100000968C862FFE71FE040F2A000C2F20000C9
:10211000006840F29C11C2F2000109680131884256
:1021200011D1FFE740F2F000C2F20000FFF71CFB04
:1021300040F2A801C2F200010022029008461146B6
:10214000FFF724FFFFE7FFE7FFE7FFE7059840F20F
:102150003811C2F20001884240F01B81FFE740F2D3
:102160008810C2F20000007801460328019100F2B5
:102170000E810199DFE801F00255A4C640F6000087
:10218000C4F201004FF40071FEF724FB012807D1CF
:10219000FFE740F20800C2F200000121017006E0F2
:1021A00040F20800C2F2000000210170FFE740F693
:1021B0000000C4F201004FF48061FEF70BFB012820
:1021C0000AD1FFE740F60000C4F201004FF40061BD
:1021D0000122FEF717FB09E040F60000C4F20100FF
:1021E0004FF400610022FEF70DFBFFE740F208000C
:1021F000C2F200000078002812D0FFE740F28810F9
:10220000C2F200000121017040F2A400C2F20000FD
:102210000021017040F20800C2F200000170FFE7E7
:10222000B6E040F2A500C2F20000007840F21001D2
:10223000C2F200010A6810440860086840F2801188
:10224000C2F200010968884217D3FFE740F280100C
:10225000C2F20000006840F21001C2F20001086002
:1022600040F29800C2F200000121017040F2881093
:10227000C2F2000002210170FFE740F2A800C2F2A2
:102280000000016800224A6240F21001C2F200011F
:102290000A684AF20023C0F24A4393FBF2F2013A81
:1022A000D0F800C0CCF82C20096893FBF1F101EBC9
:1022B000D1714FF0FF3202EB61010068416367E0CA
:1022C00040F2F000C2F200000068406AADF812006F
:1022D00040F2A000C2F200000068C0EB0040BDF870
:1022E0001210084440F29011C2F2000109688842BD
:1022F00007D3FFE740F28810C2F20000032101700B
:10230000FFE745E040F2A500C2F20000007840F28D
:102310001001C2F200010A68101A0860086800285B
:1023200012DCFFE740F21000C2F200000121016060
:1023300040F2A400C2F20000017040F2A000C2F21C
:10234000000000210160FFE740F2A800C2F2000097
:10235000016800224A6240F21001C2F200010A68DC
:102360004AF20023C0F24A4393FBF2F2013AD0F85A
:1023700000C0CCF82C20096893FBF1F101EBD1717E
:102380004FF0FF3202EB61010068416300E0FFE7BC
:10239000FFE706B080BD000080B584B002900191D7
:1023A000FFE7029890F83C00012804D1FFE70220E3
:1023B0008DF80F0038E00298012180F83C10FFE70B
:1023C000FFE70298022180F83D100298019900F081
:1023D000E7FC00280ED0FFE70298012180F83D10AD
:1023E000FFE70298002180F83C10FFE701208DF8FC
:1023F0000F0019E002980068C16821F04001C16037
:1024000002980068C16821F48041C16002980121EE
:1024100080F83D10FFE70298002180F83C10FFE7AC
:1024200000208DF80F00FFE79DF80F0004B080BD7D
:1024300081B0009001B07047FFE7FEE780B58AB039
:1024400000200990089007900690FFE741F21800DD
:10245000C4F20200016841F020010160006800F050
:10246000200005900598FFE7FFE741F21800C4F24D
:102470000200016841F004010160006800F00400FE
:1024800004900498FFE740F60000C4F201004FF406
:1024900000610022039002910192FEF7B3F94FF41C
:1024A000C060069001980790089006A903980091D3
:1024B000FDF7F8FF02980690012107910199089114
:1024C0000222099203980099FDF7ECFF0AB080BD43
:1024D00080B596B000201590149013901290119032
:1024E00010900F900E900D900C900B900A90099008
:1024F0000890079006900590049003900290019038
:1025000040F2A801C2F2000142F60042C4F2010208
:102510000A604860886040F26712CA6008614861DA
:1025200088610846FFF710F8002803D0FFE7FDF7A1
:10253000B1FFFFE74FF48050129040F2A800C2F2C2
:10254000000012A9FFF734F9002803D0FFE7FDF7D8
:10255000A1FFFFE740F2A800C2F20000FFF708FC6D
:10256000002803D0FFE7FDF795FFFFE7302010902C
:102570000020119040F2A800C2F2000010A9FEF75E
:1025800075FF002803D0FFE7FDF784FFFFE7602019
:102590000990B3200A9000200B900C900D900E90A3
:1025A0000F9040F2A801C2F2000109AA009008466B
:1025B0001146009AFFF742FB002803D0FFE7FDF722
:1025C00069FFFFE740F2A800C2F2000001688A69D3
:1025D00022F008028A610021019102910391049185
:1025E00005914FF400520692089101A9FEF7E4FE0E
:1025F000002803D0FFE7FDF74DFFFFE740F2A800FA
:10260000C2F20000FFF7E6FA16B080BD80B58CB0CC
:1026100000200B900A900990089007900690059072
:10262000049003900290019040F2F001C2F2000188
:102630004FF080420A604860886041F6FF02CA603D
:10264000086188610846FEF77FFF002803D0FFE796
:10265000FDF720FFFFE74FF48050089040F2F000B4
:10266000C2F2000008A9FFF7A3F8002803D0FFE793
:10267000FDF710FFFFE7052003900020049040F2D3
:10268000F000C2F2000003A9FFF786FE002803D085
:10269000FFE7FDF7FFFEFFE72020019000200290FA
:1026A00040F2F000C2F2000001A9FEF7DFFE0028B0
:1026B00003D0FFE7FDF7EEFEFFE70CB080BD0000A2
:1026C00080B586B0002005900490039002900190A0
:1026D000009040F23811C2F2000140F20042C4F210
:1026E00000020A6047224A60886040F2CF72CA60E6
:1026F000086188610846FEF727FF002803D0FFE73E
:10270000FDF7C8FEFFE74FF48050029040F238100A
:10271000C2F2000002A9FFF74BF8002803D0FFE740
:10272000FDF7B8FEFFE700200090019040F238105E
:10273000C2F200006946FEF799FE002803D0FFE7C9
:10274000FDF7A8FEFFE706B080BD0000FFE7FEE74B
:10275000FFE7FEE788B0079006910592079800F022
:10276000070004900498C0F10700052803D3FFE791
:102770000420019004E00498C0F107000190FFE7F5
:102780000198039004980430062803D8FFE700203E
:10279000009003E0049803380090FFE7009802904F
:1027A00006980399012202FA01F1013908400299C1
:1027B0008840059B02FA01F101391940084308B02D
:1027C000704700007047000082B00190019840F20D
:1027D0000001C2F200010968C90844F6D352C1F2EF
:1027E0006202A1FB0212920950430090FFE700BF72
:1027F000FFE70098411E00910028F8D1FFE702B0E2
:10280000704700007047000080B582B000900098CB
:102810000138B0F1807F03D3FFE70120019019E078
:10282000009801384EF21401CEF2000108604FF01A
:10283000FF300F2100F0C0FB4EF21800CEF2000076
:10284000002101604EF21000CEF20000072202606B
:102850000191FFE7019802B080BD000080B5FDF74F
:10286000F1FF80BD80B592B008A828210290FDF745
:10287000B1FC002007900690059004900390012180
:1028800008914FF4803209920A900C9102200F9027
:1028900010924FF4E01011900298FEF737FA0028DA
:1028A00003D0FFE7FDF7F6FDFFE70F2003900220BE
:1028B0000490002105914FF480620692079103A9CC
:1028C000019008460199FEF781F8002803D0FFE740
:1028D000FDF7E0FDFFE712B080BD0000704700008B
:1028E00080B540F2F000C2F20000FFF731F880BD81
:1028F00080B540F23810C2F20000FFF729F880BD21
:1029000083B002900191029800680090029842F60C
:102910000041C4F20101884215D0FFE70298B0F1EE
:10292000804F10D0FFE7029840F20041C4F200014E
:10293000884208D0FFE7029840F60001C4F2000187
:1029400088420AD1FFE7009820F0700000900198BB
:102950004068009908430090FFE7029842F6004162
:10296000C4F20101884215D0FFE70298B0F1804F10
:1029700010D0FFE7029840F20041C4F20001884203
:1029800008D0FFE7029840F60001C4F20001884237
:102990000AD1FFE7009820F4407000900198C068C9
:1029A000009908430090FFE7009820F0800001990B
:1029B000496908430090009802990860019880686E
:1029C0000299C8620198006802998862029842F6EA
:1029D0000041C4F20101884205D1FFE70198006976
:1029E00002990863FFE702980121416103B0704733
:1029F00084B0039002910192029800F01F0001211F
:102A000001FA00F00090009803990A6A22EA000097
:102A100008620198029901F01F01884003990A6A2F
:102A20001043086204B0704785B00490039102928D
:102A30000193049880680090009820F47F400090F3
:102A400003980299019A41EA022108430099084338
:102A5000009000980499886005B0704783B0029098
:102A60000191029880680090009820F0700000901A
:102A700001980099084340F00700009000980299DF
:102A8000886003B07047000085B0049003910498FB
:102A9000016A21F0010101620498006A0190049822
:102AA00040680090049880690290029820F07000BD
:102AB0000290029820F003000290039800680299A7
:102AC00008430290019820F002000190039880686A
:102AD000019908430190049842F60041C4F20101B3
:102AE00088420ED1FFE7019820F00800019003987A
:102AF000C068019908430190019820F004000190FA
:102B0000FFE7049842F60041C4F20101884213D164
:102B1000FFE7009820F480700090009820F4007087
:102B200000900398406900990843009003988069D9
:102B3000009908430090FFE70098049948600298C4
:102B4000049988610398406804994863019804993E
:102B5000086205B07047000085B0049003910498A6
:102B6000016A21F0100101620498006A0190049842
:102B700040680090049880690290029820F4E04038
:102B80000290029820F44070029003980068029925
:102B900041EA00200290019820F020000190039863
:102BA0008068019941EA00100190049842F60041C2
:102BB000C4F2010188420FD1FFE7019820F08000A4
:102BC00001900398C068019941EA001001900198B2
:102BD00020F040000190FFE7049842F60041C4F263
:102BE0000101884215D1FFE7009820F48060009031
:102BF000009820F40060009003984069009941EA31
:102C00008000009003988069009941EA800000905C
:102C1000FFE7009804994860029804998861039836
:102C200040680499886301980499086205B0704768
:102C300085B0049003910498016A21F480710162C7
:102C40000498006A01900498406800900498C06954
:102C50000290029820F070000290029820F0030089
:102C6000029003980068029908430290019820F4AA
:102C70000070019003988068019941EA002001905A
:102C8000049842F60041C4F2010188420FD1FFE7E7
:102C9000019820F4006001900398C068019941EA0E
:102CA00000200190019820F480600190FFE70498D3
:102CB00042F60041C4F20101884215D1FFE70098B5
:102CC00020F480500090009820F400500090039869
:102CD0004069009941EA00100090039880690099CA
:102CE00041EA00100090FFE70098049948600298BC
:102CF0000499C861039840680499C86301980499CD
:102D0000086205B07047000085B0049003910498F4
:102D1000016A21F4805101620498006A01900498CC
:102D2000406800900498C0690290029820F4E04046
:102D30000290029820F44070029003980068029973
:102D400041EA00200290019820F40050019003987D
:102D50008068019941EA00300190049842F60041F0
:102D6000C4F2010188420BD1FFE7009820F48040B3
:102D7000009003984069009941EA80100090FFE7B5
:102D800000980499486002980499C86103984068C3
:102D90000499086401980499086205B0704700001E
:102DA00080B58AB0089007910898006880680690FE
:102DB000069820F07000069007984068069908432E
:102DC0000690069820F0070006900798006806997C
:102DD0000843069006980899096888600798406833
:102DE0000028039068D0FFE70398102864D0FFE71D
:102DF0000398202860D0FFE7039830285CD0FFE7D5
:102E00000398402818D0FFE7039850283ED0FFE7EA
:102E10000398602845D0FFE7039870284DD1FFE75D
:102E20000898006807998A68CB6809690291194671
:102E3000029BFFF7F9FD41E007980068052804D1DF
:102E4000FFE701208DF827003CE008980068006A41
:102E5000049008980068016A21F001010162089855
:102E6000006880690590059820F0F00005900798AB
:102E70000069059941EA00100590059808990968CC
:102E80008861049808990968086217E00898006842
:102E900007998A68096901911146019A00F016F8AC
:102EA0000CE00898006807998A6809690091114642
:102EB000009A00F033F801E000E0FFE700208DF811
:102EC0002700FFE79DF827000AB080BD85B0049079
:102ED000039102920498006A00900498016A21F01C
:102EE00001010162049880690190019820F0F000CE
:102EF00001900298019941EA00100190009820F099
:102F00000A000090039800990843009001980499E2
:102F1000886100980499086205B0704785B00490F4
:102F2000039102920498016A21F010010162049851
:102F3000806901900498006A0090019820F4704024
:102F400001900298019941EA00300190009820F028
:102F5000A00000900398009941EA001000900198A9
:102F60000499886100980499086205B070470000D0
:102F7000FFE7FEE781B001468DF803009DF90300ED
:102F800000280FD4FFE79DF9030000F01F01012284
:102F900002FA01F140094EF20012CEF2000242F8AC
:102FA0002010FFE701B070474EF60C50CEF2000043
:102FB0000068C0F30220704782B002468DF8070017
:102FC00000919DF9070000280AD4FFE7009800014E
:102FD0009DF907104EF20042CEF2000288540BE039
:102FE000009800019DF8071001F00F014EF61452F1
:102FF000CEF200028854FFE702B0704783B002901F
:10300000029800F0070000904EF60C50CEF200003F
:103010000168019101994FF6FF0211400191019958
:10302000009A41EA02210022C0F2FA5211430191B2
:103030000199016003B0704710B5A0B000201F9047
:103040001E90FDF70DFC1D90FFF70CFCFFF7F6F945
:10305000FFF73EFAFFF7DAFAFFF732FB40F2100013
:10306000C2F2000000684AF20021C0F24A4191FB1E
:10307000F0F0013840F2A801C2F200010A68D06203
:1030800008681E9A426308461146FEF7CDFE40F2DC
:10309000F001C2F2000109686FF001020A6140F21A
:1030A0000C01C2F20001096840F23002C2F20002D3
:1030B00013681C90084619461B9200F037FC40F23A
:1030C0002001C2F200010A681A91114600F0F0FCDA
:1030D00040F21401C2F200010A681991114600F091
:1030E000E7FC40F28411C2F20001086040F22400C3
:1030F000C2F2000000681B9A13681891194600F08C
:1031000015FC1A99096800F0D3FC1999096800F0B8
:10311000CFFC40F21C01C2F20001086040F2040042
:10312000C2F2000000681B9A13681791194600F05C
:10313000FDFB1A99096800F0BBFC1999096800F0B9
:10314000B7FC40F21801C2F200010860189800684C
:10315000169100F0BFFB40F23402C2F20002138865
:103160005B08159018461491139200F08AFA48F201
:103170006E62CFF21B0242F2F913C4F209031292FB
:10318000119300F0C9F8159A10901046149B0F91F6
:103190001946109A0F9B00F09FFA00F045FA40F292
:1031A0008C11C2F200010860179800680E9100F0BF
:1031B00091FB139A13885B080D9018460C9100F050
:1031C00060FA129A119B00F0A7F80D9A0B90104626
:1031D0000C9B0A9119460B9A0A9B00F07DFA00F0AD
:1031E00023FA40F28011C2F20001086016980068CC
:1031F000099100F06FFB139A13885B08089018463A
:10320000079100F03EFA129A119B00F085F8089A97
:1032100006901046079B05911946069A059B00F0FB
:103220005BFA00F001FA40F29C01C2F20001086072
:103230000E98026848F20103C8F20003A2FB032CB7
:103240004FEADC3C40F29C1EC2F2000ECEF800C0F9
:10325000D0F800C0ACFB0334E40BA4EB0444A4445A
:1032600040F29814C2F20004C4F800C00868049147
:103270000392CDF808E0019300F01AFA4AF6FC1226
:10328000CDF2F12246F24D23C3F6607300F024FA2A
:1032900000F09AF940F2A501C2F2000108700E9800
:1032A0000168099A13685B43DDF810C0DCF800E0A0
:1032B000B3FBFEF3A1EB530140F29013C2F2000303
:1032C000196002990B68002B0DD1FFE740F29810AE
:1032D000C2F200000068013840F2F001C2F20001C1
:1032E0000968C86208E040F2F000C2F2000000681D
:1032F0004FF6FF71C162FFE740F2F000C2F200003A
:10330000FEF7DAF940F23811C2F2000100900846E7
:10331000FEF7D2F9FFE7FEE72DE9C04130B4DFF850
:10332000A0C23CEA111418BF3CEA131400F0EC8070
:103330001CEA111481EA030544EAD57418BF1CEA9B
:10334000131500F0C780A4EB050404F17F7404F5A5
:1033500000344FF0004545EAC12145EAC32341EA64
:10336000505143EA52534FEAC0204FEAC2229942D9
:1033700008BF904200F09C804FEA13650FF24016A0
:10338000765D4FEA134506FB05F7C7F1807706FB2C
:1033900007F74FEAD737A7FB03687642A7FB06CEAD
:1033A000C8F5803838BFA8F1010807FB08E6A6FB7E
:1033B000028C4FF0000EE6FB03CEDCF1000CCEF1E8
:1033C000004E38BFAEF1010EA6FB0C584FF00007BF
:1033D000E6FB0E87A1FB08C6A0FB07CE16EB0E0688
:1033E0004FF0000545F10005E1FB076515F1E04EE2
:1033F0007EBFA4F580345FEA46066D4116F1800772
:1034000045F100054FEA172747EA05674FEA1525FA
:103410004FEA0666A6F1DE46B6F1805F1FD9384650
:1034200005EBC47124F0010C01EB0C11BCF1FE6F33
:1034300002D8F0BCBDE8008124425CBF01F5801ECB
:103440009EEAC47F02D4F0BCBDE80081244238D497
:10345000A1F1C041F0BCBDE8004100F035BA4FEA2F
:10346000D02040EA41504FEAD1214FEAD22242EA2D
:1034700043524FEAD323A7FB028607FB036605FBF3
:1034800002661EEA0E0F58BFA6EB0056B6EB0056BA
:103490004FEA520E4EEAC37E18EB0E0E56EB530E59
:1034A000BDD518EB02085E417F1C55F10005B6E75B
:1034B0004FF480154FF000074FF000064FF0000862
:1034C000ADE701F1C04101F000414FF00000F0BC58
:1034D000BDE800810CEA131511EA0C1F00D00CE0C6
:1034E00013EA0C1F00F025804FF0000081EA030171
:1034F00001F00041F0BCBDE80081F0BCBDE8004136
:1035000081EA030100F0E0B9F0BCBDE8004170B50C
:1035100000F08CF9097EFC3E00F007B84FF0000087
:1035200081EA030101F00041704781EA030100F0E4
:10353000CBB9F0BCBDE8004122494FF00000704714
:10354000FFFDFBF9F7F5F4F2F0EEEDEBE9E8E6E468
:10355000E3E1E0DEDDDBDAD8D7D5D4D3D1D0CFCDEF
:10356000CCCBCAC8C7C6C5C4C2C1C0BFBEBDBCBB28
:10357000BAB9B8B7B6B5B4B3B2B1B0AFAEADACAB23
:10358000AAA9A8A8A7A6A5A4A3A3A2A1A09F9F9EFD
:103590009D9C9C9B9A9999989797969595949393AF
:1035A000929191908F8F8E8E8D8C8C8B8B8A898946
:1035B00088888787868585848483838282818180C9
:1035C0000000FF070000F87F4FEA41034FEA535322
:1035D000A3F58063D3F11E03C8BFD3F1210C0CDD2A
:1035E0004FF0004242EAC12242EA505232FA03FC52
:1035F0008CEAE17CACEBE1707047102BC4BF00207B
:10360000704703F5787CBCF1FF3F04D06FF00042B7
:1036100082EA2100704770B500F008F949922480D1
:1036200000207047F2E700004FEA1153A3F58063D2
:10363000D3F11E03A8BFD3F1200C08DB4FF00042EA
:1036400042EAC12252EA505232FA03F0704709426C
:103650000BD4102BC4BF0020704703F5787CBCF15D
:10366000FF3F05D04FF0FF3070474FF0000070472C
:1036700070B500F0DBF800BF49922480002070474D
:10368000F0E710F0004248BF4042B0FA80F310FA71
:1036900003F10AD0C3F11D0303F5806302EB03526B
:1036A0004FEA415002EBD12170474FF000007047C4
:1036B000B0FA80F310FA03F10AD0C3F11D0303F549
:1036C00080634FEA03524FEA415002EBD121704729
:1036D0004FF000007047000070B5DFF848C11CEAE9
:1036E000111E1EBF1CEA13159EEA0C0F95EA0C0F63
:1036F00000F06F8081EA03044EEAD47EAE4421EAF2
:103700004C1123EA4C1341F4801143F48013AEF1C1
:103710007F7EA1FB024CA0FB0365361955EB0C051F
:10372000A1FB034C4CF10003A0FB021C16EB0C06A2
:10373000654153F10003094218BF46F0010613F436
:10374000007F0BD14FEA03314FEA053041EA1551B2
:1037500040EA165034036FF003020AE04FEAC32137
:103760004FEAC52041EA555140EA5650F4026FF045
:10377000020202EB2E4201EB025585EACE710AD01D
:103780005FEA440C18BF24F0004450F1000041F1FE
:10379000000120EAD47040F2FE7C624500D270BD88
:1037A000A84214BF4FF080444FF04044002E08BFA1
:1037B0000024BEF1806FA8BFA1F1C041BDE87040F8
:1037C00080F2828001F1C04101F000414FF0000021
:1037D00070470CEA13159EEA0C0F18BF95EA0C0F00
:1037E00006D081EA030E4FF000000EF0004170BDDC
:1037F00000F01CF88900013E00F007B800F009B89D
:103800004FEA430C5FEA5C5C08D081EA030100F0F8
:103810005BB84FEA410C5FEA5C5CF6D102494FF0BD
:10382000000070470000FF070000F87F0EF1020E55
:103830002EF0030E5EF8046B364205D4012A43EBEA
:10384000030515F5001F12D8012841EB010C1CF5EA
:10385000001F0CD80ED14FEAD17C0CEB4C0C0CF1B4
:10386000020C15F5001F08BF4CEBD37C04E04FF0B1
:10387000080C01E04FEAD37C0CEB4C0526FA05F668
:1038800006F00706B6F1040C06D20EEB860CBDE876
:1038900070404CF0010C6047DFE80CF0090B0202AD
:1038A0004FF00041A1F500214FF0000070BD194616
:1038B0001046012851EB010418BFD4F5001484BF51
:1038C000002001F0004170BD0808A0F500114FEA8A
:1038D0003101704743004FEAD30C4FEA3C0C4340A0
:1038E0001FBF40070CF1605113F0FE4F70471CF0F2
:1038F000006F03D10CF00041002070470CF0004332
:1039000043EA507040EACC0010B500F052F900BF15
:10391000000000924FEA0001FFF7D6BF4FF00041D0
:10392000A1F500214FF00000704700004FF47F0C1C
:103930001CEAD0121EBF1CEAD11392EA0C0F93EAC4
:103940000C0F00F0858090EA010F48BF42F48072AE
:1039500040F4000C41F400002CF07F4120F07F4047
:1039600000B5A2EB030281420FF2081CACEB504EF3
:103970009EF800E0C0F100004FEA4E0E00FB0EFC86
:1039800038BF49004FEA2C1C0CFB0EF34FEACE1E49
:103990000EEB635E4FEA112C0EFB0CFC4FEAC121CB
:1039A0004FEA1C5300FB031102F5FA024FEA112CF7
:1039B0000EFB0CFC4FEA01314FEADC4C00FB0C1112
:1039C00042EB2242C14228BF09184CEB03335DF899
:1039D00004EB10EB410143EBC250B2F57C0F38BF52
:1039E000704729D512F0F00F1CBF00F1C04000F065
:1039F00000407047008182838485868788898B8C0C
:103A00008D8E8F919293959697999A9C9D9FA0A247
:103A1000A3A5A7A8AAACAEB0B2B3B5B7B9BCBEC097
:103A2000C2C5C7C9CCCED1D4D7D9DCDFE2E6E9EC38
:103A3000F0F3F7FAFE0000004FEA400C0CF1807C36
:103A4000BCF17E4F28BF7047B0F1C04000F0F7B81E
:103A50000CEAD11390EA010F48BF42F4807262452C
:103A600038BF634507D213F47F0F16D080EA0100F8
:103A700000F00040704710B500F09BF8097EFC3E56
:103A800000F005B880EA010000F00040704780EACD
:103A9000010000F0004000F0D2B812F47F0F04BF24
:103AA0000248704780EA010000F0C9B80000C07FFA
:103AB0004FF47F0C1CEAD0121EBF1CEAD11392EA0D
:103AC0000C0F93EA0C0F00F0478090EA010F48BFFB
:103AD00042F480724FF0004C4CEA00204CEA012185
:103AE00002EB0302A0FB0113A2F50002002918BF9C
:103AF00043F001035B0028BF4FEA330342EB22424D
:103B00005FEA132C4CEBC2502EBFBCEB436FB2F5F7
:103B10007C0F70474FEA036CBCF1004F08BF20F0E8
:103B20000100B2F57C0F38BF70470BD582F0FF0261
:103B300012F5803FC8BF704700F1C040D8BF00F009
:103B40000040704700F5000C5FEA4C0C48BF70471E
:103B5000B0F1C04000F073B80CEAD11390EA010F45
:103B600048BF42F48072624538BF634504D280EAA0
:103B7000010000F00040704710B500F01AF800BFD7
:103B80008900013E00F007B800F009B85FEA410C77
:103B90005FEA1C6C08D080EA010000F050B85FEAD0
:103BA000400C5FEA1C6CF6D14FF00040A0F580009D
:103BB00070470EF1020E2EF0030E5EF8044B244205
:103BC00004D44FEA4102B2F17F4F11D84FEA4003CB
:103BD000B3F17F4F0CD80ED14FEAD07C0CEB4C0CDC
:103BE0000CF1020CB2F17F4F08BF4CEBD17C04E02A
:103BF0004FF0080C01E04FEAD17C0CEB4C0324FAA7
:103C000003F404F00704B4F1040C06D20EEB840CA8
:103C1000BDE810404CF0010C6047DFE80CF00708ED
:103C200002024FF00040A0F5800010BD084642009F
:103C300018BFD2F1807288BF00F0004010BDFF2194
:103C400041EAD050C00570470000000000000000AD
:103C50000102030406070809783C00080000002060
:103C60003800000028010008B03C0008380000209F
:103C700068070000440100080024F400CDCC4C3F4C
:103C8000010000000000803F010000003333933F3B
:103C9000000000400000803F00000040CDCCCC3E42
:103CA0000100000010000000CDCC4C3D800C000055
:04000005080000ED02
:00000001FF
